:100000000C94100F0C94410F0C94410F0C94410F61
:100010000C94410F0C94410F0C94410F0C94410F20
:100020000C94410F0C94410F0C94B8B00C94410FF8
:100030000C94410F0C94410F0C94410F0C94410F00
:100040000C94410F0C9464B60C94410F0C94410F26
:100050000C94410F0C94410F0C94410F0C944CE004
:100060000C94410F0C94410F0C94410F0C94410FD0
:100070000C94410F0C94410F0C94410F0C94410FC0
:100080000C942CB70C94A0BC0C94410F0C949E398A
:100090000C94410F0C94410F0C94410F0C94410FA0
:1000A0000C94410F0C94410F0C94410F0C94410F90
:1000B0000C94410F0C94410F0C94410F0C940F2998
:1000C0000C94410F0C94410F0C94410F0C94410F70
:1000D0000C94410F0C94410F0C94410F0C94410F60
:1000E0000C94410F0C94D2D70C949E7E0C94957571
:1000F0000C94A6F60C94CC960C9470BD0C943837E6
:100100000C94F7140C94C9960C94DCD70C94B7F6A5
:100110000C94CF960C9406970C9441390C94D8F615
:100120000C944FAA0C94CEF60C94E6D70C940ABE0D
:100130000C94F89E0C9486970C9498960C9460DC22
:100140000C9496BD0C944C150C94FCD70C94C815CB
:100150000C9421760C941FF70C9463F90C9446FCD4
:100160000C94F8D70C94A6FD0C941AF90C940397F0
:100170000C94C3960C945DF40C94D4300C94A33876
:100180000C941E760C9486960C94C6960C948996C4
:100190000C94E9360C94B1F60C9486750C94589630
:1001A0000C94B5FD0C9436760C94C8FA0C94CF756B
:1001B0000C94687E0C94D8D70C9429D80C94BFBDAD
:1001C0000C947CC70C9421F70C9464F40C94FA966C
:1001D0000C94FC970C94DDFC0C9420380C94CEFC11
:1001E0000C949FF60C94AEFB0C9469750C941497C8
:1001F0000C9455960C9418F90C94EA140C94FC98F1
:100200000C9401C10C9492960C94CB300C94B4BD18
:100210000C9452960C94E2FD0C9495960C94B3D7E2
:100220000C94C3B90C94DD300C9451C10C9446BEAF
:100230000C947A1E0C946BF70C94F3D70C94127FE9
:100240000C94A1BD0C94941E0C94C5FB0C94163711
:100250000C948B750C94657F0C94EAD70C944C37F6
:100260000C94CF360C944D760C94F6F80C9464AA4A
:100270000C9476BE0C945BAA0C94B4140C9440DEDF
:100280000C94FDF60C9400970C94BDFD0C94E0D7F3
:100290000C944F960C94F3F80C94D1300C94C7F650
:1002A0000C94C4F60C94E4FC0C94DEF60C946DAA49
:1002B0000C947EF90C9463DC0C9433C20C941EF9FC
:1002C0000C9481750C94C8D70C94A8F90C94A09642
:1002D0000C9486150C947C750C94557F0C9466DCFC
:1002E0000C944FDC0C948F960C94C5D70C94BDD70E
:1002F0000C94D1F60C94EED70C94FB1D0C940C9737
:100300000C945ADC0C94FD960C949A750C94BDFBDD
:100310000C945DDC0C945EAA0C9455AA0C94D03716
:100320000C9420F90C946AAA0C94B4F60C94D2960E
:100330000C948A380C94C1F60C941AFD0C94BAF6FD
:100340000C94F4D70C94811E0C945B960C946BF176
:100350000C94CE300C9465BD0C9490750C9456980A
:100360000C94CED70C9458760C94ED1D0C94669694
:100370000C94D9140C9457DC0C948E1E0C94C096DB
:100380000C944E7E0C9458AA0C94BFF90C94DA96F7
:100390000C9464380C940C150C948C960C94157574
:1003A0000C94D47E0C94AB150C94DBF60C94BF38F3
:1003B0000C949F750C94871E0C94F7F60C9461AA0C
:1003C0000C944C960C9407390C943F760C94B9D746
:1003D0000C945E960C94C1D70C94C8300C94337670
:1003E0000C9430760C9457300C94FB9E0C94F41DB6
:1003F0000C946E980C9475370C9409970C9467AA1A
:1004000054494D45522041524700424144205449ED
:100410004D455200554E44455252554E00424144BE
:100420002057415600424144205241544500384231
:100430004954204F4E4C59004D4F4E4F204F4E4C7B
:10044000590050434D204F4E4C59004E4F204441CF
:100450005441004E4F20464D5400424144205249E1
:100460004646004E4F542057415645004E4F5420AB
:100470005249464600494F204552524F52004F5074
:10048000454E204552524F5200424144204152476E
:10049000004F4B004D5A54205345454B00524543A5
:1004A0004F5244005B96A59D9AB75D004C44522084
:1004B000424C4F434B005144205345454B004D5A4D
:1004C000462054494D4500494D4147452054494D2A
:1004D00045004C445220484541444552004D5A5431
:1004E000205345454B004D5A462053544154450036
:1004F0005144205345454B0050574D2050495045DD
:10050000004D5A46205354415445004D5A3720520D
:100510004546494C4C004D5A4620554E44455200E4
:100520004241442053455353494F4E0045444745AB
:1005300020464952535400494E534552542043419A
:10054000524400544150204649464F00554E4445C0
:100550005252554E00544150204649464F004D5A84
:100560004620535441525400554C20535441525448
:10057000004D5A37205345454B004D5A54205345A2
:10058000454B00554C372041434B00554C372041DB
:10059000524D00554C2053484F525400554C205258
:1005A00045414400554C205741495400554C205377
:1005B000484F525400554C205245414400554C2060
:1005C000415247004D5A3720524546494C4C004D48
:1005D0005A46205354415254004D5A4620535441D8
:1005E000525400504C4159204552524F520014046D
:1005F0000A04000454494D45520000000000100058
:10060000800000AA00389B71910489047E0475045F
:100610006C0463045A0453044B04420438042E044B
:1006200025041D04574156204552524F52004E4F4B
:100630002057415620494E464F00454D50545920B1
:1006400057415600454D50545920454447450045B3
:10065000444745204F50454E0045444745204152B0
:10066000470053504545440054595045004D5A5495
:10067000205345454B004D5A54205245434F524458
:10068000004D5A5420464F524D4154004D5A54206B
:100690005345454B004D5A5420434F554E54004D41
:1006A0005A5420484541444552004D5A5420534520
:1006B000454B00514446205345454B00514446208C
:1006C0005345454B00514446204652414D4500514B
:1006D0004446205245434F52440051444620434F24
:1006E000554E540051444620484541444552004D22
:1006F0005A51205345454B004D5A51205245434FC6
:10070000524400514420424F445920435243005127
:10071000442052454144004D5A51205345454B0019
:1007200051442053484F525420424F4459004D5A8F
:10073000512053495A45004D5A51204441544120BB
:100740004844520051442053484F525420424F4491
:1007500059005144204845414445522043524300EA
:1007600051442053484F5254204844520051442091
:1007700053484F525420484452004D5A5120464944
:100780004C45204844520051442053484F52542075
:10079000484452004D5A51205245434F5244004D57
:1007A0005A5120434F554E54004D5A5120454D50FB
:1007B0005459004D5A512048454144455200514436
:1007C0002053484F5254204844520051442052452F
:1007D0004144005144205345454B00514420464C70
:1007E0004153480051442048584300514420534845
:1007F0004F5254005144205245414400514420532B
:1008000045454B004D5A462053484F5254004D5ACF
:1008100046204F50454E004D5A4620415247005405
:10082000415020524541440054415020464C4147DC
:1008300000544150205452554E4300544150204CD6
:10084000454E4754480054415020524541440054BD
:100850004150204C454E47544800454D5054592076
:1008600054415000544150204F50454E0054415087
:10087000204152470042414420464F524D415400CE
:10088000544150205452554E43005441502052453B
:10089000414400544150204649464F0054415020A5
:1008A0005245414400544150205452554E43005447
:1008B0004150204649464F0054415020464C414744
:1008C00000544150205452554E4300544150204C46
:1008D000454E47544800544150204C454E475448DB
:1008E0000054415020524541440054415020464953
:1008F000464F0045444745204552524F5200504113
:10090000544820544F4F204C4F4E470025732F52D0
:100910004543253034752E4C45500025732F5245E4
:1009200043253034752E4C31360045444745205719
:1009300052495445005354414745204552524F5265
:100940000042414420544F4B454E005041544348CF
:10095000205752495445005041544348204C4F536E
:10096000540042414420544F4B454E0042414420E4
:10097000544F4B454E0042414420544F4B454E008E
:100980005041544820544F4F204C4F4E4700257340
:100990002F524543253034752E4D5A46004D5A4648
:1009A000205752495445004D5A4620434845434B31
:1009B00053554D004D5A4620434845434B53554DE2
:1009C00000544320434845434B53554D0054432066
:1009D0004C4F4144455200545950453D54430A53ED
:1009E000504545443D313A310A00545950453D493E
:1009F000430A53504545443D313A310A0054595059
:100A0000453D4E4F524D414C0A53504545443D31B2
:100A10003A340A00545950453D4D5A3730300A5344
:100A2000504545443D313A310A00545950453D4EF8
:100A30004F524D414C0A53504545443D313A330ADB
:100A400000545950453D4E4F524D414C0A5350456C
:100A500045443D313A320A00545950453D54430A09
:100A600053504545443D313A320A00545950453DB2
:100A700054430A53504545443D313A330A005459D2
:100A800050453D49430A53504545443D313A320AA9
:100A900000545950453D49430A53504545443D3162
:100AA0003A330A00545950453D49430A535045458D
:100AB000443D313A340A00545950453D4D5A37307F
:100AC000300A53504545443D313A330A0054595099
:100AD000453D554C5F4D5A3730300A00545950450A
:100AE0003D554C5F4D5A3830300A00545950453D01
:100AF000554C0A00545950453D4E4F524D414C0AF9
:100B000053504545443D313A310A00455252005058
:100B1000415500504C59005244590054433100494A
:100B20004331004E3134004D3731004E3133004EE9
:100B300031320054433200544333004943320049B8
:100B4000433300494334004D373300554C3700558B
:100B50004C3800554C00544320313A310049432071
:100B6000313A31004E524C20313A34004D5A372040
:100B7000313A31004E524C20313A33004E524C2023
:100B8000313A3200544320313A3200544320313A52
:100B90003300494320313A3200494320313A33008F
:100BA000494320313A34004D5A3720313A33004E10
:100BB000524C20313A310043504D20313A340043F9
:100BC000504D20313A330043504D20313A320043EA
:100BD000504D20313A310053494E20313A340053C0
:100BE000494E20313A330053494E20313A320053B6
:100BF000494E20313A3100524543204552524F521E
:100C0000004D5A4620535441525400505245414CD5
:100C10004C4F43204641494C004D5A4620435245D3
:100C20004154450053442043415244204552524FC1
:100C300052004544474520535441525400505245B8
:100C4000414C4C4F43204641494C004544474520C8
:100C500043524541544500534420434152442045AA
:100C600052524F52005245432054494D455220455F
:100C7000525200505245414C4C4F43204641494C42
:100C80000057415620435245415445204552520099
:100C90004241442052454320524154450053442090
:100CA00043415244204552524F5200524543204640
:100CB0004F524D4154005245432050415553450039
:100CC00052454320524553554D450025732F2573FA
:100CD0005F253032752E4C45500025732F25735FEC
:100CE000253032752E4D5A460025732F25735F250A
:100CF0003032752E4C31360025732F25735F253029
:100D000032752E5741560025732F25732E4C4550B2
:100D10000025732F25732E4D5A460025732F2573FA
:100D20002E4C31360025732F25732E574156005710
:100D3000415620434C4F534520455252005741568F
:100D40002050414420455252005441494C205752B2
:100D50004954452045525200524543204F56455272
:100D6000464C4F57004544474520434C4F534500A0
:100D700045444745204F564552464C4F5700F40ACC
:100D80000000EB0ADC0ACD0AB70AA40A910A7E0A1F
:100D90006B0A580A410A2A0A140AFD09EA09D70906
:100DA0004D5A4620434C4F5345004D5A462057520A
:100DB000495445004D5A4620494E434F4D504C45ED
:100DC0005445004D5A46204445434F4445004D5A32
:100DD00046205345454B004D5A46204F56455246F6
:100DE0004C4F570045444745204F564552464C4FBF
:100DF00057005041544820544F4F204C4F4E47000D
:100E000025732F524543253034752E5741560057D0
:100E100041562048454144455220455252005741D1
:100E20005620544F4F2042494700574156205752B1
:100E30004954452045525200414E414C5953495363
:100E400020515545554500444952204641494C00E2
:100E50004E4F20454E545259004F4B0053442043AF
:100E6000415244204552524F5200494E534552542C
:100E7000204341524400004E4F20454E54525900E9
:100E80004E4F20454E54525900534420494E495428
:100E9000004E4F20454E5452590042414420415289
:100EA00047004E4F20454E545259004E4F20454E5C
:100EB00054525900494E5345525420434152440024
:100EC000494E534552542043415244002E2E2F0088
:100ED0005245434F52443D524554525900444952A1
:100EE000204641494C005245434F52443D524554DF
:100EF00052590053442043415244204552524F52CC
:100F000000494E5345525420434152440020202072
:100F10002020202020202020202020202000170B0F
:100F2000130B0F0B0B0B504C410053544F503D43D0
:100F3000414E43454C005144205343414E202533FC
:100F4000752525004E313100484C4800554C00466F
:100F500033480046334C0054430049430049434C56
:100F6000005537480055374C00484C4C004E4C4813
:100F7000004E4C4C00257320253032753A25303216
:100F8000752F253032753A253032750025732020B3
:100F90002020202020202530337525252000257392
:100FA00020252D3373202020202530337525252042
:100FB0000050415553454400257320252D3473209E
:100FC000253032753A2530327500257320252D34B1
:100FD00073202D2D3A2D2D004D414E20252D34739B
:100FE00020253032753A253032750053454C202586
:100FF0002D347320253032753A25303275004D542A
:101000004920252D347320253032753A253032752C
:10101000004D414E20252D3473202D2D3A2D2D00CD
:1010200053454C20252D3473202D2D3A2D2D004D68
:10103000544920252D3473202D2D3A2D2D00554E49
:10104000535550504F525445440045525220252E7E
:1010500031327300554E4B4E4F574E00AF0B0000D0
:10106000000000000000A70BA00B990B920B8B0B4C
:10107000840B7C0B740B6C0B640B5D0B560B00002C
:10108000EF0BE70BDF0BD70BCF0BC70BBF0BB70B70
:1010900032326B0034346B005245430053564420C7
:1010A00000524543204552524F520052454320437F
:1010B000414E43454C4C45440046494C452044452F
:1010C0004C4554454400504C4541534520574149F7
:1010D00054005741495400534156494E472000504F
:1010E0004155202530326C753A2530326C750052EE
:1010F0004543202530326C753A2530326C750050EE
:1011000041555345442020202020202020204D0000
:1011100057414954205349474E414C004F4B0053CF
:10112000442043415244204552524F5200494E53AD
:101130004552542043415244004E4F5420494E4999
:10114000540053442043415244204552524F5200D0
:101150004E414D4520544F4F204C4F4E470044497F
:1011600052204641494C0046494C45204F50454E7F
:10117000204641494C0042414420504154480046D9
:10118000494C4520435245415445204641494C0075
:101190004241442050415448004E4F54204449524B
:1011A000004D4B444952204641494C00444952208D
:1011B0004641494C004E4F5420444952004E4F5432
:1011C0002044495200424144204449524543544F2F
:1011D000525900524543204E414D45532046554CEF
:1011E0004C00444952204641494C0046494C452058
:1011F00052454144204641494C0046494C45205205
:10120000454144204641494C004241442041524717
:101210000046494C45205752495445204641494CC7
:10122000004241442041524700505245414C4C4FEE
:1012300043204641494C0046494C45205452554EA6
:1012400043204641494C0046494C452053594E43A2
:10125000204641494C0046494C45205345454B20CA
:101260004641494C0046494C452052454D4F564554
:1012700020455252004241442050415448005245BA
:101280004E414D45204641494C0046494C4520457C
:101290005849535453004241442052454E414D4514
:1012A000002E544150002E574156002E4C3136002E
:1012B0002E4C4550002E4D3132002E514446002E0A
:1012C0005144002E4D5A51002E4D5A54002E4D5A65
:1012D0004600002020202020202020202020200048
:1012E00020202020202020202020202020202020FE
:1012F0002020202122232425262728292A2B2C2D93
:101300002E2F303132333435363738393A3B3C3D85
:101310003E3F404142434445464748494A4B4C4D75
:101320004E4F505152535455565758595A5B5C5D65
:101330005E5F202020202020202020202020202030
:10134000202020202020202020202020202020209D
:10135000202020202020202020202020202020208D
:101360002020202065202020746768206278647225
:10137000706371617A77737569204F6B667620753B
:10138000426A6E20556D2020206F6C416F6120797C
:10139000202020202020202020202020202020204D
:1013A000202020202020202020202020202020203D
:1013B000202020202020202020202020202020202D
:1013C000202020202020202020202020202020201D
:1013D0002020313A3200313A3300313A310054435F
:1013E00000313A3200313A3300313A3400313A3187
:1013F00000494300313A3300313A31004D5A373019
:101400003000313A3400313A3300313A3200313A67
:1014100031004E4F524D414C00554C5F4D5A3730C4
:101420003000554C5F4D5A38303000554C00574114
:1014300049542E2E2E0052454C4541534520414CD7
:101440004C004144433A25347500574149542049E2
:101450004E50555400505245535320252D31307372
:1014600000504C45415345205741495400514420B8
:101470004C4F41442E2E2E004544474520524541B5
:10148000440045444745204649464F00554C2057A7
:10149000414954003E08D3CEE5210000D3E47ED379
:1014A000E077237CFE1020F43A4BD4324B0A3A4CBE
:1014B000D4321205214DD4110211010D00EDB0E11D
:1014C0007CFED428122A0411D9210012220411CD45
:1014D0002A00D3E4C39AE9CD2A00D3E4C32401004F
:1014E00000000000000000000000000000003E08B6
:1014F000D3CECD3E07360197575FCD0803CDBE0250
:10150000D3E21AD3E01213CB6228F53EC3321F0692
:10151000215C112220062A08117D3212057C324BF3
:101520000A2A0A11220211CDF80401CF06ED71D367
:10153000E2DAAAE9210A11C308EDC53A1011EE0C4E
:1015400032101101CF06ED79C1C931393837110296
:10155000E0F31AE62028FB137B121B0100041ACBD0
:101560006728FBE620B1074F7B13121B1ACB6720BD
:10157000FBE620B1074F137B121B10E27123D90B3E
:1015800079B0D920D64F04D9C31102E0F31AE6206E
:1015900028FB137B121BC50100041ACB6728FBE64E
:1015A00020B1074F7B13121B1ACB6720FBE620B13B
:1015B000074F137B121B10E271C10B2379B020D6A9
:1015C0000601D9C31102E0DD2103E0AF3D20FDF3A8
:1015D0001AE62028FBDD360003C50100041ACB679C
:1015E00028FBE620B1074FDD3600021ACB6720FB4F
:1015F000E620B1074FDD36000310E271C10B2379FD
:10160000B020D600E1E93E08D3CE1102E0DD21038F
:10161000E0AF3D20FDF31AE62028FBDD360003C5D0
:101620000100041ACB6728FBE620B1074FDD360026
:10163000021ACB6720FBE620B1074FDD360003100E
:10164000E271C10B2379B020D6010001D9E1E93E56
:1016500008D3CECD3E07360197575FCD0803CDBEE8
:1016600002D3E21AD3E01213CB6228F53E08D3E08E
:101670001102E0F37B13121B1AE62028FB137B12E6
:101680001B0100041ACB6728FBE620B1074F7B1330
:10169000121B1ACB6720FBE620B1074F137B121BEE
:1016A00010E27123D90B79B0D920D64F04D9C35198
:1016B000442043414E43454C004D5A462053484F29
:1016C0005254004D5A462052454144004D5A46203E
:1016D0004649464F004D5A46204C454E4754480017
:1016E0004D5A542053484F5254004D5A542052459D
:1016F0004144004D5A5420484541444552004D5AFA
:10170000462053484F5254004D5A462052454144BA
:10171000004D5A46204C454E475448004D5A5420DF
:1017200053484F5254004D5A542052454144004DA5
:101730005A5420484541444552004D5A462053458D
:10174000454B004D5A46205345454B0000000000D4
:1017500007DF0EF70F521D6A1EF82A00007C1500E5
:101760000028281414020000000001000000071ADD
:1017700007B408A90E4410F82A00007C15000028C0
:10178000281414020000000002000000077F05CAB0
:1017900007FF0AF90DF82A00007C1500002828141C
:1017A0001402000000000300010007000F80100079
:1017B0001DE01EF82A00007C1500002828141402E1
:1017C00000000000040004000900050005000A00F4
:1017D0000AF82A00007C15000028281414020000D2
:1017E0000000050002000FD0045507DA093A0BF893
:1017F0002A00007C150000282814140200000000B4
:10180000060002000F7F05CA07FF0AF90DF82A003B
:10181000007C1500002828141402000000000700B6
:1018200002000F1A07B408A90E4410F82A00007C21
:10183000150000282814140200000000080003000E
:101840000F97068906200D200DF82A00007C150050
:1018500000282814140200000000090003000FDD16
:1018600008CF08AC11AC11F82A00007C1500002844
:1018700028141402000000000A00000007D00455DC
:1018800007DA093A0BF82A00007C15000028281412
:101890001402000000000B0002000FA90E7E10527F
:1018A0001DED1EF82A00007C1500002828141402E3
:1018B000000000000C0003000FAF0FA00F4F1F4FE0
:1018C0001FF82A00007C15000028281414020000CC
:1018D0000000554C205345454B00554C2053454581
:1018E0004B00554C2041524700545552422053451D
:1018F000454B004D5A54205345454B004D5A5420FA
:1019000052454F50454E00514420524541440051EC
:10191000442053484F5254204844520051442053CD
:10192000484F5254204844520051442043414E43B2
:10193000454C002054430020494300204D5A373085
:10194000300020554C204D5A3730300020554C2067
:101950004D5A3830300020554C00204155544F002E
:10196000204E4F524D414C0020313A340020313A44
:10197000330020313A320020313A31002032353004
:101980003020426400203231303020426400203167
:10199000383030204264002031343030204264003E
:1019A0004D5A46004C45502035307573004C313649
:1019B0002031367573005741562032326B487A0019
:1019C0005741562034346B487A004D414E55414CB6
:1019D000004155544F004D4F544F520052454C4515
:1019E00041534520414C4C0043414C204E4F4E4505
:1019F0000053415645440043414C494252415449E9
:101A00004F4E004E4F5420534156454400454550DB
:101A1000524F4D204552524F52005553494E472088
:101A200044454641554C540043414C20494E564193
:101A30004C494400504C4159005245434F524400D8
:101A400053544F50004646574400524557494E4460
:101A50000043414C4942524154494F4E004B455975
:101A6000504144002F5245434F5244494E47530082
:101A7000444952204641494C004D4B44495220466E
:101A800041494C005041544820544F4F204C4F4E38
:101A9000470046494C452053454C45435445440076
:101AA0004E414D4520544F4F204C4F4E4700454D21
:101AB000505459204449520052454320464F524DFC
:101AC00041540060195A1956194C1942193B1937DB
:101AD000193319202D2D00771972196D196819976E
:101AE000198E1985197C193E544150205350454593
:101AF00044003E5350454544003E4C4F41444552FE
:101B000000204D4F544F5200204D414E55414C0046
:101B10003E504C4159204354524C00204F46460001
:101B2000204F4E003E57415620494E5645525400D4
:101B30003F00C019B619AD19A419A019D619D119A9
:101B4000CA193E524543204D4F4445004F4646007A
:101B50004F4E003E4155544F4E414D45003E52457B
:101B60004320545950450020253375252500253341
:101B700075252520454550524F4D20455252003E77
:101B80004241434B4C494748540052414D20257532
:101B9000204D494E25750041424F55542076322E36
:101BA000302E330020494E5445524E414C002045C2
:101BB000585445524E414C003E434D5420534F55CE
:101BC0005243450000002100240027002A002D0078
:101BD0003000330001010000040107010A01000088
:101BE0002200250028002B002E00310034000201C5
:101BF0000000050108010B01F0F0F0F3F0F5F0F042
:101C0000F0F0F0F0F0F0F0F0F0C1C2C3C4C5C6F0DF
:101C1000F0F0F0F0F0F0F0F0006162636465666788
:101C200068696B6A2F2A2E2D20212223242526273E
:101C300028294F2C512B574955010203040506074B
:101C400008090A0B0C0D0E0F10111213141516179C
:101C500018191A5259545045C7C8C9CACBCCCDCE51
:101C6000CFDFE7E8E9EAECEDD0D1D2D3D4D5D6D7AF
:101C7000D8D9DADBDCDDDEC080BD9DB1B5B9B49E5C
:101C8000B2B6BABE9FB3B7BBBFA385A4A5A69487BF
:101C9000889C82988492908391819A97939589A148
:101CA000AF8B8696A2ABAA8A8EB0AD8DA7A8A98F5E
:101CB0008CAEAC9BA099BCB8403B3A703C715A3D8D
:101CC00043563F1E4A1C5D3E5C1F5F5E377B7F367E
:101CD0007A7E334B4C1D6C5B7841353474303875EB
:101CE000394D6F6E3277767273477C53314E6D4843
:101CF000467D441B587942604D5A46204552524F0A
:101D0000520053504545443D00545950453D005202
:101D100045434F52443D004E4F20454E54525900CA
:101D2000444952204641494C004E4F5420444952A8
:101D300000000020002300260029002C002F003284
:101D40000000010000030106010901050505050762
:101D50000508080808020202020A0A080804040426
:101D60000401010101010101010303030303030352
:101D700003040707070C0C0C0C0C0C0C0C020202E1
:101D80000206060606060606060B0B0B0B0B0B0BD4
:101D90000B01021020200808102040102040800273
:101DA00001020108040201010204081020408080A1
:101DB0004020100804020180040201804020100825
:101DC00004020108040201010204081020408001FD
:101DD0000204081020408000000A0B02090C0D0EBE
:101DE00008070304010000000000000000000000DC
:101DF00000000000000000000000000000000000E3
:101E0000000000121110000000000000000000009F
:101E100000000000000000000000000000006BF166
:101E200011241FBECFEFD1E2DEBFCDBF00E00CBF5B
:101E300013E0A0E0B2E0ECE6FBE002E00BBF02C082
:101E400007900D92AA36B107D9F728E1AAE6B3E0C8
:101E500001C01D92A933B207E1F71FE0C0E1DFE046
:101E600000E006C021970109802FFE010F94AC030A
:101E7000CF30D10780E00807A9F70E94BBF10D948D
:101E8000B4050C94000080913C0491E08927809374
:101E90003C0410923D04109212041092110410920E
:101EA0000D0410920E0410920F0410921004109260
:101EB0000C0410920B0410920A0410920904109260
:101EC000080408958F929F92AF92BF92CF92DF92B3
:101ED000EF92FF92CF93DF9390914204292F30E04D
:101EE000F901E55BFB4F4081411165C0A901440F39
:101EF000551FDA01A554B34FCD91DC911197809015
:101F0000470490904804A0904904B0904A04750199
:101F100064016FEFC61AD60AE60AF60ABE016F5FC1
:101F20007F4F2097F9F4220F331F220F331FF9013F
:101F3000EB5EFB4F80829182A282B38291113DC001
:101F400021E030E03093BC0C2093BB0C80931B123B
:101F5000C0924704D0924804E0924904F0924A04A7
:101F600081E01EC02BE132E1992311F026E030E13F
:101F70004554534FDA016D937C93C20FD31F88836E
:101F8000C0924704D0924804E0924904F0924A0477
:101F900081E06115724021F4808398279093420478
:101FA000DF91CF91FF90EF90DF90CF90BF90AF90F7
:101FB0009F908F90089580E0F3CF21E030E02D9343
:101FC0003C9380930610C4CF2091290230912A02BD
:101FD0008217930710F090E080E010922001109299
:101FE00021012091290230912A0221503109309398
:101FF000290120932801909325018093240182E0F8
:102000008ABB809173008260809373008091280264
:102010008860809321010895209101043091020489
:1020200040910104509102046091030470910404F2
:10203000461B570B4F3F574069F0F901F770EA56BE
:10204000FB4F80832F5F3F4F3093020420930104A6
:1020500081E0089580E0089580910004882349F08C
:102060008295807F0E940C10882321F0109200043A
:10207000089581E0089582E08ABB0E942C108111AE
:1020800002C080E0089582E00E940C108823C9F30A
:1020900091E09093050408959FB7F8948091BB0355
:1020A0009FBF90E00895009711F481E090E02091A7
:1020B000940030919500820F931F90939B00809322
:1020C0009A0008954FB7F8942091B9033091BA035C
:1020D0008091B7039091B8034FBF821B930B089573
:1020E000CF92DF92EF92FF920F931F93C090F20373
:1020F000D090F303E090F403F090F503970186018C
:102100000095109520953095061717072807390771
:1021100090F48FEF9FEFDC018093F2039093F30331
:10212000A093F403B093F5031F910F91FF90EF90EC
:10213000DF90CF900895DC01CB018C0D9D1DAE1D6D
:10214000BF1DEACFE82F8BEF8E0F833048F4E550A8
:10215000FF0BEE0FFF1FE251FA4F85919491089506
:1021600084EF95E008950F931F93282F8091EE033D
:10217000882309F44BC09091E003921346C000916C
:10218000EA031091EB032091EC033091ED034091B1
:10219000AF0E5091B00E6091B10E7091B20E041757
:1021A00015072607370789F5913051F54091E60369
:1021B0005091E7036091E8037091E90380918E0EDE
:1021C00090918F0EA091900EB091910E48175907E3
:1021D0006A077B07D1F44091E2035091E3036091D9
:1021E000E4037091E50380918A0E90918B0EA0918B
:1021F0008C0EB0918D0E481759076A077B0729F49A
:1022000081E09091EF03911101C080E01F910F9147
:1022100008958091F20E9091F30E0E94A1B0882350
:1022200069F080910612909107120E94A1B0882354
:1022300029F08091C80E9091C90E089590E080E039
:10224000089580910612909107120E94A1B08823F0
:1022500029F08091CA0E9091CB0E089590E080E015
:1022600008958091F20E9091F30E0E94ACB081110E
:102270000C9465A980E008954F925F926F927F92CF
:10228000AF92BF92CF92DF92EF92FF920F931F9384
:10229000CF93DF93FA01C489D589C217D30789F098
:1022A000F12C8F2DDF91CF911F910F91FF90EF9027
:1022B000DF90CF90BF90AF907F906F905F904F90E6
:1022C0000895270138018A015B016C01C301B70140
:1022D0000E9401C1F82E882319F3BE01C8010E9493
:1022E0000D9FB092C90EA092C80ED092CB0EC09294
:1022F000CA0E1092920ECE01B0E0A0E08093A70E1D
:102300009093A80EA093A90EB093AA0E40929F0E90
:102310005092A00E6092A10E7092A20E840D951D97
:10232000A61DB71D8093A30E9093A40EA093A50E97
:10233000B093A60E1092930310929B0E10929C0ED7
:1023400010929D0E10929E0E10927D0E0E94E9A496
:10235000A8CFAF92BF92CF92DF92EF92FF920F93EE
:102360001F93CF93DF935C01009709F462C0681755
:10237000790708F45EC0FA01C489D589C217D3076A
:1023800009F057C067017801CA018B01BE010E94A4
:102390000D9F1093C90E0093C80EB092CB0EA09261
:1023A000CA0ECE01B0E0A0E08093A70E9093A80ED5
:1023B000A093A90EB093AA0E10929F0E1092A00E99
:1023C0001092A10E1092A20E8093A30E9093A40ED1
:1023D000A093A50EB093A60EC092840ED092850E47
:1023E000E092860EF092870E1092800E1092810E6F
:1023F0001092820E1092830E81E08093920E1092C2
:10240000930310929B0E10929C0E10929D0E1092B0
:102410009E0E10927D0E0E94E9A481E0DF91CF9183
:102420001F910F91FF90EF90DF90CF90BF90AF90F2
:10243000089580E0F3CF0F931F93CF93DF931F9204
:10244000CDB7DEB700E001C0082F10E040918F0348
:102450005091900360919103709192038091AF0E1F
:102460009091B00EA091B10EB091B20E48175907DD
:102470006A077B0740F000E0802F0F90DF91CF913B
:102480001F910F910895CE0101960E94CAC2882320
:1024900091F399819923C1F20023B9F2963121F485
:1024A0001F3FA1F21F5FD2CF953A61F6123050F272
:1024B000E3CF7F928F929F92AF92BF92CF92DF92A3
:1024C000EF92FF920F931F93CF93DF9300D01F9251
:1024D000CDB7DEB7782E6B015A01490165EA90E06D
:1024E00080E00E942B9F7C010E941B128823B9F080
:1024F000CE0101960E94CAC2882389F0CE010296BD
:102500000E94CAC2882359F0CE0103960E94CAC213
:10251000882329F06981711004C0662331F020E01E
:1025200048C0862F8B7F8130D1F70A811B81C8017B
:10253000F50191838083711003C08034910579F790
:10254000C7010E942B9F602F0E942B9F612F0E942A
:102550002B9F7C0180918F0390919003A091910318
:10256000B0919203F40180839183A283B38310E03E
:1025700000E0F501808191810817190768F1CE010B
:1025800004960E94CAC2882351F26C81C7010E943E
:102590002B9F8C01CE0104960E94CAC2882309F4A5
:1025A000BECF6C81C8010E942B9F21E0892B09F0CE
:1025B000B6CF822F0F900F900F900F90DF91CF9199
:1025C0001F910F91FF90EF90DF90CF90BF90AF9051
:1025D0009F908F907F900895CE0104960E94CAC26A
:1025E000882309F49CCF6C81C114D10439F00034E4
:1025F000110520F4F601E00FF11F6083C7010E946E
:102600002B9F7C010F5F1F4FB4CFCF92DF92EF92D1
:10261000FF920F931F938091C103882389F10E9439
:10262000A0DF0091BD031091BE032091BF03309144
:10263000C003DC01CB01801B910BA20BB30B0091FB
:10264000C2031091C3032091C4033091C5036801F4
:102650007901C094D094E094F094C816D906EA06A3
:10266000FB06A8F0080F191F2A1F3B1F0093C20387
:102670001093C3032093C4033093C5031092C10386
:102680001F910F91FF90EF90DF90CF9008950FEF83
:102690001FEF9801EBCFCF93DF93C091E60ED0915F
:1026A000E70E2297AC0161E170E080ED9EE00E94B0
:1026B00040700E9405130E940BB884E090E0909354
:1026C000E70E8093E60E229720F40E9465A98823E6
:1026D00029F081E0DF91CF910C9426B5DF91CF9165
:1026E0000895CF93DF93C091E60ED091E70E229725
:1026F0000097F9F480ED9EE0009731F043EE55E04D
:1027000061E170E00E942C700E9405130E940BB8DA
:1027100084E090E09093E70E8093E60E229720F4F9
:102720000E9465A9882379F081E0DF91CF910C9414
:1027300026B540E150E0BC0180ED9EE00F945D05C0
:102740001092E00EE1CFDF91CF9108950E94051322
:102750008091E20E9091E30EA091E40EB091E50E0F
:102760000097A105B10541F08093C2039093C30384
:10277000A093C403B093C50308958091C103811150
:102780000DC00E94A0DF6093BD037093BE038093D1
:10279000BF039093C00381E08093C10308954F92DB
:1027A0005F926F927F928F929F92AF92BF92CF92E1
:1027B000DF92EF92FF92CF93DF93EC019A01AB018E
:1027C00060911102709112028130910541F0609187
:1027D0000F0270911002039711F46CE775E12B0161
:1027E000712C612C64E170E0C130D10511F468E214
:1027F00070E04B01B12CA12C880C991CAA1CBB1CAD
:10280000A9E0B0E00F94C3036B017C0124E1C20E88
:10281000D11CE11CF11CC40CD51CE61CF71C0E9449
:1028200012A6882329F0229722E630E0229710F0A2
:1028300022E030E0C80CD91CEA1CFB1CC701B60121
:10284000620F731F811D911DDF91CF91FF90EF905B
:10285000DF90CF90BF90AF909F908F907F906F90C0
:102860005F904F9008952F923F924F925F926F9298
:102870007F928F929F92AF92BF92CF92DF92EF9210
:10288000FF920F931F93CF93DF93CDB7DEB764977B
:102890000FB6F894DEBF0FBECDBF2C011B013A016D
:1028A000088B198B2A8B3B8BAC8A8B8281309105EC
:1028B00009F04CC000911102109112021A83098391
:1028C00008E210E049815A819A0150E040E02C83EF
:1028D0003D834E835F83C801B0E0A0E0280F391F1D
:1028E0004A1F5B1F288739874A875B87280F391F54
:1028F0004A1F5B1F2C873D874E875F8749015A011E
:1029000052E0850E911CA11CB11CA9E0B0E096011B
:10291000A7010F94C303AB01BC01F1013197ED3066
:10292000F10508F035C18827E756FB4E8F4F0D940F
:10293000AC03B414D914EA14F7140C150C150C15C7
:102940004C154C154C158615C815AB15039749F059
:1029500000910F02109110021A83098304E110E024
:10296000B1CF0CE715E1F8CF09811A81B8016619DA
:1029700077096016710610F070E060E090E080E08A
:1029800064960FB6F894DEBF0FBECDBFDF91CF9136
:102990001F910F91FF90EF90DF90CF90BF90AF907D
:1029A0009F908F907F906F905F904F903F902F906F
:1029B00008956016710658F4061917096C817D8117
:1029C0008E819F81600F711F811D911DD9CF10E0F5
:1029D00000E0F4CF6016710638F40619170968850F
:1029E00079858A859B85EECF10E000E0F8CF82E004
:1029F00090E08619970912E06116710410F090E0DA
:102A000080E00C851D852E853F85080F191F211D2F
:102A1000311DC901B801B4CF2601370108891989D0
:102A20002A893B89041515052605370510F4280168
:102A30003901A9E0B0E0A30192010F94C303910111
:102A4000265031092230310510F5452846284728FF
:102A5000F1F0AB01BC01495051096109710988E0ED
:102A600090E0A0E0B0E016E02116310441F428E047
:102A700030E00C89201B3109C901B0E0A0E08A01D7
:102A80009B01080F191F2A1F3B1FC901B801680DC0
:102A9000791D8A1D9B1D74CF840E951EA61EB71E20
:102AA0004B81433008F042E050E09A01A9E0B0E0E9
:102AB0000F94B40391012950310922303105B8F443
:102AC0001B811123A1F09A01215031090F94B40305
:102AD00029E022163104A9F408E010E03C89031B28
:102AE000110930E020E0600F711F821F931F6331D6
:102AF00071058105910558F262E170E080E090E097
:102B0000C6CF08E010E020E030E0EDCF6A017B01A5
:102B100082E1C80ED11CE11CF11C0E9412A6882380
:102B200049F092E0491A510882E690E0A2E04A1684
:102B3000510410F082E090E06816790648F4861996
:102B40009709C80CD91CEA1CFB1C970186015DCFB4
:102B500090E080E0F6CFA601B701C20164960FB6FF
:102B6000F894DEBF0FBECDBFDF91CF911F910F91C3
:102B7000FF90EF90DF90CF90BF90AF909F908F909D
:102B80007F906F905F904F903F902F900C94CF1359
:102B900060E070E0CB01F4CE8F929F92AF92BF9233
:102BA000CF92DF92EF92FF920F931F93CF93DF9319
:102BB00000D000D000D01F92CDB7DEB71D821E829C
:102BC0001F8218861092AB0E1092AC0E1092AD0EB2
:102BD0001092AE0E109295031092960310929703E6
:102BE0001092980336E0C32E30E1D32EF12CE12C65
:102BF000812C912C540110E0F60181916F010E940B
:102C000013A1880E911CA11CB11CE80EF11C1F5FC2
:102C1000103891F7CE0105966C019501840140E8CA
:102C200050E060E070E081E00E9423A1882389F1F8
:102C30006091970E7091980E8091990E90919A0ED6
:102C40000E9451C1882329F16091930E7091940ED6
:102C50008091950E9091960E9E01275F3F4FAE0199
:102C60004F5F5F4F0E943AC8882399F0E984FA8445
:102C700009811A812B813C814091930E5091940ED1
:102C80006091950E7091960E80E00E9423A18111B3
:102C900015C010E0812F2A960FB6F894DEBF0FBE44
:102CA000CDBFDF91CF911F910F91FF90EF90DF90FB
:102CB000CF90BF90AF909F908F9008958D819E810F
:102CC000AF81B8858F3FFFEF9F07AF07BF0739F090
:102CD0000196A11DB11DB695A795979587958093EF
:102CE000AB0E9093AC0EA093AD0EB093AE0E609170
:102CF000970E7091980E8091990E90919A0E0E9465
:102D000051C1182F8111C6CF66E070E084E994E0CC
:102D10000E9493BEBFCF0F931F93CF93DF938091F9
:102D20000812813029F080910812833009F090C098
:102D300010927A0380917C0E882379F181E0809350
:102D40006E0310929403E091B40FF091B50F309799
:102D500011F08FEF19950E94CC15882309F46DC0EE
:102D60006091970E7091980E8091990E90919A0EA5
:102D700000919B0E10919C0E20919D0E30919E0E05
:102D8000600F711F821F931F0E9451C1882309F495
:102D900054C010926E0310927C0E82E08093081251
:102DA00080917A0E90917B0E049719F080E00E943A
:102DB00026B5C091710ECC2309F458C01092780E3C
:102DC00081E090916C0E911101C080E00E946DB481
:102DD0001FB7F89480916D0ED0E3811101C0D0E04F
:102DE00082E080931A1281E00E945BB585E088BB87
:102DF000D360D0939000809171008A7F809371009E
:102E000080916D0E882329F08091710084608093F9
:102E100071008091700E882321F080916F0E8823BD
:102E200029F08091710081608093710089E1809325
:102E300091001092710E1FBF13C010926E03C091CB
:102E40007A03CC2339F01092091281E080930812A2
:102E5000C0E006C066E070E080EF94E00E9493BEA0
:102E60008C2FDF91CF911F910F91089580917A0E51
:102E700090917B0E049731F4DF91CF911F910F91C8
:102E80000C9478B4DF91CF911F910F910C94E1B520
:102E90002F923F924F925F926F927F928F929F926A
:102EA000AF92BF92CF92DF92EF92FF920F931F9358
:102EB000CF93DF93CDB7DEB7C657D1090FB6F894DD
:102EC000DEBF0FBECDBF8C01E0900612F09007125E
:102ED0004090AF0E5090B00E6090B10E7090B20E58
:102EE00010927C0E019711F410E000E0C8010E94DE
:102EF0002CA08091920E81114BC10E9486B36093E9
:102F0000970E7093980E8093990E90939A0E8091DD
:102F1000A70E9091A80EA091A90EB091AA0E809331
:102F2000930E9093940EA093950EB093960E1093DB
:102F3000C70E0093C60E80910612909107120E9450
:102F4000A1B0811129C11092B30E80910612909107
:102F500007128330910519F4EE24E394F12C0E94BA
:102F6000A1B08823C1F08091920E882309F43EC15C
:102F70004090A70E5090A80E6090A90E7090AA0ED7
:102F80001092950310929603109297031092980353
:102F9000EE24E394F12C4091970E5091980E60919D
:102FA000990E70919A0EE3964CAF5DAF6EAF7FAF06
:102FB000E3970E9437A50115110509F47EC3C801E6
:102FC0000B97049708F479C3EA94EF2809F040C2FC
:102FD00086E090E1892B09F43BC220910610213054
:102FE00019F0263709F034C22093C90F81E1E7E0D8
:102FF000F0E1AAECBFE001900D928A95E1F74091D3
:103000001810509119105093C40F4093C30F209083
:103010001A1030901B103092C60F2092C50F60918D
:103020001C1070911D107093C80F6093C70F3DE086
:10303000E8E1F0E1ABEDBFE001900D923A95E1F7E8
:10304000E396CCACDDACEEACFFACE397C092E80FFE
:10305000D092E90FE092EA0FF092EB0F4115510583
:1030600009F4F6C14101B12CA12CBA0190E080E035
:10307000E7966CAF7DAF8EAF9FAFE7976A017C019B
:10308000C80CD91CEA1CFB1C71E0C716D104E7066A
:10309000F10408F0DDC1E7968CAD9DADAEADBFADDE
:1030A000E797E3964CAD5DAD6EAD7FADE397840FD2
:1030B000951FA61FB71F481659066A067B0608F417
:1030C000C7C10F30110509F473C6A8014650510954
:1030D0004330510508F46CC60031110509F49BC654
:1030E0009801295031092230310508F486C2033095
:1030F000110509F43EC20430110509F0DBC111E5E8
:10310000211450E1350608F413E50E94ECA5180FD0
:103110001F5F412E512C712C612CD301C201885F9D
:103120009E4EAF4FBF4F69E0C61661E1D606E1047F
:10313000F10408F46CC088169906AA06BB0608F0CC
:1031400066C08091C50F9091C60FB0E0A0E02091BD
:10315000C30F3091C40FAC01BD01420F531F611D5D
:10316000711D4130504C6105710508F067C1612F38
:1031700080E090EC0E9486A9882309F469C185E06B
:1031800090E09093BE0F8093BD0F80E090EC4FC015
:1031900060E070E0CB01B3CE87E090E1892B09F1CC
:1031A00083EB9EE0009709F4D0CEA7E0B0E1FC01EC
:1031B0008D9181932EE0E43CF207D1F71092C40E7A
:1031C00041E061E183EB9EE00E94C6AB8111BDCE80
:1031D0004DE954E062E170E083EB9EE00E942C70C8
:1031E000B4CE83EB9EE0892B99F7AFCE4090A30E2F
:1031F0005090A40E6090A50E7090A60E1092AB0E8B
:103200001092AC0E1092AD0E1092AE0EB9CE612F90
:1032100088E091E10E9486A9882309F492CF84E096
:1032200090E09093BE0F8093BD0F88E091E1909362
:10323000C00F8093BF0F812F90E09093C20F8093B7
:10324000C10F81E08093B60F0E9407A5882309F47F
:103250006AC28AEC9FE0892B09F4E9C0D090C70FBD
:10326000E090C80FB090C50FC090C60F9090C30FEC
:10327000A090C40FF090C10F0091BF0F1091C00F2C
:103280006F2DC8010E948FDB882309F4D0C00E94F3
:103290001ADC811101C081E0075B1F4F6FEA609368
:1032A0001E1091E290931F101092201050ED509339
:1032B000211077E77093221021E12093231041E041
:1032C00040932410509325104093261037EE3093EE
:1032D000271033E0309328103DEE30932910E0EBB7
:1032E000E0932A1090932B1000932C1010932D1024
:1032F00020932E1010922F105093301040933110C5
:10330000809332101092331030933410E0933510C4
:1033100086E18093361084EE809337104EE140931F
:10332000381040EE4093391090933A1010923B10B1
:1033300010923C104AE440933D1030933E1059E700
:1033400050933F104EE7409340104BE440934110A0
:1033500030934210509343107093441033E23093F3
:1033600045103BEC3093461034E63093471038E27A
:103370003093481033EF309349103EE330934A10B6
:1033800035E130934B1032E330934C1040934D10A5
:103390003AE030934E1090934F1090925010A092BC
:1033A000511032E23093521042E040935310209378
:1033B000541090935510B0925610C09257103093FD
:1033C000581094E09093591020935A109DEC9093CC
:1033D0005B109AE290935C1010925D109AED9093BE
:1033E0005E109EEF90935F101092601060936110DA
:1033F00093ED909362108093631083EC809364103C
:10340000D0926510E09266100E941ADC2AEC3FE030
:10341000A7E6B0E190E0811179C1E8E1FCE1E49137
:10342000E093671081E0875BF81609F4A3C167E0B9
:1034300070E082ED94E00E9493BE20C0F0EC5F0E3D
:10344000611C711C84159505A605B70508F08FCE83
:103450000E9437A590E080E00E942CA01092C70E39
:103460001092C60E80910612909107120E94A1B090
:10347000811123C10E94BEC98111FDC010E0812FBE
:10348000CA58DF4F0FB6F894DEBF0FBECDBFDF9135
:10349000CF911F910F91FF90EF90DF90CF90BF9051
:1034A000AF909F908F907F906F905F904F903F90E4
:1034B0002F9008950530110509F089C08AEC9FE02E
:1034C00010E0892B39F00E941ADC811101C081E0E3
:1034D00019E4180F8FEF810F883608F0B9CF412E0D
:1034E000512C712C612CD301C201885F9E4EAF4FCD
:1034F000BF4F29E0C21621E1D206E104F10428F110
:1035000088169906AA06BB0600F58091C50F909112
:10351000C60FB0E0A0E02091C30F3091C40FAC0102
:10352000BD01420F531F611D711D4130504C61059B
:103530007105A8F4612F80E090EC0E9486A9882391
:1035400009F486CF87E090E01CCE612F88E091E1FE
:103550000E9486A98823C9F286E090E062CE40EC02
:10356000540E611C711C84159505A605B70510F74E
:103570006FCF51E1C516D506E104F10428F060E7EC
:10358000261661E1360688F083E090E09093BE0F46
:103590008093BD0F1092BA0F80E191E19093C00F1C
:1035A0008093BF0F80E690E048CE71E0C71670ECC4
:1035B000D706E104F10408F04BCF83E090E090934C
:1035C000BE0F8093BD0F81E08093BA0FE5CFB1E0CD
:1035D000CB16B1E1DB06E104F104A8F581E090E04F
:1035E0009093BE0F8093BD0F80E091E19093C00F48
:1035F0008093BF0F85E590E004C4E1E0CE16E4EDD2
:10360000DE06E104F10440F0FAE58F16F4ED9F06C2
:10361000A104B10408F41CCF90E080E04B305105C8
:1036200028F44D515D4FDA018C9190E09093BE0FDC
:103630008093BD0F80E094ED9093C00F8093BF0FF7
:103640008AE590E0DEC3B5E58B16B1E19B06A104E7
:10365000B10420F6E1E0CE16E0ECDE06E104F10470
:1036600008F0F6CE82E090E09093BE0F8093BD0FFD
:1036700080E090ECBBCF0E945FC4882309F4FECEAB
:103680008091950390919603A0919703B091980330
:103690008F3FFFEF9F07AF07BF0739F00196A11DCE
:1036A000B11DB695A795979587958093AB0E90938E
:1036B000AC0EA093AD0EB093AE0E8091920E882307
:1036C00009F466C310929503109296031092970323
:1036D0001092980310929B0E10929C0E10929D0EC9
:1036E00010929E0E0E94E9A46091970E7091980E20
:1036F0008091990E90919A0E0E9451C1182F8111BC
:1037000039C366E070E086EB94E052C09F5FF90138
:1037100041919F01E42FF0E0E850F44EE491ED93E5
:103720008913F4CF80CE0E9417A5882309F443C0E3
:1037300068E670E0CE0101960E943CA68C01809163
:10374000C10F9091C20F0817190709F070CE602FB2
:103750008091BF0F9091C00F0E948FDB882309F4E6
:1037600066CEA8015527BE016F5F7F4F8EE190E1C5
:103770000F9436050E9427A58111D1C00E9459A936
:103780008111CDC00E9407A5182F8111C8C060E02B
:1037900072E08BE192E10E943CA69C01215031092C
:1037A0002F3F374008F483C067E070E08CEA94E074
:1037B0000E9493BE64CE0091BD0F1091BE0FC80150
:1037C0000E942EA6E090BF0FF090C00F03301105AD
:1037D00011F08823C9F09BEB9093061010921810FB
:1037E0001092191010921A1092E190931B10E0920F
:1037F0001C10F0921D1081112EC08091C90F809372
:103800001E108091C40F34C0C8010E9404A62091EC
:10381000C10F9091C20F882309F43CC02093181067
:1038200090931910E0921A10F0921B10E0921C1065
:10383000F0921D108EE190E1009709F49BCFE4EA2D
:10384000F4E0DC0186E290E124912D9331968A1711
:103850009B07D1F78FCF81E080931E10095011098B
:1038600081E10530110520F402511D4FD8018C91E2
:1038700080931F1086E0EBEDFFE0A0E2B0E1019045
:103880000D928A95E1F760E670E086E290E10E9491
:103890003CA670CF2093181090931910E0921A1044
:1038A000F0921B10E0921C10F0921D1063CFEBE120
:1038B000F2E130E020E04191D901AA56BB4F4C9390
:1038C0002F5F3F4F82179307B1F72FB7F8941092ED
:1038D0007F0310927E039093700380936F0331E017
:1038E000309301022FBFB0E0A0E08093A70E909329
:1038F000A80EA093A90EB093AA0E80939B0E90934E
:103900009C0EA0939D0EB0939E0E1092A30E10924B
:10391000A40E1092A50E1092A60E10927D0E0E947B
:103920003EA9882309F40CC23E01E9E66E0E711C23
:10393000D3011D921D921D921C921397A6E0EA2EB0
:10394000A0E1FA2E10E000E0212C312C2101F7013A
:1039500081917F010E9413A1280E311C411C511C32
:10396000080F111DF6E8EF16F0E1FF0681F7298236
:103970003A824B825C82AF961FAF0EAFAF978090BA
:103980000C02912CA0900E02B12CC0901102D0908C
:103990001202F12CE12C7F926F922091080230915B
:1039A00009028091060290910702B0E0A0E0820F28
:1039B000931FA11DB11DBF93AF939F938F93209130
:1039C0000402309105028091020290910302B0E05E
:1039D000A0E0820F931FA11DB11DBF93AF939F93D2
:1039E0008F931F9282E08F931F921F9280910A0201
:1039F0001F928F93A201910160E870E080E090E057
:103A00000E945AA30FB6F894DEBF0FBECDBF81113E
:103A100013C080910812863009F430CD80910612CF
:103A2000909107120E94A1B0882309F486C187EC07
:103A300094E067E070E0FFCC0E9412A6882309F4AE
:103A400083C060E072E08BE192E10E943CA65C01E1
:103A5000892BF9F28091B60F8823D9F28091C10F9A
:103A60009091C20FA816B906A1F6FBE1CF2EF2E1A4
:103A7000DF2E10E000E0212C312C2101C6018B51FA
:103A800092418A159B0560F4D6018D916D010E94CB
:103A900013A1280E311C411C511C080F111DEECF23
:103AA00029823A824B825C82AF961FAF0EAFAF97EE
:103AB00080900B02912C80910D02A82FB0E0C09055
:103AC0000F02D0901002F12CE12CB50190E080E0C3
:103AD0007F926F92E0910802F09109022091060214
:103AE0003091070250E040E02E0F3F1F411D511D55
:103AF0005F934F933F932F93E0910402F09105025F
:103B0000209102023091030250E040E02E0F3F1F4F
:103B1000411D511D5F934F933F932F931F921F920F
:103B20001F9222E62F9320910A021F922F935D018C
:103B3000A20191010E945AA30FB6F894DEBF0FBEF6
:103B4000CDBF882309F465CF6091970E7091980ED0
:103B50008091990E90919A0E0E9451C1882309F488
:103B600058CF6091930E7091940E8091950E909124
:103B7000960E9E0123593F4FAE014F5F5F4F0E944B
:103B80003AC8182F882309F463C0AF960EAD1FAD55
:103B9000AF9729813A814B815C812090930E3090C0
:103BA000940E4090950E5090960EE091BD0FF091BE
:103BB000BE0F3697E930F10508F0BDC08827EC51FB
:103BC000F24E8F4F0D94AC037A1E7A1EFB1DF41D2E
:103BD000941E8E1E871EED1D811E92E080E0EFE395
:103BE000FCE367E27FE10DC092E080E0E8EFF8E1FE
:103BF00069E47DE006C092E080E0E4E1F5E165E2A1
:103C00007CE07F926F921F921F92FF93EF931F921F
:103C10001F927F936F931F929F931F928F931F9278
:103C200082E08F9364E1862E912C74E1A72EB12C53
:103C3000ECE7CE2EE5E1DE2EE12CF12CC201B10144
:103C40000E945AA3182F0FB6F894DEBF0FBECDBF47
:103C50006091970E7091980E8091990E90919A0EA6
:103C60000E9451C1882309F4D4CE112309F4D1CE86
:103C70000E9407A58823B1F0F30180819181A28180
:103C8000B381803EFCEF9F07FFEFAF07BF0708F04F
:103C9000C0CE805E9C4FAF4FBF4FF30180839183B6
:103CA000A283B383F30180819181A281B3818F3F8D
:103CB000FFEF9F07AF07BF0739F00196A11DB11DA8
:103CC000B695A795979587958093AB0E9093AC0E7C
:103CD000A093AD0EB093AE0E0E9459A9811105C0FC
:103CE0000E9407A5882309F44DC00E9491CB811141
:103CF00049C0C4CB92E080E0E0E0F4E160E07AE02B
:103D000080CF90E082E6EEE9FEE36FE46BCF90E0D7
:103D100082E6E8E5F3E26CEA71E173CF90E082E6D7
:103D2000E0E4FAE160E265CF92E080E0EDEEFEE1F2
:103D30006EEC7FE066CF10E08BCF8EEB94E079CE17
:103D400080910612909107120E94A1B01092AB0EC2
:103D50001092AC0E1092AD0E1092AE0E882309F4A4
:103D6000BBCF109295031092960310929703109276
:103D70009803B2CF0E9456CB882309F47FCB81E011
:103D800080937C0E81E090E00E94779F11E077CBDA
:103D900080910612909107120E94A1B0811103C078
:103DA0000E9456CBA4CF0E94CC158111F9CF66CBCF
:103DB000213009F04DCB81E1C816D806E104F104A9
:103DC00040F090E7891691E19906A104B10408F446
:103DD0003FCB0650110990E080E00B30110528F42C
:103DE0000D511D4FD8018C9190E09093BE0F8093A0
:103DF000BD0F80E191E19093C00F8093BF0F80E6EB
:103E000090E02091BD0F3091BE0F2230310509F0B6
:103E100014CA0F9612CA21E0C21624EDD206E1049C
:103E2000F10408F4FECB3AE5831634ED9306A104C1
:103E3000B10408F40DCBF5CBCF92DF92EF92FF9255
:103E40000F931F93CF93DF931F921F92CDB7DEB7CF
:103E5000E0907A0EF0907B0E81E0E816F10409F014
:103E60004AC00E9407A5882381F080917D0E8111B0
:103E700006C00E9491CB811102C010E025C083E0F2
:103E800090E00E94779F11E01FC00E9427A5182F85
:103E9000882351F10E9417A5882311F180E00E9428
:103EA0000EB881E00E946DB484E090E090937B0EA8
:103EB00080937A0E1092790E1092780E1092770EEF
:103EC0001092760E1092750E812F0F900F90DF9149
:103ED000CF911F910F91FF90EF90DF90CF900895B9
:103EE00081E00E940EB8E0CF0E9459A98111BDCF98
:103EF00082E090E0C6CF82E0E816F10421F40E944F
:103F00003EA98111B6CFC7010297029738F067E04A
:103F100070E086EE94E00E9493BEAFCF82E0E81698
:103F2000F10429F40E9465A9182F8111D9CF80913D
:103F30000612909107128230910509F060C00E942C
:103F400086B30091AF0E1091B00E2091B10E30915A
:103F5000B20E601771078207930768F48091CA0E4A
:103F60009091CB0E009739F02091C80E3091C90E78
:103F70008217930720F084E08093081284CF609129
:103F8000970E7091980E8091990E90919A0E0091D3
:103F9000930E1091940E2091950E3091960E600F15
:103FA000711F821F931F0E9401C1182F811107C02A
:103FB00066E070E08DED94E00E9493BE85CF809125
:103FC000CA0E9091CB0E01969093CB0E8093CA0EA1
:103FD0000E945FC4882309F450CFBE016F5F7F4FFA
:103FE0008091CA0E9091CB0E0E94BED4882309F412
:103FF00044CF89819A810E944817182F65CF08976E
:1040000009F4B9CF82E0E816F10409F0B4CF0E94B8
:1040100086B30091AF0E1091B00E2091B10E309189
:10402000B20E601771078207930708F0A4CF6801EA
:104030007901C61AD70AE80AF90AB701A60140931E
:10404000A70E5093A80E6093A90E7093AA0E00932A
:10405000A30E1093A40E2093A50E3093A60E1092DB
:104060009B0E10929C0E10929D0E10929E0E0E941E
:10407000E9A40E9456CB882309F4FFCE39CF2F92B2
:104080003F924F925F926F927F928F929F92AF92E8
:10409000BF92CF92DF92EF92FF920F931F93CF9335
:1040A000DF93CDB7DEB7CA5AD1090FB6F894DEBF99
:1040B0000FBECDBF1C0181E00E94B310C956DF4F77
:1040C0008883C759D040882309F427C18091EF0322
:1040D000282F30E03093C90E2093C80E21143104EC
:1040E00021F5C956DF4F1882C759D040C956DF4F56
:1040F0008881C759D040C655DF4F0FB6F894DEBF50
:104100000FBECDBFDF91CF911F910F91FF90EF9028
:10411000DF90CF90BF90AF909F908F907F906F90E7
:104120005F904F903F902F90089522153305C8F26D
:104130000FEF020D0817A8F68091E1038093890E16
:1041400026E0029F20011124820108571F4EF20130
:10415000E957FF4E808190E0B0E0A0E0BA2FA92F90
:10416000982F8827F201EA57FF4E2081822BF80111
:10417000408150E070E060E0BA01552744274427B1
:10418000552767707727842B952BA62BB72B809309
:104190006A0390936B03A0936C03B0936D0310922A
:1041A0007F0E10927E0E65EA90E080E00E942B9FC9
:1041B00060E00E942B9F60E40E942B9F60E00E94C1
:1041C0002B9F6C017E01F1E4EF0EF11C5E0121E8F2
:1041D000A20EB11C37014701C7010E9440C68823C7
:1041E00009F47FCF3FEFE31AF30AD4016C91C601C3
:1041F0000E942B9F6C01EA14FB0469F7CE01019623
:104200000E9440C6882309F46CCF6981C6010E94D0
:104210002B9F7C01CE0101960E9440C6882309F4A1
:1042200060CF6981C7010E942B9F892B09F059CF6C
:10423000F30144895589CB56DF4F59834883C559CB
:10424000D040F201E657FF4E8081F201E757FF4E62
:10425000C080D12CF12CE12CB5E0CC0CDD1CEE1C87
:10426000FF1CBA95D1F7D8018C90912CB12CA12CC0
:1042700013E0B694A794979487941A95D1F7C82819
:10428000D928EA28FB28882E912CB12CA12C0DE0EE
:10429000880C991CAA1CBB1C0A95D1F78824B0EE87
:1042A0009B22B7E0AB22BB2487017601E828F928DE
:1042B0000A291B29C357DF4FE882F9820A831B832F
:1042C000CD58D040F201E557FF4E2081E4E02E9F0B
:1042D0009001112490E066E0959587956A95E1F745
:1042E000282B392BA8EEB3E00F94B4036093AB0EE8
:1042F0007093AC0E8093AD0E9093AE0E6091C80E8D
:104300007091C90E9A01A301C1010E94A911C95659
:10431000DF4F8883C759D040E9CE1092EE030E9448
:10432000D8A400E0FF24FA948091880E002331F095
:1043300091E0801708F490E0802F891B8093890E0C
:1043400010926A0310926B0310926C0310926D032B
:10435000F092000210927F0E10927E0E0E9462C6B2
:10436000882309F411C265EA90E080E00E942B9F47
:104370006C01CE018F579F4F0E9440C6882309F4DD
:1043800003C2CE018F5B9F4F0E9440C6882309F471
:10439000FBC1CE0101960E9440C6882309F4F4C1F6
:1043A000CF57DF4F1881C158D040612FC6010E94FE
:1043B0002B9F22966FAD22970E942B9F69810E94AE
:1043C0002B9F892B59F610FDC9CF153638F61123CE
:1043D00009F4DEC11695612F70E07093C90E6093E9
:1043E000C80E2114310409F4D3C16215730508F411
:1043F000CFC1F6E86F2EF0E17F2EC456DF4F188252
:10440000CC59D040C656DF4F19821882CA59D040C5
:1044100044244394512CC356DF4F1882CD59D040C9
:10442000C256DF4F1882CE59D040C156DF4F188296
:10443000CF59D040C056DF4F1882C05AD04080912B
:10444000C80E9091C90E8415950508F4B1C1F12CE0
:10445000E12C10E000E09E0127573F4FAE014D5682
:104460005F4FBE016F5F7F4F80E00E9491C688233F
:1044700009F48EC19E012F563F4F79018E010B57D3
:104480001F4F24503109AE014B565F4F70E060E082
:1044900085E00E9491C6882309F47AC18D899E899E
:1044A000C856DF4F99838883C859D040CB56DF4F19
:1044B00088819981C559D040C856DF4FA881B981FC
:1044C000C859D040A817B90709F062C1CF56DF4FCD
:1044D000E881F981C159D040CF55DF4FF983E88396
:1044E000C15AD040CB57DF4F88819981AA81BB81C7
:1044F000C558D040CD55DF4F88839983AA83BB83AD
:10450000C35AD040CF57DF4F188219821A821B82BC
:10451000C158D0408091950390919603A091970344
:10452000B0919803C955DF4F88839983AA83BB83D1
:10453000C75AD040C856DF4F68817981C859D040EA
:10454000CE0101960E940D9F06E010E1F12CE12CB6
:10455000812C912C5401D12CD8018D918D010E9478
:1045600013A1880E911CA11CB11CE80EF11CD39460
:10457000B0E8DB12F1CFFE01EF57FF4F6F0195015D
:10458000840140E850E060E070E081E00E9423A1F7
:10459000182F8823D9F0C856DF4F28813981C85990
:1045A000D040A90170E060E0CF55DF4FE880F9808E
:1045B000C15AD040CD55DF4F088119812A813B81F6
:1045C000C35AD04080E00E9423A1182FC955DF4F65
:1045D00088819981AA81BB81C75AD0408093950375
:1045E00090939603A0939703B0939803112309F433
:1045F000CFC0CF57DF4F688179818A819B81C158B5
:10460000D04068517C4F8F4F9F4F20ED37E040E006
:1046100050E00F948A03211594E0390741055105B4
:1046200008F0B9C0CF57DF4F288339834A835B83B3
:10463000C158D040CF57DF4F288139814A815B81F3
:10464000C158D04093E34916510409F4A1C0C7579B
:10465000DF4F88809980AA80BB80C958D0408114E0
:104660009104A8E0AA06B10408F092C0C357DF4F36
:10467000C880D980EA80FB80CD58D040C114D104D5
:10468000B8E0EB06F10408F083C0C9012115E4E0AD
:104690003E0710F08FEF93E0D3018C9211969C921D
:1046A00011976C2D660F660F660F6A2912966C9330
:1046B00012974601570165E0B694A79497948794A2
:1046C0006A95D1F713968C921397682F6295660FAF
:1046D000660F607C460157017DE0B694A7949794DD
:1046E00087947A95D1F7682914966C9314979695C8
:1046F00087959695879515968C9342145304E9F502
:1047000080E4FE013196DE01AF5BBF4F01900D9258
:104710008A95E1F7CB56DF4FE881F981C559D04042
:10472000C656DF4FF983E883CA59D040442755273E
:10473000A8EEB3E00F94C3036093AB0E7093AC0E7E
:104740008093AD0E9093AE0EC456DF4F1883CC59B4
:10475000D040C356DF4FC882CD59D040C256DF4F3C
:10476000D882CE59D040C156DF4FE882CF59D040D1
:10477000C056DF4FF882C05AD040FFEF4F1A5F0A91
:1047800026E0620E711C5BCE0F5F003109F0CCCDCC
:104790001092B30FABCC8FEF93E0A0E0B0E0CF5717
:1047A000DF4F88839983AA83BB83C158D04042CF0F
:1047B000C456DF4F3881CC59D040332349F3409160
:1047C000AF0E5091B00E6091B10E7091B20E409349
:1047D000EA035093EB036093EC037093ED03409175
:1047E0008E0E50918F0E6091900E7091910E4093AD
:1047F000E6035093E7036093E8037093E903409165
:104800008A0E50918B0E60918C0E70918D0E40939C
:10481000E2035093E3036093E4037093E503909104
:10482000890E9093E1038093EF0381E08093E0038E
:104830008093EE030E9432DC6091C80E7091C90E25
:10484000C356DF4FE880CD59D040C256DF4FF880C5
:10485000CE59D040C156DF4F0881CF59D040C05605
:10486000DF4F1881C05AD040C656DF4F28813981AA
:10487000CA59D040AE014F5B5F4F46CD10926504E0
:10488000109264041092A10FE7EBFCE013821282F5
:1048900011821082EFE5F4E01182108210925E0422
:1048A00010925D041092590410925A0410925B0405
:1048B00010925C041092AE0C1092AF0C1092B00CDF
:1048C0001092B10C1092B20C1092B30C1092B40C66
:1048D0001092B50C10925004109251041092520490
:1048E0001092530410926304109257041092B60C65
:1048F00010926104109258041092200410921F0428
:1049000010921E041092AD0C1092AC0C1092560432
:10491000109255041092540410924F0408958091FF
:104920005D04E82FF0E0DF01AA0FBB1FA954B34FCD
:104930002D913C91232B51F0E15AFB4F9081911125
:1049400005C091E09083892780935D040895BF920C
:10495000CF92DF92EF92FF920F931F93CF93DF934B
:10496000B0905E04CB2DD0E0CE01815A9B4F6C01FC
:10497000FC01008101110CC011E0812FDF91CF916A
:104980001F910F91FF90EF90DF90CF90BF9008950F
:104990000E9404B4182F8111EFCFCC0FDD1FFE0150
:1049A000E954F34FE080F180C701019781159240EF
:1049B00070F58BE192E1BB2011F086E090E1B70148
:1049C0000E94FAC18E159F0511F5809159049091AE
:1049D0005A04A0915B04B0915C048E0D9F1DA11D33
:1049E000B11D8093590490935A04A0935B04B09333
:1049F0005C04C954D34F19821882F6011082809149
:104A00005E0491E0892780935E04102FB6CF8DE974
:104A100099E00E94337BB1CFCF93DF9390915D04F7
:104A2000E92FF0E0DF01A15ABB4F2C91211133C0D7
:104A30002BE132E1992311F026E030E1EE0FFF1F68
:104A4000E954F34F40815181EA012196D183C0831B
:104A5000240F351FF90180834091AE0C5091AF0CAB
:104A60006091B00C7091B10C4F5F5F4F6F4F7F4FF3
:104A70004093AE0C5093AF0C6093B00C7093B10C9C
:104A800081E0C115D24021F48C93982790935D0466
:104A9000DF91CF91089580E0FBCFFF920F931F939A
:104AA000CF93DF931F921F92CDB7DEB7082FF92E59
:104AB000BE016F5F7F4F0E94D1D1182F811113C0AB
:104AC00040E150E06AE97CE081EA9FE00F945D05F7
:104AD0001092B10F812F0F900F90DF91CF911F9106
:104AE0000F91FF9008958A818F9389818F93FF9210
:104AF0000F938EE899E09F938F931F9280EA8F9394
:104B00008BE194E19F938F930E94556E01970FB6AE
:104B1000F894DEBF0FBECDBF8F399105D8F280E883
:104B200099E00E94337B10E0D5CF80910C04811175
:104B300006C080910B04811102C080910A0408957F
:104B4000AC0161E170E081EA9FE00C9440701816BE
:104B500034F081E499E00E94A02580E008958093DC
:104B6000140460913C046093130490E00E947284EA
:104B700080913C0491E0892780933C0490933E040B
:104B800081E00895BF92CF92DF92EF92FF920F9350
:104B90001F93CF93DF93B0901D04CB2DD0E0CE01B7
:104BA000855B9B4F6C01FC01008101110CC011E081
:104BB000812FDF91CF911F910F91FF90EF90DF90A8
:104BC000CF90BF9008950E9404B4182F8111EFCFA9
:104BD000CC0FDD1FFE01E554F34FE080F180C701EB
:104BE00001978115924028F085E399E00E94A02565
:104BF000DFCF8BE192E1BB2011F086E090E1B701BD
:104C00000E94FAC18E159F0519F08AE299E0EECF55
:104C10008091430490914404A0914504B0914604CE
:104C20008E0D9F1DA11DB11D8093430490934404DC
:104C3000A0934504B0934604C554D34F19821882FB
:104C4000F601108280911D0491E0892780931D0454
:104C5000102FAECFFF920F931F93CF93DF931F922E
:104C60001F92CDB7DEB7082FF92EBE016F5F7F4FC1
:104C70000E94D1D1182F811122C08AE99CE0892B92
:104C800099F481EA9FE0009731F043EF58E061E149
:104C900070E00E942C70812F0F900F90DF91CF91C8
:104CA0001F910F91FF90089540E150E06AE97CE088
:104CB00081EA9FE00F945D051092B10FECCF8981DE
:104CC0009A812091750F3091760F2530310501F5CD
:104CD0009F938F93FF920F938BE199E09F938F9314
:104CE0001F9280EA8F938BE194E19F938F930E94B0
:104CF000556E0FB6F894DEBF0FBECDBF01978F394A
:104D0000910548F28EEF98E00E94A02510E0C3CFF5
:104D10009F938F93FF920F938CE099E0DFCFDC019C
:104D20009FB7F8942091030430910404409101044A
:104D30005091020480E04217530769F0F901F770BF
:104D4000EA56FB4F80818C932F5F3F4F30930404D2
:104D50002093030481E09FBF08952F923F924F92CA
:104D60005F927F928F929F92AF92BF92CF92DF928B
:104D7000EF92FF920F931F93CF93DF931F921F9297
:104D8000CDB7DEB722E0E22EF12C77247394CC2449
:104D9000C394D12CE0914204F0E0E55BFB4F00812D
:104DA0000111CBC080913E04882391F080911404BE
:104DB00090911304911101C081950E94620F81119D
:104DC00010923E0480913E04882321F301E0B5C097
:104DD0000E949525082F882309F400C180913D0485
:104DE0008823A1F380910C04882321F1809047044B
:104DF00090904804A0904904B0904A048091120415
:104E00008823B1F081E00E94620F882371F08092C4
:104E10000D0490920E04A0920F04B09210047092B0
:104E2000110410920C0470920B040E949525CCCFB3
:104E30008FEFE9CF00910B04002371F080E00E9416
:104E4000620F882391F310920B0480910804882349
:104E500061F30E94430FE9CF80910A04882309F48B
:104E6000B5CF10910904812F111614F08FE7810F2F
:104E700090911204911101C0819590911104992390
:104E800009F4A7C080900D0490900E04A0900F0428
:104E9000B0901004898340911504509116046091DC
:104EA0001704709118042091BB0C3091BC0C211593
:104EB000310589F084169506A606B70660F01A013A
:104EC0002B01220E331E411C511C82149304A40496
:104ED000B50408F447C04091190450911A04609138
:104EE0001B0470911C042091BD0C3091BE0C211547
:104EF000310591F084169506A606B70668F01A01EA
:104F00002B01220E331E411C511C26E030E182147D
:104F10009304A404B50440F18091430490914404A7
:104F2000A0914504B091460488169906AA06BB06CE
:104F300068F187E599E00E94A025802F0F900F90DF
:104F4000DF91CF911F910F91FF90EF90DF90CF9065
:104F5000BF90AF909F908F907F905F904F903F90C9
:104F60002F9008952BE132E1841A950AA60AB70A18
:104F7000820E931EF401808310920A0411160CF025
:104F800068CF70920B04709208044FCF0E9404B453
:104F9000082F81114ACFC501B4010E9401C18111BE
:104FA00003C08BE499E0C7CF61E070E0CE010196C9
:104FB0000E94FAC10197A9F76091430470914404DB
:104FC00080914504909146040E9401C18111D4CF83
:104FD000E8CF0E94620F8111CFCF27CF80913F048D
:104FE000882341F010923F040E94A725882309F4EA
:104FF000A4CFD0CECE0102960E948F26882309F43A
:10500000E5CE20914004309141048A812130310560
:1050100081F4109241041092400490EF980F903761
:1050200018F086E799E087CF0E94A7258823C9F367
:10503000B1CE2230310591F4109241041092400417
:1050400090913D04992311F08F3F1CF482E699E082
:1050500072CF8093090470920A049CCE813029F4A7
:10506000D0924104C092400495CE8230D9F580910F
:105070003D0481112DC08091980F8823C1F01092BA
:10508000390410923804109237040E9444AC809185
:105090002804873061F00E94338310922704109215
:1050A0002604109225041092240410922304709276
:1050B0003D0480913C0480931204109211041092DC
:1050C0000C0410920B0410920A041092080462CE91
:1050D00080911104811103C070920C045BCE709218
:1050E0000B0458CE833029F4F0924104E09240043E
:1050F00051CE282F30E094E0359527959A95E1F729
:10510000182F1F702115310519F48CE699E013CF83
:10511000822F0E94A725882309F40FCF112309F4B9
:1051200039CE10933F0436CE4FB7F8942091030444
:105130003091040480910104909102044FBF821BBE
:10514000930B0895CF9380916204813069F5CFB7B6
:10515000F894809104018E7F809304018091050171
:105160008E7F809305018091030181708093BC0341
:105170008091BC0380933B041092070410920604B4
:10518000109205041092000490E080E00E94E40F69
:1051900082E0809362040E9448B181E00E945BB586
:1051A000CFBF81E0CF91089580E0FCCF0E9422B173
:1051B000E3E7F0E080818D7F8083109221011092DF
:1051C000200182E08ABB80E00C945BB5CF93DF9333
:1051D000DFB7F8940E9422B1D19B0FC00E943B1010
:1051E000C82F81110AC00E94D62884E080936204EF
:1051F000DFBF8C2FDF91CF91089580912401909192
:10520000250110922101909307048093060483E006
:105210008093620480E00E945BB5C1E0E9CF1F92F9
:105220000F920FB60F9211240BB60F922F933F934C
:105230004F935F936F937F938F939F93AF93BF939E
:10524000EF93FF9380916204823061F40E942C10EE
:105250008823D9F082E00E940C108823B1F081E00D
:1052600080930504FF91EF91BF91AF919F918F9132
:105270007F916F915F914F913F912F910F900BBE56
:105280000F900FBE0F901F9018950E94D62884E0B3
:1052900080936204E7CFCF93CFB7F8940E94D628CB
:1052A000109205041092000410926204CFBFCF91B7
:1052B0000895CF93CFB7F8940E94D6281092040493
:1052C0001092030410920204109201041092070439
:1052D000109206048CE991E390932A0280932902AC
:1052E00082E08093280210923A041092BC0310923C
:1052F0003B04109205041092000410926204CFBF88
:10530000CF9108950E9459291092A00F10929F0FDB
:105310001092760F1092750F10921B141092A10F1D
:10532000EBEBFCE01182108213821282EBE4F4E0DA
:10533000108211821092420410921D04E5E1F4E003
:1053400010821182128213821482158216821782B1
:1053500010924304109244041092450410924604A3
:1053600010924704109248041092490410924A0483
:10537000109241041092400410923F0410923C0499
:1053800010923E04109214041092130410923D04E3
:10539000109212041092110410920D0410920E0437
:1053A00010920F041092100410920C0410920B042F
:1053B00010920A0410920904109208040895CF93E1
:1053C000DF93EC01D19910C08091240190912501C7
:1053D00099838883109225011092240182E08ABB70
:1053E00081E0DF91CF9108950E943B108823C9F39B
:1053F000EBCFCF9320910504C0913A04222309F406
:1054000041C0CC2359F0029696958795969587953D
:105410008038910570F080E0CF910895C29684366F
:10542000910530F084569109CF5FC038C1F7F3CFB2
:105430008C2F40910104509102042091030430917B
:105440000404241B350B2150384F2230310518F34A
:105450002091010430910204F901F770EA56FB4FE4
:1054600093E09083F9013196F770EA56FB4F808301
:105470002E5F3F4F309302042093010410920504E5
:1054800081E0CACFCC23F1F1029696958795969547
:1054900087950097A1F18038910508F0BCCFC82FFF
:1054A000C03108F450C00E942C10882309F4B3CFF7
:1054B00040910104509102042091030430910404AE
:1054C000241B350B2150384F2230310508F4A3CF6F
:1054D0002091010430910204F901F770EA56FB4F64
:1054E00091E09083F9013196F770EA56FB4FC08343
:1054F0002E5F3F4F30930204209301048DCF81E053
:1055000090E0CDCFC2968436910530F08456910953
:10551000CF5FC038C1F77FCFC111C2CF80910004E7
:10552000C1E0811103C0C0930004AACF20E1829F93
:10553000C00111248C2B0E940C10882309F46BCF1E
:105540001092000469CF80910004EBCF1F93CF939A
:10555000DF931FB7F894C0910301C1708091BC0321
:105560008C1731F180910604909107040E94F9296B
:10557000D82F81110BC00E94D62884E0809362044A
:105580001FBF8D2FDF91CF911F910895C093BC0352
:105590001092050490E080E00E94E40F82E0809386
:1055A00062040E9448B181E00E945BB5D1E0E8CF7F
:1055B0008091060490910704EFCF1F93CF93DF9360
:1055C0001F921F92CDB7DEB71A8219821FB7F894C7
:1055D00080916204823021F080916204833021F551
:1055E0000E9422B180916204823029F5CE01019699
:1055F0000E94DF2910922101909173009D7F90936A
:10560000730092E09ABB8823F1F089819A810E940D
:10561000F9298823C1F00E942C108823A1F0109250
:10562000620480E00E945BB51FBF0F900F90DF9176
:10563000CF911F91089580910604909107049A8359
:10564000898381E0D7CF84E080936204EACF2F92F0
:105650003F924F925F926F927F928F929F92AF9202
:10566000BF92CF92DF92EF92FF920F931F93CF934F
:10567000DF931F921F92CDB7DEB718160CF05CC0F7
:1056800060914F0490E00E9464AC382E80914F04EA
:1056900091E0892780934F04311018C0332433944C
:1056A000832D0F900F90DF91CF911F910F91FF905D
:1056B000EF90DF90CF90BF90AF909F908F907F90B2
:1056C0006F905F904F903F902F90089597E2492EF2
:1056D000512C2CE2622E712C39E3832E912C0091F7
:1056E000BB141091BC1401151105D1F28091BD14A9
:1056F0004091BE145091BF146091C0147091C114B8
:10570000A090C614B090C7141092BC141092BB1491
:105710000130110509F07FC1C0904D04D0904E04B6
:105720000091210410912204E090E014F090E11423
:105730008091B60C882311F0312CB2CF80912004D7
:105740008111FACF6BE172E1672B09F476C0C114C5
:10575000D10409F472C0D60158962C90B1E02B12F6
:105760006CC0BE016F5F7F4FC6010E94E1AF88230E
:1057700009F463C080E8F601ABE1B2E101900D925B
:105780008A95E1F720921B12F6017A9686E0ADE247
:10579000B2E101900D928A95E1F7E3E3F2E188E648
:1057A000DF011D928A95E9F789819A8190931F0400
:1057B00080931E04019787309105C8F190E080E046
:1057C0009093AD0C8093AC0C8BE1C82E82E1D82E67
:1057D000C6010E949A89882309F4AECFD601529659
:1057E0008D919C91B0E0A0E08093B20C9093B30CAB
:1057F000A093B40CB093B50C80589F4FAF4FBF4FE0
:105800008093500490935104A0935204B093530496
:1058100081E08093B60CC6010E940B816091B20CAE
:105820007091B30C8091B40C9091B50C15C08D5F44
:105830009C4FFC01808190E0C3CFC6010E940AB05A
:10584000882369F081E080932004C6010E940B81C7
:105850006AE570E080E090E00E9464AF40CF0115FF
:10586000110509F4D4C0E114F10409F04DC0C801D8
:10587000885791090837110538F488E790E0801BB4
:10588000910B0933110528F1A801495351099801D9
:105890002C5231090752110970E4A71A7FE1B70AA7
:1058A000A9E8AA16A3E1BA0650F40217130738F4C0
:1058B0000417150720F40817190708F4AAC0481799
:1058C0005907C0F42417350708F4B7C191E080E008
:1058D00080C0A401401B510B0C321105C0F693018E
:1058E000201B310B07321105A8F6B201601B710BAA
:1058F0008B01D2CF2817390708F089C02417350744
:1059000008F085C092E0E3CFA80148575109083755
:10591000110520F448E750E0401B510BC7018B5E96
:105920009109BBEEEB16F10420F48BEE90E08E199A
:105930009F09480F591FC801C9970933110518F469
:10594000C401801B910B970125573109E5E7EE163D
:10595000F10420F425E730E02E193F09280F391F04
:10596000C8018C970C32110518F4C301801B910BF0
:10597000B70168557109F8E5EF16F10420F468E500
:1059800070E06E197F09860F971F0732110550F1DD
:10599000075211097FE4E716F10448F1AFE4EA1A6F
:1059A000F1080E0D1F1D0817190730F40217130711
:1059B00018F40417150768F124173507F0F4821757
:1059C000930708F43FC191E080E00217130708F441
:1059D00090E09093AC0C8093AD0CC114D10409F409
:1059E000ABCEF6CEB201601B710B8B01D3CFEFE4CF
:1059F000F0E0EE19FF097F01D4CF8417950738F442
:105A00008217930720F40817190708F07BCF90E05E
:105A10005ECF98E05CCF0230110539F590912004FB
:105A2000992359F04A3551056105710508F084CE76
:105A3000455E5D4EFA01808352CE9091B60C99235B
:105A400009F47ACE0091B20C1091B30C2091B40CF1
:105A50003091B50C401751076207730708F06CCE00
:105A60000E940C2581113BCE67CE0330110509F051
:105A7000C5C080912004882309F498C066E070E1D5
:105A8000672B09F488C000914D0410914E04C801A1
:105A90000E940AB0882309F47EC08BE192E100974E
:105AA00009F479C0BE016F5F7F4F0E94B1AF8823B8
:105AB00009F471C080E8F801A6E0B0E101900D9210
:105AC0008A95E1F780916712809306108DE0E8E6F1
:105AD000F2E1A8E1B0E101900D928A95E1F7109210
