:100000000C94F70E0C94280F0C94280F0C94280FC6
:100010000C94280F0C94280F0C94280F0C94280F84
:100020000C94280F0C94280F0C94136E0C94280F2A
:100030000C94280F0C94280F0C94280F0C94280F64
:100040000C94280F0C94BF730C94280F0C94280F59
:100050000C94280F0C94280F0C94280F0C947FDF1D
:100060000C94280F0C94280F0C94280F0C94280F34
:100070000C94280F0C94280F0C94280F0C94280F24
:100080000C9487740C94077A0C94280F0C9485397F
:100090000C94280F0C94280F0C94280F0C94280F04
:1000A0000C94280F0C94280F0C94280F0C94280FF4
:1000B0000C94280F0C94280F0C94280F0C94F628FD
:1000C0000C94280F0C94280F0C94280F0C94280FD4
:1000D0000C94280F0C94280F0C94280F0C94280FC4
:1000E0000C94280F0C9499DB0C9433370C945755CF
:1000F0000C9466C00C9421D70C94AD7B0C944B38B7
:100100000C94AF150C94B5300C9407380C948DDB1F
:100110000C944FBF0C94B3530C94BF670C941AF912
:100120000C942A770C94B0670C9449B50C9469BF71
:100130000C94565C0C9490F30C9427D70C94DD7BB4
:100140000C943DFC0C949FBF0C948A380C94DB1DDE
:100150000C94D9F50C9435540C942BD70C94B0B561
:100160000C94E1F80C9464B60C94B0530C9403B660
:100170000C940BF60C941B540C94E4F50C94EE3890
:100180000C941DFB0C9415FD0C9437FA0C94BAB525
:100190000C94C1530C942A540C947B1E0C94B5FB04
:1001A0000C9426D70C9411F60C94DE140C9405D7FD
:1001B0000C94D1140C94B7370C94B5B50C94E21D83
:1001C0000C94B6360C9419D70C94B87E0C94F4F5B4
:1001D0000C9492150C94A4F80C9424FD0C946F5478
:1001E0000C946AB60C949EF00C9455B60C9413D7EC
:1001F0000C94751E0C9493DB0C94B3670C947CF8F0
:100200000C94B8300C94BC670C94D77A0C9454F6C8
:100210000C9421540C941E540C9452B60C949B14C0
:100220000C94E6D60C9457560C94535C0C9482DBD9
:100230000C94F0530C94BFB50C94EAF50C945C3715
:100240000C948ADB0C94B6670C9456C00C942FD790
:100250000C94681E0C94A0F80C94CC7A0C94AA53BD
:100260000C9458540C94F0D60C94C4300C94C9B52A
:100270000C944CFC0C9467B60C9496DB0C94F353E2
:100280000C94E7F50C94FAF50C9432F90C9489FC73
:100290000C9461540C9401F60C949EF60C94BB30B3
:1002A0000C949A7F0C94D0360C94E4530C945B54C9
:1002B0000C94EA530C943E300C942D540C9404F698
:1002C0000C94AF300C94A6380C94C0140C94717B31
:1002D0000C94FB530C94FD360C940FD70C9401D75F
:1002E0000C945CD70C94D41D0C948CB60C94E384C1
:1002F0000C94A6F80C949EF80C94AA670C941B7BA3
:100300000C94D2F50C9434FB0C941F370C94C95503
:100310000C9452F60C9451FD0C9473DD0C942454FF
:100320000C94ED530C94F8D60C94F3140C94CEB5B5
:100330000C9497F30C94611E0C942AF60C9413C041
:100340000C94EDF50C9453FC0C942CFB0C946E1E49
:100350000C9471380C9428390C9433150C94C8679C
:100360000C94B9530C94B2300C942CFD0C94267B55
:100370000C94E1540C94F4D60C94F7F50C94275497
:100380000C9490DB0C940BD70C9473B60C941DD783
:100390000C9467540C94FD7A0C9479F80C94ECD678
:1003A0000C94F4F80C940EF60C94B6530C94FBD603
:1003B0000C945E540C94AD530C94087B0C94D3B500
:1003C0000C94B1550C94C5670C94687E0C94C4B51C
:1003D0000C9455540C94A7530C946D150C9481B641
:1003E0000C9430F60C9464540C94E1530C94D5BFE7
:1003F0000C94C2670C94E7530C94B9670C949DB5A8
:1004000054494D45522041524700424144205449ED
:100410004D455200554E44455252554E00424144BE
:100420002057415600424144205241544500384231
:100430004954204F4E4C59004D4F4E4F204F4E4C7B
:10044000590050434D204F4E4C59004E4F204441CF
:100450005441004E4F20464D5400424144205249E1
:100460004646004E4F542057415645004E4F5420AB
:100470005249464600494F204552524F52004F5074
:10048000454E204552524F5200424144204152476E
:10049000004F4B004D5A54205345454B00524543A5
:1004A0004F5244005B96A59D9AB75D004C44522084
:1004B000424C4F434B005144205345454B004D5A4D
:1004C000462054494D4500494D4147452054494D2A
:1004D00045004C445220484541444552004D5A5431
:1004E000205345454B004D5A462053544154450036
:1004F0005144205345454B0050574D2050495045DD
:10050000004D5A46205354415445004D5A3720520D
:100510004546494C4C004D5A4620554E44455200E4
:100520004241442053455353494F4E0045444745AB
:1005300020464952535400494E534552542043419A
:10054000524400544150204649464F00554E4445C0
:100550005252554E00544150204649464F004D5A84
:100560004620535441525400554C20535441525448
:10057000004D5A37205345454B004D5A54205345A2
:10058000454B00554C372041434B00554C372041DB
:10059000524D00554C2053484F525400554C205258
:1005A00045414400554C205741495400554C205377
:1005B000484F525400554C205245414400554C2060
:1005C000415247004D5A3720524546494C4C004D48
:1005D0005A46205354415254004D5A4620535441D8
:1005E000525400504C4159204552524F520014046D
:1005F0000A04000454494D45520000000000100058
:10060000800000AA00389B71910489047E0475045F
:100610006C0463045A0453044B04420438042E044B
:1006200025041D04574156204552524F52004E4F4B
:100630002057415620494E464F00454D50545920B1
:1006400057415600454D50545920454447450045B3
:10065000444745204F50454E0045444745204152B0
:10066000470053504545440054595045004D5A5495
:10067000205345454B004D5A54205245434F524458
:10068000004D5A5420464F524D4154004D5A54206B
:100690005345454B004D5A5420434F554E54004D41
:1006A0005A5420484541444552004D5A5420534520
:1006B000454B00514446205345454B00514446208C
:1006C0005345454B00514446204652414D4500514B
:1006D0004446205245434F52440051444620434F24
:1006E000554E540051444620484541444552004D22
:1006F0005A51205345454B004D5A51205245434FC6
:10070000524400514420424F445920435243005127
:10071000442052454144004D5A51205345454B0019
:1007200051442053484F525420424F4459004D5A8F
:10073000512053495A45004D5A51204441544120BB
:100740004844520051442053484F525420424F4491
:1007500059005144204845414445522043524300EA
:1007600051442053484F5254204844520051442091
:1007700053484F525420484452004D5A5120464944
:100780004C45204844520051442053484F52542075
:10079000484452004D5A51205245434F5244004D57
:1007A0005A5120434F554E54004D5A5120454D50FB
:1007B0005459004D5A512048454144455200514436
:1007C0002053484F5254204844520051442052452F
:1007D0004144005144205345454B00514420464C70
:1007E0004153480051442048584300514420534845
:1007F0004F5254005144205245414400514420532B
:1008000045454B004D5A462053484F5254004D5ACF
:1008100046204F50454E004D5A4620415247005405
:10082000415020524541440054415020464C4147DC
:1008300000544150205452554E4300544150204CD6
:10084000454E4754480054415020524541440054BD
:100850004150204C454E47544800454D5054592076
:1008600054415000544150204F50454E0054415087
:10087000204152470042414420464F524D415400CE
:10088000544150205452554E43005441502052453B
:10089000414400544150204649464F0054415020A5
:1008A0005245414400544150205452554E43005447
:1008B0004150204649464F0054415020464C414744
:1008C00000544150205452554E4300544150204C46
:1008D000454E47544800544150204C454E475448DB
:1008E0000054415020524541440054415020464953
:1008F000464F0045444745204552524F5200504113
:10090000544820544F4F204C4F4E470025732F52D0
:100910004543253034752E4C45500025732F5245E4
:1009200043253034752E4C31360045444745205719
:1009300052495445005354414745204552524F5265
:100940000042414420544F4B454E005041544348CF
:10095000205752495445005041544348204C4F536E
:10096000540042414420544F4B454E0042414420E4
:10097000544F4B454E0042414420544F4B454E008E
:100980005041544820544F4F204C4F4E4700257340
:100990002F524543253034752E4D5A46004D5A4648
:1009A000205752495445004D5A4620434845434B31
:1009B00053554D004D5A4620434845434B53554DE2
:1009C00000544320434845434B53554D0054432066
:1009D0004C4F41444552004F4B0053442043415239
:1009E00044204552524F5200494E534552542043E1
:1009F000415244004E4F5420494E49540053442024
:100A000043415244204552524F52004E414D4520E1
:100A1000544F4F204C4F4E470046494C45204F50B5
:100A2000454E204641494C004241442050415448E3
:100A30000046494C452043524541544520464149D2
:100A40004C004241442050415448004E4F542044F1
:100A50004952004D4B444952204641494C004449BB
:100A600052204641494C004E4F5420444952004EBA
:100A70004F54204449520042414420444952454386
:100A8000544F525900524543204E414D4553204644
:100A9000554C4C00444952204641494C0046494C73
:100AA000452052454144204641494C0046494C4569
:100AB0002052454144204641494C00424144204196
:100AC00052470046494C452057524954452046411B
:100AD000494C004241442041524700505245414C4C
:100AE0004C4F43204641494C0046494C4520545206
:100AF000554E43204641494C0046494C45205359E8
:100B00004E43204641494C0046494C4520534545FB
:100B10004B204641494C0046494C452052454D4FDB
:100B2000564520455252004241442050415448000D
:100B300052454E414D45204641494C0046494C45A1
:100B400020455849535453004241442052454E4198
:100B50004D45002E544150002E574156002E4C3129
:100B600036002E4C4550002E4D3132002E51444659
:100B7000002E5144002E4D5A51002E4D5A54002E35
:100B80004D5A460000202020202020202020202018
:100B90002000202020202020202020202020202075
:100BA00020202020202122232425262728292A2B03
:100BB0002C2D2E2F303132333435363738393A3BFD
:100BC0003C3D3E3F404142434445464748494A4BED
:100BD0004C4D4E4F505152535455565758595A5BDD
:100BE0005C5D5E5F2020202020202020202020200F
:100BF00020202020202020202020202020202020F5
:100C000020202020202020202020202020202020E4
:100C10002020202020206520202074676820627812
:100C20006472706371617A77737569204F6B667651
:100C30002075426A6E20556D2020206F6C416F61D7
:100C4000207920202020202020202020202020204B
:100C50002020202020202020202020202020202094
:100C60002020202020202020202020202020202084
:100C70002020202020202020202020202020202074
:100C800020202020313A3200313A3300313A31000D
:100C9000544300313A3200313A3300313A340031B2
:100CA0003A3100494300313A3300313A31004D5A6C
:100CB00037303000313A3400313A3300313A3200C3
:100CC000313A31004E4F524D414C00554C5F4D5A18
:100CD00037303000554C5F4D5A38303000554C009D
:100CE000574149542E2E2E0052454C454153452024
:100CF000414C4C004144433A253475005741495416
:100D000020494E50555400505245535320252D3103
:100D1000307300504C4541534520574149540051D0
:100D200044204C4F41442E2E2E004544474520522E
:100D30004541440045444745204649464F00554CEF
:100D40002057414954003E08D3CEE5210000D3E4AA
:100D50007ED3E077237CFE1020F43A4BD4324B0A4A
:100D60003A4CD4321205214DD4110211010D00ED7F
:100D7000B0E17CFED428122A0411D92100122204E9
:100D800011CD2A00D3E4C39AE9CD2A00D3E4C324C9
:100D90000100000000000000000000000000000052
:100DA0003E08D3CECD3E07360197575FCD0803CD21
:100DB000BE02D3E21AD3E01213CB6228F53EC3324F
:100DC0001F06215C112220062A08117D3212057CA3
:100DD000324B0A2A0A11220211CDF80401CF06ED86
:100DE00071D3E2DAAAE9210A11C308EDC53A10115C
:100DF000EE0C32101101CF06ED79C1C93139383707
:100E00001102E0F31AE62028FB137B121B010004F9
:100E10001ACB6728FBE620B1074F7B13121B1ACBB6
:100E20006720FBE620B1074F137B121B10E27123F2
:100E3000D90B79B0D920D64F04D9C31102E0F31AE7
:100E4000E62028FB137B121BC50100041ACB672880
:100E5000FBE620B1074F7B13121B1ACB6720FBE682
:100E600020B1074F137B121B10E271C10B2379B025
:100E700020D60601D9C31102E0DD2103E0AF3D20F9
:100E8000FDF31AE62028FBDD360003C50100041A35
:100E9000CB6728FBE620B1074FDD3600021ACB678F
:100EA00020FBE620B1074FDD36000310E271C10BD5
:100EB0002379B020D600E1E93E08D3CE1102E0DD6F
:100EC0002103E0AF3D20FDF31AE62028FBDD3600CC
:100ED00003C50100041ACB6728FBE620B1074FDDEC
:100EE0003600021ACB6720FBE620B1074FDD360043
:100EF0000310E271C10B2379B020D6010001D9E1C2
:100F0000E93E08D3CECD3E07360197575FCD0803A3
:100F1000CDBE02D3E21AD3E01213CB6228F53E080D
:100F2000D3E01102E0F37B13121B1AE62028FB1317
:100F30007B121B0100041ACB6728FBE620B1074F88
:100F40007B13121B1ACB6720FBE620B1074F137BE4
:100F5000121B10E27123D90B79B0D920D64F04D9D6
:100F6000C351442043414E43454C004D5A46205303
:100F7000484F5254004D5A462052454144004D5A64
:100F800046204649464F004D5A46204C454E475450
:100F900048004D5A542053484F5254004D5A542043
:100FA00052454144004D5A54204845414445520061
:100FB0004D5A462053484F5254004D5A46205245F0
:100FC0004144004D5A46204C454E475448004D5A26
:100FD000542053484F5254004D5A542052454144D6
:100FE000004D5A5420484541444552004D5A462030
:100FF0005345454B004D5A46205345454B00000094
:10100000000007DF0EF70F521D6A1EF82A00007C51
:101010001500002828141402000000000100000040
:10102000071A07B408A90E4410F82A00007C15001E
:101030000028281414020000000002000000077FAE
:1010400005CA07FF0AF90DF82A00007C15000028E0
:1010500028141402000000000300010007000F80A4
:1010600010001DE01EF82A00007C1500002828143E
:10107000140200000000040004000900050005003F
:101080000A000AF82A00007C15000028281414021F
:1010900000000000050002000FD0045507DA093AED
:1010A0000BF82A00007C1500002828141402000008
:1010B0000000060002000F7F05CA07FF0AF90DF8BD
:1010C0002A00007C150000282814140200000000EB
:1010D000070002000F1A07B408A90E4410F82A00EE
:1010E000007C1500002828141402000000000800ED
:1010F00003000F97068906200D200DF82A00007CBA
:101100001500002828141402000000000900030044
:101110000FDD08CF08AC11AC11F82A00007C1500D7
:10112000002828141402000000000A00000007D064
:10113000045507DA093A0BF82A00007C150000284C
:1011400028141402000000000B0002000FA90E7EFC
:1011500010521DED1EF82A00007C150000282814EE
:101160001402000000000C0003000FAF0FA00F4F8F
:101170001F4F1FF82A00007C1500002828141402B5
:1011800000000000554C205345454B00554C205362
:1011900045454B00554C2041524700545552422082
:1011A0005345454B004D5A54205345454B004D5A2D
:1011B000542052454F50454E005144205245414421
:1011C0000051442053484F52542048445200514447
:1011D0002053484F52542048445200514420434128
:1011E0004E43454C00545950453D54430A535045D5
:1011F00045443D313A310A00545950453D49430A6E
:1012000053504545443D313A310A00545950453D0B
:101210004E4F524D414C0A53504545443D313A34AE
:101220000A00545950453D4D5A3730300A53504505
:1012300045443D313A310A00545950453D4E4F52D4
:101240004D414C0A53504545443D313A330A005410
:101250005950453D4E4F524D414C0A53504545441F
:101260003D313A320A00545950453D54430A5350D7
:101270004545443D313A320A00545950453D5443A6
:101280000A53504545443D313A330A0054595045BC
:101290003D49430A53504545443D313A320A0054D2
:1012A0005950453D49430A53504545443D313A3331
:1012B0000A00545950453D49430A53504545443D61
:1012C000313A340A00545950453D4D5A3730300AAE
:1012D00053504545443D313A330A00545950453D39
:1012E000554C5F4D5A3730300A00545950453D55E2
:1012F0004C5F4D5A3830300A00545950453D554CDA
:101300000A00545950453D4E4F524D414C0A5350DE
:101310004545443D313A310A00455252005041554D
:1013200000504C5900524459005443310049433154
:10133000004E3134004D3731004E3133004E3132E2
:10134000005443320054433300494332004943338D
:1013500000494334004D373300554C3700554C3865
:1013600000554C00544320313A3100494320313A72
:1013700031004E524C20313A34004D5A3720313A28
:1013800031004E524C20313A33004E524C20313A0B
:101390003200544320313A3200544320313A330072
:1013A000494320313A3200494320313A330049431E
:1013B00020313A34004D5A3720313A33004E524CE6
:1013C00020313A310043504D20313A340043504DE2
:1013D00020313A330043504D20313A320043504DD2
:1013E00020313A310053494E20313A340053494EAE
:1013F00020313A330053494E20313A320053494E9E
:1014000020313A3100524543204552524F52004D4F
:101410005A4620535441525400505245414C4C4F6F
:1014200043204641494C004D5A46204352454154C1
:10143000450053442043415244204552524F5200EC
:101440004544474520535441525400505245414C65
:101450004C4F43204641494C0045444745204352A8
:101460004541544500534420434152442045525283
:101470004F52005245432054494D45522045525247
:1014800000505245414C4C4F43204641494C005777
:101490004156204352454154452045525200424155
:1014A0004420524543205241544500534420434177
:1014B0005244204552524F520052454320464F520B
:1014C0004D4154005245432050415553450052452B
:1014D0004320524553554D450025732F25735F25F5
:1014E0003032752E4C45500025732F25735F253003
:1014F00032752E4D5A460025732F25735F253032E5
:10150000752E4C31360025732F25735F25303275CB
:101510002E5741560025732F25732E4C455000251C
:10152000732F25732E4D5A460025732F25732E4C8D
:1015300031360025732F25732E57415600574156DB
:1015400020434C4F5345204552520057415620509E
:10155000414420455252005441494C20575249546D
:10156000452045525200524543204F564552464C65
:101570004F57004544474520434C4F534500454491
:101580004745204F564552464C4F57000213000026
:10159000F912EA12DB12C512B2129F128C127912E2
:1015A00066124F12381222120B12F811E5114D5A21
:1015B0004620434C4F5345004D5A462057524954FC
:1015C00045004D5A4620494E434F4D504C455445D9
:1015D000004D5A46204445434F4445004D5A46204D
:1015E0005345454B004D5A46204F564552464C4FA9
:1015F000570045444745204F564552464C4F5700EB
:101600005041544820544F4F204C4F4E47002573B3
:101610002F524543253034752E57415600574156B9
:1016200020484541444552204552520057415620DA
:10163000544F4F2042494700574156205752495472
:10164000452045525200414E414C59534953205177
:101650005545554500444952204641494C004E4F9E
:1016600020454E545259004F4B00534420434152A1
:1016700044204552524F5200494E53455254204344
:1016800041524400454D505459004E4F20454E5450
:10169000525900534420494E4954004E4F20454E64
:1016A0005452590042414420415247004E4F204578
:1016B0004E545259004E4F20454E545259002E2E32
:1016C0002F00454D505459005245434F52443D520E
:1016D00045545259005344204341524420455252EC
:1016E0004F5200494E53455254204341524400202A
:1016F000202020202020202020202020202020000A
:10170000251321131D131913504C410053544F50EE
:101710003D43414E43454C005144205343414E20EC
:101720002533752525004E313100484C4800554C75
:10173000004633480046334C0054430049430049B7
:10174000434C005537480055374C00484C4C004E30
:101750004C48004E4C4C00257320253032753A25FC
:101760003032752F253032753A25303275002573A9
:101770002020202020202020253033752525200002
:10178000257320252D337320202020253033752507
:1017900025200050415553454400257320252D3404
:1017A0007320253032753A25303275002573202597
:1017B0002D3473202D2D3A2D2D004D414E20252DF9
:1017C000347320253032753A253032750053454C3C
:1017D00020252D347320253032753A25303275009E
:1017E0004D544920252D347320253032753A25304B
:1017F0003275004D414E20252D3473202D2D3A2D6C
:101800002D0053454C20252D3473202D2D3A2D2DA0
:10181000004D544920252D3473202D2D3A2D2D00B7
:10182000554E535550504F52544544004552522046
:10183000252E31327300554E4B4E4F574E00BD137F
:101840000000000000000000B513AE13A713A013A2
:10185000991392138A1382137A1372136B136413FE
:101860000000FD13F513ED13E513DD13D513CD13B0
:10187000C51332326B0034346B005245430053566B
:10188000442000524543204552524F520052454396
:101890002043414E43454C4C45440046494C45206D
:1018A00044454C4554454400504C45415345205710
:1018B000414954005741495400534156494E47202D
:1018C00000504155202530326C753A2530326C7508
:1018D00000524543202530326C753A2530326C7504
:1018E0000050415553454420202020202020202016
:1018F0004D0057414954205349474E414C00205414
:10190000430020494300204D5A3730300020554CC9
:10191000204D5A3730300020554C204D5A38303049
:101920000020554C00204155544F00204E4F524D41
:10193000414C0020313A340020313A330020313A12
:10194000320020313A3100203235303020426400FC
:101950002032313030204264002031383030204293
:1019600064002031343030204264004D5A46004C2F
:1019700045502035307573004C3136203136757343
:10198000005741562032326B487A00574156203476
:10199000346B487A004D414E55414C004155544FEF
:1019A000004D4F544F520052454C45415345204144
:1019B0004C4C0043414C204E4F4E45005341564540
:1019C000440043414C4942524154494F4E004E4F0E
:1019D0005420534156454400454550524F4D2045F3
:1019E00052524F52005553494E47204445464155A7
:1019F0004C540043414C20494E56414C4944005000
:101A00004C4159005245434F52440053544F5000EB
:101A10004646574400524557494E440043414C49BD
:101A200042524154494F4E004B4559504144002FBA
:101A30005245434F5244494E475300494E53455235
:101A400054204341524400494E534552542043418F
:101A50005244005041544820544F4F204C4F4E4761
:101A60000046494C452053454C4543544544004E9F
:101A7000414D4520544F4F204C4F4E4700454D504F
:101A80005459204449520052454320464F524D413B
:101A900054002B192519211917190D1906190219A6
:101AA000FE18202D2D0042193D19381933196219DD
:101AB0005919501947193E54415020535045454437
:101AC000003E5350454544003E4C4F414445520072
:101AD000204D4F544F5200204D414E55414C003E39
:101AE000504C4159204354524C00204F4646002050
:101AF0004F4E003E57415620494E56455254003FE6
:101B0000008B19811978196F196B19A1199C1995F6
:101B1000193E524543204D4F4445004F4646004F25
:101B20004E003E4155544F4E414D45003E524543B7
:101B3000205459504500202533752525002533753F
:101B4000252520454550524F4D20455252003E42DA
:101B500041434B4C494748540052414D2025752084
:101B60004D494E25750041424F55542076322E3056
:101B70002E320020494E5445524E414C00204558CB
:101B80005445524E414C003E434D5420534F555204
:101B900043450000002100240027002A002D0030CA
:101BA00000330001010000040107010A01000022C6
:101BB00000250028002B002E003100340002010017
:101BC00000050108010B01F0F0F0F3F0F5F0F0F082
:101BD000F0F0F0F0F0F0F0F0C1C2C3C4C5C6F0F010
:101BE000F0F0F0F0F0F0F000616263646566676841
:101BF000696B6A2F2A2E2D202122232425262728AF
:101C0000294F2C512B57495501020304050607089B
:101C1000090A0B0C0D0E0F101112131415161718BC
:101C2000191A5259545045C7C8C9CACBCCCDCECFCA
:101C3000DFE7E8E9EAECEDD0D1D2D3D4D5D6D7D8D6
:101C4000D9DADBDCDDDEC080BD9DB1B5B9B49EB2B2
:101C5000B6BABE9FB3B7BBBFA385A4A5A694878819
:101C60009C82988492908391819A97939589A1AF51
:101C70008B8696A2ABAA8A8EB0AD8DA7A8A98F8CB1
:101C8000AEAC9BA099BCB8403B3A703C715A3D4306
:101C9000563F1E4A1C5D3E5C1F5F5E377B7F367A77
:101CA0007E334B4C1D6C5B7841353474303875395C
:101CB0004D6F6E3277767273477C53314E6D484666
:101CC0007D441B587942604D5A46204552524F522E
:101CD0000053504545443D00545950453D00524540
:101CE000434F52443D004E4F20454E5452590044FC
:101CF0004952204641494C004E4F5420444952001D
:101D0000000020002300260029002C002F003200B4
:101D1000000100000301060109010505050507058D
:101D200008080808020202020A0A08080404040457
:101D30000101010101010101030303030303030383
:101D4000040707070C0C0C0C0C0C0C0C0202020212
:101D500006060606060606060B0B0B0B0B0B0B0BFB
:101D600001021020200808102040102040800201AD
:101D70000201080402010102040810204080804092
:101D80002010080402018004020180402010080491
:101D9000020108040201010204081020408001022F
:101DA00004081020408000000A0B02090C0D0E08E8
:101DB0000703040100000000000000000000000014
:101DC0000000000000000000000000000000000013
:101DD00000001211100000000000000000000000D0
:101DE0000000000000000000000000009EF0112430
:101DF0001FBECFEFD1E2DEBFCDBF00E00CBF13E0CE
:101E0000A0E0B2E0EAE0FAE002E00BBF02C0079017
:101E10000D92AA36B107D9F728E1AAE6B3E001C0CE
:101E20001D92A833B207E1F71EE0C7EFDEE000E045
:101E300006C021970109802FFE010F94FB02C63FC7
:101E4000D10780E00807A9F70E94EEF00D94030582
:101E50000C9400008091D50491E089278093D504EB
:101E60001092D604109212041092110410920D04D4
:101E700010920E0410920F041092100410920C0491
:101E800010920B0410920A04109209041092080494
:101E900008958F929F92AF92BF92CF92DF92EF926E
:101EA000FF92CF93DF939091DB04292F30E0F9016B
:101EB000EC51FB4F4081411165C0A901440F551FF2
:101EC000DA01AC5AB24FCD91DC9111978090E004C9
:101ED0009090E104A090E204B090E30475016401E5
:101EE0006FEFC61AD60AE60AF60ABE016F5F7F4F89
:101EF0002097F9F4220F331F220F331FF901EB5EF5
:101F0000FB4F80829182A282B38291113DC021E079
:101F100030E03093550D2093540D80931912C092E8
:101F2000E004D092E104E092E204F092E30481E064
:101F30001EC029E132E1992311F024E030E14C5A2E
:101F4000524FDA016D937C93C20FD31F8883C092E6
:101F5000E004D092E104E092E204F092E30481E034
:101F60006115724021F4808398279093DB04DF9100
:101F7000CF91FF90EF90DF90CF90BF90AF909F9068
:101F80008F90089580E0F3CF21E030E02D933C93D3
:101F900080930410C4CF20912B0230912C02821721
:101FA000930710F090E080E0109220011092210140
:101FB00020912B0230912C022150310930932901BC
:101FC00020932801909325018093240182E08ABB0D
:101FD0008091730082608093730080912A028860F0
:101FE00080932101089520910104309102044091D1
:101FF0000104509102046091030470910404461B93
:10200000570B4F3F574069F0F901F770E15DFA4F08
:1020100080832F5F3F4F309302042093010481E0BF
:10202000089580E0089580910004882349F0829506
:10203000807F0E94F30F882321F0109200040895FE
:1020400081E0089582E08ABB0E941310811102C0D2
:1020500080E0089582E00E94F30F8823C9F391E0A5
:102060009093050408959FB7F8948091BB039FBF98
:1020700090E00895009711F481E090E020919400A1
:1020800030919500820F931F90939B0080939A004C
:1020900008954FB7F8942091B9033091BA03809115
:1020A000B7039091B8034FBF821B930B0895CF9253
:1020B000DF92EF92FF920F931F93C090F203D090A4
:1020C000F303E090F403F090F50397018601009587
:1020D000109520953095061717072807390790F4B3
:1020E0008FEF9FEFDC018093F2039093F303A093B3
:1020F000F403B093F5031F910F91FF90EF90DF90E1
:10210000CF900895DC01CB018C0D9D1DAE1DBF1D30
:10211000EACFE82F8BEF8E0F833048F4E550FF0BAA
:10212000EE0FFF1FE251FA4F85919491089584EFCD
:1021300095E008950F931F93282F8091EE03882335
:1021400009F44BC09091E003921346C00091EA035A
:102150001091EB032091EC033091ED034091B70E09
:102160005091B80E6091B90E7091BA0E0417150710
:102170002607370789F5913051F54091E6035091D4
:10218000E7036091E8037091E9038091960E9091C6
:10219000970EA091980EB091990E481759076A07AB
:1021A0007B07D1F44091E2035091E3036091E40393
:1021B0007091E5038091920E9091930EA091940EF0
:1021C000B091950E481759076A077B0729F481E0FB
:1021D0009091EF03911101C080E01F910F9108953C
:1021E0008091FA0E9091FB0E0E94FC6D882369F09D
:1021F00080910412909105120E94FC6D882329F0B1
:102200008091D00E9091D10E089590E080E00895D5
:1022100080910412909105120E94FC6D882329F090
:102220008091D20E9091D30E089590E080E00895B1
:102230008091FA0E9091FB0E0E94076E81110C9412
:10224000C06680E008954F925F926F927F92AF9246
:10225000BF92CF92DF92EF92FF920F931F93CF9393
:10226000DF93FA01C489D589C217D30789F0F12C0D
:102270008F2DDF91CF911F910F91FF90EF90DF9005
:10228000CF90BF90AF907F906F905F904F900895E8
:10229000270138018A015B016C01C301B7010E946B
:1022A000687EF82E882319F3BE01C8010E94685C7D
:1022B000B092D10EA092D00ED092D30EC092D20E78
:1022C00010929A0ECE01B0E0A0E08093AF0E9093F2
:1022D000B00EA093B10EB093B20E4092A70E5092E2
:1022E000A80E6092A90E7092AA0E840D951DA61DCF
:1022F000B71D8093AB0E9093AC0EA093AD0EB09330
:10230000AE0E109293031092A30E1092A40E109290
:10231000A50E1092A60E1092850E0E944462A8CFC0
:10232000AF92BF92CF92DF92EF92FF920F931F93E3
:10233000CF93DF935C01009709F462C068177907B7
:1023400008F45EC0FA01C489D589C217D30709F021
:1023500057C067017801CA018B01BE010E94685C09
:102360001093D10E0093D00EB092D30EA092D20E45
:10237000CE01B0E0A0E08093AF0E9093B00EA0939A
:10238000B10EB093B20E1092A70E1092A80E10923A
:10239000A90E1092AA0E8093AB0E9093AC0EA09350
:1023A000AD0EB093AE0EC0928C0ED0928D0EE09218
:1023B0008E0EF0928F0E1092880E1092890E10924F
:1023C0008A0E10928B0E81E080939A0E10929303E6
:1023D0001092A30E1092A40E1092A50E1092A60EAB
:1023E0001092850E0E94446281E0DF91CF911F918F
:1023F0000F91FF90EF90DF90CF90BF90AF90089536
:1024000080E0F3CF0F931F93CF93DF931F92CDB74D
:10241000DEB700E001C0082F10E040918F0350911B
:10242000900360919103709192038091B70E909107
:10243000B80EA091B90EB091BA0E481759076A07A5
:102440007B0740F000E0802F0F90DF91CF911F912C
:102450000F910895CE0101960E943180882391F357
:1024600099819923C1F20023B9F2963121F41F3FDB
:10247000A1F21F5FD2CF953A61F6123050F2E3CF4E
:102480007F928F929F92AF92BF92CF92DF92EF9204
:10249000FF920F931F93CF93DF9300D01F92CDB77E
:1024A000DEB7782E6B015A01490165EA90E080E0C1
:1024B0000E94865C7C010E9402128823B9F0CE0142
:1024C00001960E943180882389F0CE0102960E94F5
:1024D0003180882359F0CE0103960E9431808823F1
:1024E00029F06981711004C0662331F020E048C0F2
:1024F000862F8B7F8130D1F70A811B81C801F501BE
:1025000091838083711003C08034910579F7C701EE
:102510000E94865C602F0E94865C612F0E94865C10
:102520007C0180918F0390919003A0919103B091D1
:102530009203F40180839183A283B38310E000E0CF
:10254000F501808191810817190768F1CE01049681
:102550000E943180882351F26C81C7010E94865C01
:102560008C01CE0104960E943180882309F4BECFED
:102570006C81C8010E94865C21E0892B09F0B6CFEE
:10258000822F0F900F900F900F90DF91CF911F919E
:102590000F91FF90EF90DF90CF90BF90AF909F9002
:1025A0008F907F900895CE0104960E9431808823F9
:1025B00009F49CCF6C81C114D10439F000341105A9
:1025C00020F4F601E00FF11F6083C7010E94865CD2
:1025D0007C010F5F1F4FB4CFCF92DF92EF92FF923B
:1025E0000F931F938091C103882389F10E94D3DE4A
:1025F0000091BD031091BE032091BF033091C00331
:10260000DC01CB01801B910BA20BB30B0091C20329
:102610001091C3032091C4033091C503680179016F
:10262000C094D094E094F094C816D906EA06FB064C
:10263000A8F0080F191F2A1F3B1F0093C203109315
:10264000C3032093C4033093C5031092C1031F91A9
:102650000F91FF90EF90DF90CF9008950FEF1FEF55
:102660009801EBCFCF93DF93C091EE0ED091EF0E98
:102670002297AC0161E170E088ED9EE00E94D6B047
:102680000E94EC120E94667584E090E09093EF0E39
:102690008093EE0E229720F40E94C066882329F0D2
:1026A00081E0DF91CF910C948172DF91CF910895F9
:1026B000CF93DF93C091EE0ED091EF0E229700974B
:1026C000F9F488ED9EE0009731F043EE55E061E1CA
:1026D00070E00E94C2B00E94EC120E94667584E015
:1026E00090E09093EF0E8093EE0E229720F40E94DC
:1026F000C066882379F081E0DF91CF910C948172DC
:1027000040E150E0BC0188ED9EE00F94AC041092D3
:10271000E80EE1CFDF91CF9108950E94EC128091F5
:10272000EA0E9091EB0EA091EC0EB091ED0E009799
:10273000A105B10541F08093C2039093C303A09318
:10274000C403B093C50308958091C10381110DC0E6
:102750000E94D3DE6093BD037093BE038093BF03DA
:102760009093C00381E08093C10308954F925F92DC
:102770006F927F928F929F92AF92BF92CF92DF9291
:10278000EF92FF92CF93DF93EC019A01AB0160913E
:102790001102709112028130910541F060910F0297
:1027A00070911002039711F46CE775E12B01712C05
:1027B000612C64E170E0C130D10511F468E270E091
:1027C0004B01B12CA12C880C991CAA1CBB1CA9E0A4
:1027D000B0E00F9412036B017C0124E1C20ED11C06
:1027E000E11CF11CC40CD51CE61CF71C0E946D6397
:1027F000882329F0229722E630E0229710F022E089
:1028000030E0C80CD91CEA1CFB1CC701B601620FE2
:10281000731F811D911DDF91CF91FF90EF90DF908D
:10282000CF90BF90AF909F908F907F906F905F9070
:102830004F9008952F923F924F925F926F927F92A6
:102840008F929F92AF92BF92CF92DF92EF92FF92C0
:102850000F931F93CF93DF93CDB7DEB764970FB677
:10286000F894DEBF0FBECDBF2C011B013A01088BCF
:10287000198B2A8B3B8BAC8A8B828130910509F0B6
:102880004CC000911102109112021A83098308E2D0
:1028900010E049815A819A0150E040E02C833D8349
:1028A0004E835F83C801B0E0A0E0280F391F4A1FA4
:1028B0005B1F288739874A875B87280F391F4A1F84
:1028C0005B1F2C873D874E875F8749015A0152E085
:1028D000850E911CA11CB11CA9E0B0E09601A701D6
:1028E0000F941203AB01BC01F1013197ED30F105FA
:1028F00008F035C18827E058FB4E8F4F0D94FB023E
:102900009B14C014D114DE14F314F314F314331510
:10291000331533156D15AF159215039749F00091D6
:102920000F02109110021A83098304E110E0B1CF65
:102930000CE715E1F8CF09811A81B801661977090A
:102940006016710610F070E060E090E080E0649640
:102950000FB6F894DEBF0FBECDBFDF91CF911F91B0
:102960000F91FF90EF90DF90CF90BF90AF909F902E
:102970008F907F906F905F904F903F902F90089531
:102980006016710658F4061917096C817D818E81D5
:102990009F81600F711F811D911DD9CF10E000E054
:1029A000F4CF6016710638F4061917096885798521
:1029B0008A859B85EECF10E000E0F8CF82E090E0C2
:1029C0008619970912E06116710410F090E080E01A
:1029D0000C851D852E853F85080F191F211D311D72
:1029E000C901B801B4CF26013701088919892A899C
:1029F0003B89041515052605370510F42801390112
:102A0000A9E0B0E0A30192010F94120391012650B6
:102A100031092230310510F5452846284728F1F0C4
:102A2000AB01BC01495051096109710988E090E08E
:102A3000A0E0B0E016E02116310441F428E030E0D7
:102A40000C89201B3109C901B0E0A0E08A019B017B
:102A5000080F191F2A1F3B1FC901B801680D791DF6
:102A60008A1D9B1D74CF840E951EA61EB71E4B811A
:102A7000433008F042E050E09A01A9E0B0E00F9442
:102A8000030391012950310922303105B8F41B812B
:102A90001123A1F09A01215031090F94030329E079
:102AA00022163104A9F408E010E03C89031B110947
:102AB00030E020E0600F711F821F931F63317105AA
:102AC0008105910558F262E170E080E090E0C6CFA8
:102AD00008E010E020E030E0EDCF6A017B0182E108
:102AE000C80ED11CE11CF11C0E946D63882349F0C3
:102AF00092E0491A510882E690E0A2E04A16510499
:102B000010F082E090E06816790648F4861997097B
:102B1000C80CD91CEA1CFB1C970186015DCF90E014
:102B200080E0F6CFA601B701C20164960FB6F89413
:102B3000DEBF0FBECDBFDF91CF911F910F91FF90F0
:102B4000EF90DF90CF90BF90AF909F908F907F904D
:102B50006F905F904F903F902F900C94B61360E071
:102B600070E0CB01F4CE8F929F92AF92BF92CF9242
:102B7000DF92EF92FF920F931F93CF93DF9300D0DA
:102B800000D000D01F92CDB7DEB71D821E821F82FB
:102B900018861092B30E1092B40E1092B50E1092C9
:102BA000B60E10929503109296031092970310920E
:102BB000980334E0C32E30E1D32EF12CE12C812C8C
:102BC000912C540110E0F60181916F010E946E5E1C
:102BD000880E911CA11CB11CE80EF11C1F5F10385F
:102BE00091F7CE0105966C019501840140E850E013
:102BF00060E070E081E00E947E5E882389F1609150
:102C00009F0E7091A00E8091A10E9091A20E0E9435
:102C1000B87E882329F160919B0E70919C0E809163
:102C20009D0E90919E0E9E01275F3F4FAE014F5F1C
:102C30005F4F0E94A185882399F0E984FA84098175
:102C40001A812B813C8140919B0E50919C0E60918A
:102C50009D0E70919E0E80E00E947E5E811115C0D7
:102C600010E0812F2A960FB6F894DEBF0FBECDBFBD
:102C7000DF91CF911F910F91FF90EF90DF90CF9058
:102C8000BF90AF909F908F9008958D819E81AF816E
:102C9000B8858F3FFFEF9F07AF07BF0739F0019659
:102CA000A11DB11DB695A795979587958093B30EF5
:102CB0009093B40EA093B50EB093B60E60919F0E94
:102CC0007091A00E8091A10E9091A20E0E94B87EEC
:102CD000182F8111C6CF66E070E084E994E00E946D
:102CE000FA7BBFCF0F931F93CF93DF938091061290
:102CF000813029F080910612833009F090C0109243
:102D00007A038091840E882379F181E080936E03A9
:102D100010929403E091B20FF091B30F309711F03D
:102D20008FEF19950E94B315882309F46DC0609147
:102D30009F0E7091A00E8091A10E9091A20E009115
:102D4000A30E1091A40E2091A50E3091A60E600F37
:102D5000711F821F931F0E94B87E882309F454C0FC
:102D600010926E031092840E82E08093061280917E
:102D7000820E9091830E049719F080E00E94817278
:102D8000C091790ECC2309F458C01092800E81E0D6
:102D90009091740E911101C080E00E94C8711FB71C
:102DA000F8948091750ED0E3811101C0D0E082E0EB
:102DB0008093181281E00E94B67285E088BBD360D0
:102DC000D0939000809171008A7F809371008091F0
:102DD000750E882329F080917100846080937100C2
:102DE0008091780E882321F08091770E882329F036
:102DF0008091710081608093710089E180939100DE
:102E00001092790E1FBF13C010926E03C0917A0307
:102E1000CC2339F01092071281E080930612C0E0B3
:102E200006C066E070E080EF94E00E94FA7B8C2F91
:102E3000DF91CF911F910F9108958091820E909113
:102E4000830E049731F4DF91CF911F910F910C9471
:102E5000D371DF91CF911F910F910C9450732F92EA
:102E60003F924F925F926F927F928F929F92AF921A
:102E7000BF92CF92DF92EF92FF920F931F93CF9367
:102E8000DF93CDB7DEB7C657D1090FB6F894DEBFD2
:102E90000FBECDBF8C01E0900412F090051240905F
:102EA000B70E5090B80E6090B90E7090BA0E109296
:102EB000840E019711F410E000E0C8010E94875DC4
:102EC00080919A0E81114BC10E94E17060939F0E18
:102ED0007093A00E8093A10E9093A20E8091AF0EDE
:102EE0009091B00EA091B10EB091B20E80939B0E56
:102EF00090939C0EA0939D0EB0939E0E1093CF0EB8
:102F00000093CE0E80910412909105120E94FC6DE8
:102F1000811129C11092BB0E80910412909105126B
:102F20008330910519F4EE24E394F12C0E94FC6D9A
:102F30008823C1F080919A0E882309F43EC1409005
:102F4000AF0E5090B00E6090B10E7090B20E109215
:102F50009503109296031092970310929803EE2413
:102F6000E394F12C40919F0E5091A00E6091A10E20
:102F70007091A20EE3964CAF5DAF6EAF7FAFE3975B
:102F80000E9492620115110509F47EC3C8010B97D6
:102F9000049708F479C3EA94EF2809F040C284E06A
:102FA00090E1892B09F43BC220910410213019F0E3
:102FB000263709F034C22093C70F81E1E5E0F0E144
:102FC000A8ECBFE001900D928A95E1F740911610B0
:102FD000509117105093C20F4093C10F20901810BA
:102FE000309019103092C40F2092C30F60911A10C4
:102FF00070911B107093C60F6093C50F3DE0E6E122
:10300000F0E1A9EDBFE001900D923A95E1F7E3966A
:10301000CCACDDACEEACFFACE397C092E60FD09247
:10302000E70FE092E80FF092E90F4115510509F41E
:10303000F6C14101B12CA12CBA0190E080E0E796E5
:103040006CAF7DAF8EAF9FAFE7976A017C01C80C74
:10305000D91CEA1CFB1C71E0C716D104E706F10479
:1030600008F0DDC1E7968CAD9DADAEADBFADE79785
:10307000E3964CAD5DAD6EAD7FADE397840F951FCC
:10308000A61FB71F481659066A067B0608F4C7C173
:103090000F30110509F473C6A80146505109433099
:1030A000510508F46CC60031110509F49BC698015E
:1030B000295031092230310508F486C20330110548
:1030C00009F43EC20430110509F0DBC111E52114F9
:1030D00050E1350608F413E50E944763180F1F5F9F
:1030E000412E512C712C612CD301C201885F9E4E60
:1030F000AF4FBF4F69E0C61661E1D606E104F104A7
:1031000008F46CC088169906AA06BB0608F066C0CB
:103110008091C30F9091C40FB0E0A0E02091C10F47
:103120003091C20FAC01BD01420F531F611D711DD3
:103130004130504C6105710508F067C1612F80E096
:1031400090EC0E94E166882309F469C185E090E073
:103150009093BC0F8093BB0F80E090EC4FC060E079
:1031600070E0CB01B3CE85E090E1892B09F18BEBC8
:103170009EE0009709F4D0CEA5E0B0E1FC018D916E
:1031800081932EE0EC3CF207D1F71092CC0E41E097
:1031900061E18BEB9EE00E9421698111BDCE4DE97A
:1031A00054E062E170E08BEB9EE00E94C2B0B4CECE
:1031B0008BEB9EE0892B99F7AFCE4090AB0E5090F1
:1031C000AC0E6090AD0E7090AE0E1092B30E1092D9
:1031D000B40E1092B50E1092B60EB9CE612F88E0E3
:1031E00091E10E94E166882309F492CF84E090E0A7
:1031F0009093BC0F8093BB0F88E091E19093BE0F3A
:103200008093BD0F812F90E09093C00F8093BF0FEC
:1032100081E08093B40F0E946262882309F46AC23D
:1032200088EC9FE0892B09F4E9C0D090C50FE090AD
:10323000C60FB090C30FC090C40F9090C10FA09064
:10324000C20FF090BF0F0091BD0F1091BE0F6F2DF8
:10325000C8010E94C2DA882309F4D0C00E944DDB65
:10326000811101C081E0075B1F4F6FEA60931C1062
:1032700091E290931D1010921E1050ED50931F106C
:1032800077E77093201021E12093211041E04093D3
:103290002210509323104093241037EE30932510C2
:1032A00033E0309326103DEE30932710E0EBE093AF
:1032B00028109093291000932A1010932B1020931C
:1032C0002C1010922D1050932E1040932F1080939D
:1032D00030101092311030933210E093331086E1A9
:1032E0008093341084EE809335104EE14093361075
:1032F00040EE40933710909338101092391010928E
:103300003A104AE440933B1030933C1059E75093F5
:103310003D104EE740933E104BE440933F103093F6
:103320004010509341107093421033E23093431099
:103330003BEC3093441034E63093451038E2309340
:10334000461033EF309347103EE33093481035E199
:103350003093491032E330934A1040934B103AE0D7
:1033600030934C1090934D1090924E10A0924F10AD
:1033700032E23093501042E04093511020935210AB
:1033800090935310B0925410C09255103093561031
:1033900094E090935710209358109DEC90935910FF
:1033A0009AE290935A1010925B109AED90935C10F1
:1033B0009EEF90935D1010925E1060935F1093EDFE
:1033C000909360108093611083EC80936210D09290
:1033D0006310E09264100E944DDB28EC3FE0A5E60C
:1033E000B0E190E0811179C1E7EEFBE1E491E09377
:1033F000651081E0875BF81609F4A3C167E070E00F
:1034000082ED94E00E94FA7B20C0F0EC5F0E611C1C
:10341000711C84159505A605B70508F08FCE0E948E
:10342000926290E080E00E94875D1092CF0E109231
:10343000CE0E80910412909105120E94FC6D8111B4
:1034400023C10E9425878111FDC010E0812FCA5839
:10345000DF4F0FB6F894DEBF0FBECDBFDF91CF9127
:103460001F910F91FF90EF90DF90CF90BF90AF90A2
:103470009F908F907F906F905F904F903F902F9094
:1034800008950530110509F089C088EC9FE010E02F
:10349000892B39F00E944DDB811101C081E019E4D4
:1034A000180F8FEF810F883608F0B9CF412E512CBD
:1034B000712C612CD301C201885F9E4EAF4FBF4F6C
:1034C00029E0C21621E1D206E104F10428F18816B0
:1034D0009906AA06BB0600F58091C30F9091C40F10
:1034E000B0E0A0E02091C10F3091C20FAC01BD014E
:1034F000420F531F611D711D4130504C6105710514
:10350000A8F4612F80E090EC0E94E166882309F422
:1035100086CF87E090E01CCE612F88E091E10E9489
:10352000E1668823C9F286E090E062CE40EC540E5A
:10353000611C711C84159505A605B70510F76FCFA2
:1035400051E1C516D506E104F10428F060E726161E
:1035500061E1360688F083E090E09093BC0F8093A1
:10356000BB0F1092B80F80E191E19093BE0F809352
:10357000BD0F80E690E048CE71E0C71670ECD7062C
:10358000E104F10408F04BCF83E090E09093BC0F8E
:103590008093BB0F81E08093B80FE5CFB1E0CB16ED
:1035A000B1E1DB06E104F104A8F581E090E090933D
:1035B000BC0F8093BB0F80E091E19093BE0F80938E
:1035C000BD0F85E590E004C4E1E0CE16E4EDDE0633
:1035D000E104F10440F0FAE58F16F4ED9F06A10432
:1035E000B10408F41CCF90E080E04B30510528F482
:1035F0004D515D4FDA018C9190E09093BC0F809318
:10360000BB0F80E094ED9093BE0F8093BD0F8AE5D1
:1036100090E0DEC3B5E58B16B1E19B06A104B104D1
:1036200020F6E1E0CE16E0ECDE06E104F10408F05D
:10363000F6CE82E090E09093BC0F8093BB0F80E0C9
:1036400090ECBBCF0E94C681882309F4FECE809106
:10365000950390919603A0919703B09198038F3FA3
:10366000FFEF9F07AF07BF0739F00196A11DB11DFE
:10367000B695A795979587958093B30E9093B40EC2
:10368000A093B50EB093B60E80919A0E882309F4DC
:1036900066C31092950310929603109297031092AE
:1036A00098031092A30E1092A40E1092A50E1092E1
:1036B000A60E0E94446260919F0E7091A00E8091B0
:1036C000A10E9091A20E0E94B87E182F811139C3CD
:1036D00066E070E086EB94E052C09F5FF901419193
:1036E0009F01E42FF0E0E953F44EE491ED93891348
:1036F000F4CF80CE0E947262882309F443C068E64A
:1037000070E0CE0101960E9497638C018091BF0FFB
:103710009091C00F0817190709F070CE602F8091A3
:10372000BD0F9091BE0F0E94C2DA882309F466CEC5
:10373000A8015527BE016F5F7F4F8CE190E10F9488
:1037400085040E9482628111D1C00E94B4668111F9
:10375000CDC00E946262182F8111C8C060E072E083
:1037600089E192E10E9497639C01215031092F3F2A
:10377000374008F483C067E070E08CEA94E00E9470
:10378000FA7B64CE0091BB0F1091BC0FC8010E9460
:103790008963E090BD0FF090BE0F0330110511F06A
:1037A0008823C9F09BEB909304101092161010928E
:1037B00017101092181092E190931910E0921A10BD
:1037C000F0921B1081112EC08091C70F80931C10A6
:1037D0008091C20F34C0C8010E945F632091BF0F67
:1037E0009091C00F882309F43CC020931610909349
:1037F0001710E0921810F0921910E0921A10F0923F
:103800001B108CE190E1009709F49BCFE4EAF4E00F
:10381000DC0184E290E124912D9331968A179B0775
:10382000D1F78FCF81E080931C100950110981E1FD
:103830000530110520F402511D4FD8018C91809361
:103840001D1086E0E9EDFFE0AEE1B0E101900D92E0
:103850008A95E1F760E670E084E290E10E94976368
:1038600070CF2093161090931710E0921810F092DA
:103870001910E0921A10F0921B1063CFE9E1F2E107
:1038800030E020E04191D901A15DBA4F4C932F5F08
:103890003F4F82179307B1F72FB7F89410927F0329
:1038A00010927E039093700380936F0331E0309306
:1038B00001022FBFB0E0A0E08093AF0E9093B00E56
:1038C000A093B10EB093B20E8093A30E9093A40E6A
:1038D000A093A50EB093A60E1092AB0E1092AC0E54
:1038E0001092AD0E1092AE0E1092850E0E94996647
:1038F000882309F40CC23E01E9E66E0E711CD30167
:103900001D921D921D921C921397A4E0EA2EA0E135
:10391000FA2E10E000E0212C312C2101F7018191D9
:103920007F010E946E5E280E311C411C511C080F45
:10393000111DF4E8EF16F0E1FF0681F729823A82C3
:103940004B825C82AF961FAF0EAFAF9780900C0298
:10395000912CA0900E02B12CC0901102D0901202B6
:10396000F12CE12C7F926F92209108023091090294
:103970008091060290910702B0E0A0E0820F931FB1
:10398000A11DB11DBF93AF939F938F93209104020C
:10399000309105028091020290910302B0E0A0E014
:1039A000820F931FA11DB11DBF93AF939F938F9360
:1039B0001F9282E08F931F921F9280910A021F92A2
:1039C0008F93A201910160E870E080E090E00E9496
:1039D000B5600FB6F894DEBF0FBECDBF811113C026
:1039E00080910612863009F430CD809104129091B6
:1039F00005120E94FC6D882309F486C187EC94E0CF
:103A000067E070E0FFCC0E946D63882309F483C0F7
:103A100060E072E089E192E10E9497635C01892B8A
:103A2000F9F28091B40F8823D9F28091BF0F909161
:103A3000C00FA816B906A1F6F9E1CF2EF2E1DF2EEC
:103A400010E000E0212C312C2101C6018951924166
:103A50008A159B0560F4D6018D916D010E946E5E02
:103A6000280E311C411C511C080F111DEECF29825C
:103A70003A824B825C82AF961FAF0EAFAF978090B9
:103A80000B02912C80910D02A82FB0E0C0900F0284
:103A9000D0901002F12CE12CB50190E080E07F92F3
:103AA0006F92E0910802F091090220910602309194
:103AB000070250E040E02E0F3F1F411D511D5F9354
:103AC0004F933F932F93E0910402F09105022091D0
:103AD00002023091030250E040E02E0F3F1F411DD3
:103AE000511D5F934F933F932F931F921F921F92ED
:103AF00022E62F9320910A021F922F935D01A201CB
:103B000091010E94B5600FB6F894DEBF0FBECDBF25
:103B1000882309F465CF60919F0E7091A00E80916B
:103B2000A10E9091A20E0E94B87E882309F458CF6E
:103B300060919B0E70919C0E80919D0E90919E0EB7
:103B40009E0123593F4FAE014F5F5F4F0E94A185F9
:103B5000182F882309F463C0AF960EAD1FADAF9741
:103B600029813A814B815C8120909B0E30909C0E84
:103B700040909D0E50909E0EE091BB0FF091BC0FB7
:103B80003697E930F10508F0BDC08827E553F24EBD
:103B90008F4F0D94FB02611E611EE21DDB1D7B1E1B
:103BA000751E6E1ED41D681E92E080E0EFE3FCE3FC
:103BB00067E27FE10DC092E080E0E8EFF8E169E4C0
:103BC0007DE006C092E080E0E4E1F5E165E27CE0C2
:103BD0007F926F921F921F92FF93EF931F921F92FB
:103BE0007F936F931F929F931F928F931F9282E0F8
:103BF0008F9364E1862E912C74E1A72EB12CECE713
:103C0000CE2EE5E1DE2EE12CF12CC201B1010E94A5
:103C1000B560182F0FB6F894DEBF0FBECDBF609110
:103C20009F0E7091A00E8091A10E9091A20E0E9405
:103C3000B87E882309F4D4CE112309F4D1CE0E9492
:103C400062628823B1F0F30180819181A281B38106
:103C5000803EFCEF9F07FFEFAF07BF0708F0C0CE25
:103C6000805E9C4FAF4FBF4FF30180839183A2834F
:103C7000B383F30180819181A281B3818F3FFFEFF4
:103C80009F07AF07BF0739F00196A11DB11DB6957B
:103C9000A795979587958093B30E9093B40EA093B4
:103CA000B50EB093B60E0E94B466811105C00E9495
:103CB0006262882309F44DC00E94F888811149C0CE
:103CC000C4CB92E080E0E0E0F4E160E07AE080CF15
:103CD00090E082E6EEE9FEE36FE46BCF90E082E6EF
:103CE000E8E5F3E26CEA71E173CF90E082E6E0E4AC
:103CF000FAE160E265CF92E080E0EDEEFEE16EEC8D
:103D00007FE066CF10E08BCF8EEB94E079CE809190
:103D10000412909105120E94FC6D1092B30E109245
:103D2000B40E1092B50E1092B60E882309F4BBCFD4
:103D30001092950310929603109297031092980395
:103D4000B2CF0E94BD88882309F47FCB81E08093A5
:103D5000840E81E090E00E94D25C11E077CB8091EC
:103D60000412909105120E94FC6D811103C00E9403
:103D7000BD88A4CF0E94B3158111F9CF66CB213045
:103D800009F04DCB81E1C816D806E104F10440F0FA
:103D900090E7891691E19906A104B10408F43FCB9C
:103DA0000650110990E080E00B30110528F40D5108
:103DB0001D4FD8018C9190E09093BC0F8093BB0F66
:103DC00080E191E19093BE0F8093BD0F80E690E07B
:103DD0002091BB0F3091BC0F2230310509F014CA7D
:103DE0000F9612CA21E0C21624EDD206E104F104B6
:103DF00008F4FECB3AE5831634ED9306A104B10432
:103E000008F40DCBF5CBCF92DF92EF92FF920F9398
:103E10001F93CF93DF931F921F92CDB7DEB7E09031
:103E2000820EF090830E81E0E816F10409F04AC09A
:103E30000E946262882381F08091850E811106C004
:103E40000E94F888811102C010E025C083E090E054
:103E50000E94D25C11E01FC00E948262182F88234A
:103E600051F10E947262882311F180E00E9469750D
:103E700081E00E94C87184E090E09093830E80936B
:103E8000820E1092810E1092800E10927F0E109270
:103E90007E0E10927D0E812F0F900F90DF91CF91AB
:103EA0001F910F91FF90EF90DF90CF90089581E0E8
:103EB0000E946975E0CF0E94B4668111BDCF82E097
:103EC00090E0C6CF82E0E816F10421F40E949966E2
:103ED0008111B6CFC7010297029738F067E070E012
:103EE00086EE94E00E94FA7BAFCF82E0E816F10400
:103EF00029F40E94C066182F8111D9CF8091041235
:103F0000909105128230910509F060C00E94E17025
:103F10000091B70E1091B80E2091B90E3091BA0EE3
:103F2000601771078207930768F48091D20E909111
:103F3000D30E009739F02091D00E3091D10E821718
:103F4000930720F084E08093061284CF60919F0E47
:103F50007091A00E8091A10E9091A20E00919B0EE7
:103F600010919C0E20919D0E30919E0E600F711F3E
:103F7000821F931F0E94687E182F811107C066E080
:103F800070E08DED94E00E94FA7B85CF8091D20E97
:103F90009091D30E01969093D30E8093D20E0E94EF
:103FA000C681882309F450CFBE016F5F7F4F809197
:103FB000D20E9091D30E0E94FB91882309F444CF36
:103FC00089819A810E942F17182F65CF089709F4CD
:103FD000B9CF82E0E816F10409F0B4CF0E94E17095
:103FE0000091B70E1091B80E2091B90E3091BA0E13
:103FF000601771078207930708F0A4CF6801790161
:10400000C61AD70AE80AF90AB701A6014093AF0E0B
:104010005093B00E6093B10E7093B20E0093AB0E3E
:104020001093AC0E2093AD0E3093AE0E1092A30EF3
:104030001092A40E1092A50E1092A60E0E94446239
:104040000E94BD88882309F4FFCE39CF2F923F927A
:104050004F925F926F927F928F929F92AF92BF9298
:10406000CF92DF92EF92FF920F931F93CF93DF9344
:10407000CDB7DEB7CA5AD1090FB6F894DEBF0FBE6E
:10408000CDBF1C0181E00E949A10C956DF4F888382
:10409000C759D040882309F427C18091EF03282F06
:1040A00030E03093D10E2093D00E2114310421F54D
:1040B000C956DF4F1882C759D040C956DF4F888193
:1040C000C759D040C655DF4F0FB6F894DEBF0FBEBC
:1040D000CDBFDF91CF911F910F91FF90EF90DF90B7
:1040E000CF90BF90AF909F908F907F906F905F9098
:1040F0004F903F902F90089522153305C8F20FEF8F
:10410000020D0817A8F68091E1038093910E26E036
:10411000029F2001112482010A571F4EF201EB5722
:10412000FF4E808190E0B0E0A0E0BA2FA92F982F39
:104130008827F201EC57FF4E2081822BF801408145
:1041400050E070E060E0BA01552744274427552726
:1041500067707727842B952BA62BB72B80936A0348
:1041600090936B03A0936C03B0936D031092870E32
:104170001092860E65EA90E080E00E94865C60E026
:104180000E94865C60E40E94865C60E00E94865C1F
:104190006C017E01F1E4EF0EF11C5E0121E8A20E3C
:1041A000B11C37014701C7010E94A783882309F486
:1041B0007FCF3FEFE31AF30AD4016C91C6010E944E
:1041C000865C6C01EA14FB0469F7CE0101960E943B
:1041D000A783882309F46CCF6981C6010E94865C9D
:1041E0007C01CE0101960E94A783882309F460CF49
:1041F0006981C7010E94865C892B09F059CFF301C0
:1042000044895589CB56DF4F59834883C559D040DF
:10421000F201E857FF4E8081F201E957FF4EC0805E
:10422000D12CF12CE12CB5E0CC0CDD1CEE1CFF1CDC
:10423000BA95D1F7D8018C90912CB12CA12C13E018
:10424000B694A794979487941A95D1F7C828D9283B
:10425000EA28FB28882E912CB12CA12C0DE0880C8B
:10426000991CAA1CBB1C0A95D1F78824B0EE9B228E
:10427000B7E0AB22BB2487017601E828F9280A2998
:104280001B29C357DF4FE882F9820A831B83CD586D
:10429000D040F201E757FF4E2081E4E02E9F9001CD
:1042A000112490E066E0959587956A95E1F7282BB3
:1042B000392BA8EEB3E00F9403036093B30E709311
:1042C000B40E8093B50E9093B60E6091D00E70919F
:1042D000D10E9A01A301C1010E949011C956DF4F6E
:1042E0008883C759D040E9CE1092EE030E94336212
:1042F00000E0FF24FA948091900E002331F091E0C9
:10430000801708F490E0802F891B8093910E109203
:104310006A0310926B0310926C0310926D03F0927B
:1043200000021092870E1092860E0E94C983882385
:1043300009F411C265EA90E080E00E94865C6C019D
:10434000CE018F579F4F0E94A783882309F403C291
:10435000CE018F5B9F4F0E94A783882309F4FBC186
:10436000CE0101960E94A783882309F4F4C1CF5798
:10437000DF4F1881C158D040612FC6010E94865C72
:1043800022966FAD22970E94865C69810E94865CAE
:10439000892B59F610FDC9CF153638F6112309F4CB
:1043A000DEC11695612F70E07093D10E6093D00E30
:1043B0002114310409F4D3C16215730508F4CFC187
:1043C000F4E86F2EF0E17F2EC456DF4F1882CC59EF
:1043D000D040C656DF4F19821882CA59D0404424B3
:1043E0004394512CC356DF4F1882CD59D040C2564A
:1043F000DF4F1882CE59D040C156DF4F1882CF59B7
:10440000D040C056DF4F1882C05AD0408091D00EA5
:104410009091D10E8415950508F4B1C1F12CE12CD1
:1044200010E000E09E0127573F4FAE014D565F4F11
:10443000BE016F5F7F4F80E00E94F883882309F4FC
:104440008EC19E012F563F4F79018E010B571F4F92
:1044500024503109AE014B565F4F70E060E085E0BB
:104460000E94F883882309F47AC18D899E89C856F1
:10447000DF4F99838883C859D040CB56DF4F88815E
:104480009981C559D040C856DF4FA881B981C85914
:10449000D040A817B90709F062C1CF56DF4FE881B5
:1044A000F981C159D040CF55DF4FF983E883C15A14
:1044B000D040CB57DF4F88819981AA81BB81C558F5
:1044C000D040CD55DF4F88839983AA83BB83C35ADD
:1044D000D040CF57DF4F188219821A821B82C158F1
:1044E000D0408091950390919603A0919703B0914D
:1044F0009803C955DF4F88839983AA83BB83C75A22
:10450000D040C856DF4F68817981C859D040CE016C
:1045100001960E94685C04E010E1F12CE12C812CF2
:10452000912C5401D12CD8018D918D010E946E5E89
:10453000880E911CA11CB11CE80EF11CD394B0E8AC
:10454000DB12F1CFFE01EF57FF4F6F0195018401A0
:1045500040E850E060E070E081E00E947E5E182F4D
:104560008823D9F0C856DF4F28813981C859D040F7
:10457000A90170E060E0CF55DF4FE880F980C15AB3
:10458000D040CD55DF4F088119812A813B81C35A24
:10459000D04080E00E947E5E182FC955DF4F888191
:1045A0009981AA81BB81C75AD0408093950390938B
:1045B0009603A0939703B0939803112309F4CFC0F7
:1045C000CF57DF4F688179818A819B81C158D04064
:1045D00068517C4F8F4F9F4F20ED37E040E050E017
:1045E0000F94D902211594E039074105510508F0CF
:1045F000B9C0CF57DF4F288339834A835B83C158C3
:10460000D040CF57DF4F288139814A815B81C15823
:10461000D04093E34916510409F4A1C0C757DF4FB6
:1046200088809980AA80BB80C958D04081149104A9
:10463000A8E0AA06B10408F092C0C357DF4FC880B3
:10464000D980EA80FB80CD58D040C114D104B8E0B5
:10465000EB06F10408F083C0C9012115E4E03E0730
:1046600010F08FEF93E0D3018C9211969C921197EA
:104670006C2D660F660F660F6A2912966C9312975F
:104680004601570165E0B694A794979487946A957C
:10469000D1F713968C921397682F6295660F660F69
:1046A000607C460157017DE0B694A7949794879467
:1046B0007A95D1F7682914966C93149796958795F7
:1046C0009695879515968C9342145304E9F580E4EA
:1046D000FE013196DE01AF5BBF4F01900D928A95CE
:1046E000E1F7CB56DF4FE881F981C559D040C65676
:1046F000DF4FF983E883CA59D04044275527A8EEF5
:10470000B3E00F9412036093B30E7093B40E8093D2
:10471000B50E9093B60EC456DF4F1883CC59D040D7
:10472000C356DF4FC882CD59D040C256DF4FD88222
:10473000CE59D040C156DF4FE882CF59D040C05645
:10474000DF4FF882C05AD040FFEF4F1A5F0A26E0D1
:10475000620E711C5BCE0F5F003109F0CCCD109260
:10476000B10FABCC8FEF93E0A0E0B0E0CF57DF4FBD
:1047700088839983AA83BB83C158D04042CFC45653
:10478000DF4F3881CC59D040332349F34091B70EE5
:104790005091B80E6091B90E7091BA0E4093EA0331
:1047A0005093EB036093EC037093ED034091960EEE
:1047B0005091970E6091980E7091990E4093E60378
:1047C0005093E7036093E8037093E9034091920EDE
:1047D0005091930E6091940E7091950E4093E20368
:1047E0005093E3036093E4037093E5039091910E7B
:1047F0009093E1038093EF0381E08093E003809343
:10480000EE030E9465DB6091D00E7091D10EC3560D
:10481000DF4FE880CD59D040C256DF4FF880CE59E7
:10482000D040C156DF4F0881CF59D040C056DF4F2E
:104830001881C05AD040C656DF4F28813981CA59E5
:10484000D040AE014F5B5F4F46CD1092FE041092F8
:10485000FD0410929F0FE0E5FDE0138212821182A9
:104860001082E8EFF4E0118210821092F7041092A7
:10487000F6041092F2041092F3041092F4041092D1
:10488000F5041092470D1092480D1092490D1092A8
:104890004A0D10924B0D10924C0D10924D0D10922E
:1048A0004E0D1092E9041092EA041092EB0410925B
:1048B000EC041092FC041092F00410924F0D109230
:1048C000FA041092F1041092200410921F04109226
:1048D0001E041092460D1092450D1092EF04109296
:1048E000EE041092ED041092E80408958091F6040D
:1048F000E82FF0E0DF01AA0FBB1FA05BB24F2D91A4
:104900003C91232B51F0E850FB4F9081911105C051
:1049100091E0908389278093F6040895BF92CF9207
:10492000DF92EF92FF920F931F93CF93DF93B0909C
:10493000F704CB2DD0E0CE0188509B4F6C01FC01D9
:10494000008101110CC011E0812FDF91CF911F91E7
:104950000F91FF90EF90DF90CF90BF9008950E944D
:104960005F71182F8111EFCFCC0FDD1FFE01E05BCF
:10497000F24FE080F180C70101978115924070F5F8
:1049800089E192E1BB2011F084E090E1B7010E943F
:10499000617F8E159F0511F58091F2049091F304CB
:1049A000A091F404B091F5048E0D9F1DA11DB11DC1
:1049B0008093F2049093F304A093F404B093F5046D
:1049C000C05BD24F19821882F60110828091F704E1
:1049D00091E089278093F704102FB6CF8DE999E0F5
:1049E0000E9434BCB1CFCF93DF939091F604E92FAE
:1049F000F0E0DF01A850BB4F2C91211133C029E119
:104A000032E1992311F024E030E1EE0FFF1FE05B6B
:104A1000F24F40815181EA012196D183C083240F56
:104A2000351FF90180834091470D5091480D6091E9
:104A3000490D70914A0D4F5F5F4F6F4F7F4F40930D
:104A4000470D5093480D6093490D70934A0D81E0D6
:104A5000C115D24021F48C9398279093F604DF91EE
:104A6000CF91089580E0FBCFFF920F931F93CF93D8
:104A7000DF931F921F92CDB7DEB7082FF92EBE012C
:104A80006F5F7F4F0E940E8F182F811113C040E17E
:104A900050E063E37DE08FE99FE00F94AC04109257
:104AA000AF0F812F0F900F90DF91CF911F910F913A
:104AB000FF9008958A818F9389818F93FF920F933E
:104AC0008EE899E09F938F931F9280EA8F9389E1FC
:104AD00094E19F938F930E94EBAE01970FB6F894E9
:104AE000DEBF0FBECDBF8F399105D8F280E899E0C7
:104AF0000E9434BC10E0D5CF80910C04811106C017
:104B000080910B04811102C080910A040895AC01C8
:104B100061E170E08FE99FE00C94D6B0181634F094
:104B200081E499E00E94872580E008958093140431
:104B30006091D5046093130490E00E9471C5809148
:104B4000D50491E089278093D5049093D70481E020
:104B50000895BF92CF92DF92EF92FF920F931F932F
:104B6000CF93DF93B0901D04CB2DD0E0CE018C51BC
:104B70009B4F6C01FC01008101110CC011E0812FE1
:104B8000DF91CF911F910F91FF90EF90DF90CF9029
:104B9000BF9008950E945F71182F8111EFCFCC0F45
:104BA000DD1FFE01EC5AF24FE080F180C701019752
:104BB0008115924028F085E399E00E948725DFCF98
:104BC00089E192E1BB2011F084E090E1B7010E94FD
:104BD000617F8E159F0519F08AE299E0EECF8091F2
:104BE000DC049091DD04A091DE04B091DF048E0D11
:104BF0009F1DA11DB11D8093DC049093DD04A09343
:104C0000DE04B093DF04CC5AD24F19821882F60129
:104C1000108280911D0491E0892780931D04102F3C
:104C2000AECFFF920F931F93CF93DF931F921F92EC
:104C3000CDB7DEB7082FF92EBE016F5F7F4F0E9400
:104C40000E8F182F811122C083E39DE0892B99F4E8
:104C50008FE99FE0009731F043EF58E061E170E0A9
:104C60000E94C2B0812F0F900F90DF91CF911F91C2
:104C70000F91FF90089540E150E063E37DE08FE9FC
:104C80009FE00F94AC041092AF0FECCF89819A8112
:104C90002091730F3091740F2530310501F59F93EA
:104CA0008F93FF920F938BE199E09F938F931F92C5
:104CB00080EA8F9389E194E19F938F930E94EBAEFA
:104CC0000FB6F894DEBF0FBECDBF01978F399105A7
:104CD00048F28EEF98E00E94872510E0C3CF9F93A3
:104CE0008F93FF920F938CE099E0DFCFDC019FB7A9
:104CF000F8942091030430910404409101045091F0
:104D0000020480E04217530769F0F901F770E15D92
:104D1000FA4F80818C932F5F3F4F30930404209390
:104D2000030481E09FBF08952F923F924F925F92BC
:104D30007F928F929F92AF92BF92CF92DF92EF922B
:104D4000FF920F931F93CF93DF931F921F92CDB7C4
:104D5000DEB722E0E22EF12C77247394CC24C394A6
:104D6000D12CE091DB04F0E0EC51FB4F008101110C
:104D7000CBC08091D704882391F080911404909146
:104D80001304911101C081950E94490F8111109265
:104D9000D7048091D704882321F301E0B5C00E9495
:104DA0007C25082F882309F400C18091D60488232C
:104DB000A1F380910C04882321F18090E00490906D
:104DC000E104A090E204B090E304809112048823EF
:104DD000B1F081E00E94490F882371F080920D04A8
:104DE00090920E04A0920F04B092100470921104DD
:104DF00010920C0470920B040E947C25CCCF8FEF94
:104E0000E9CF00910B04002371F080E00E94490F6C
:104E1000882391F310920B0480910804882361F396
:104E20000E942A0FE9CF80910A04882309F4B5CFA4
:104E300010910904812F111614F08FE7810F9091C2
:104E40001204911101C0819590911104992309F4E4
:104E5000A7C080900D0490900E04A0900F04B09015
:104E60001004898340911504509116046091170431
:104E7000709118042091540D3091550D2115310574
:104E800089F084169506A606B70660F01A012B0174
:104E9000220E331E411C511C82149304A404B50439
:104EA00008F447C04091190450911A0460911B0402
:104EB00070911C042091560D3091570D211531052C
:104EC00091F084169506A606B70668F01A012B0124
:104ED000220E331E411C511C24E030E18214930445
:104EE000A404B50440F18091DC049091DD04A0910C
:104EF000DE04B091DF0488169906AA06BB0668F1A5
:104F000087E599E00E948725802F0F900F90DF9111
:104F1000CF911F910F91FF90EF90DF90CF90BF90B6
:104F2000AF909F908F907F905F904F903F902F9089
:104F3000089529E132E1841A950AA60AB70A820E79
:104F4000931EF401808310920A0411160CF068CFAE
:104F500070920B04709208044FCF0E945F71082F6B
:104F600081114ACFC501B4010E94687E811103C03E
:104F70008BE499E0C7CF61E070E0CE0101960E941A
:104F8000617F0197A9F76091DC047091DD04809145
:104F9000DE049091DF040E94687E8111D4CFE8CFB7
:104FA0000E94490F8111CFCF27CF8091D804882349
:104FB00041F01092D8040E948E25882309F4A4CFD2
:104FC000D0CECE0102960E947626882309F4E5CE43
:104FD0002091D9043091DA048A812130310581F49D
:104FE0001092DA041092D90490EF980F903718F0CD
:104FF00086E799E087CF0E948E258823C9F3B1CE3A
:105000002230310591F41092DA041092D904909173
:10501000D604992311F08F3F1CF482E699E072CFF9
:105020008093090470920A049CCE813029F4D092B6
:10503000DA04C092D90495CE8230D9F58091D60495
:1050400081112DC08091960F8823C1F01092D20457
:105050001092D1041092D0040E949F698091C104E3
:10506000873061F00E9432C41092C0041092BF04D5
:105070001092BE041092BD041092BC047092D6042B
:105080008091D504809312041092110410920C04A4
:1050900010920B0410920A041092080462CE8091C0
:1050A0001104811103C070920C045BCE70920B044A
:1050B00058CE833029F4F092DA04E092D90451CE2C
:1050C000282F30E094E0359527959A95E1F7182F31
:1050D0001F702115310519F48CE699E013CF822F4A
:1050E0000E948E25882309F40FCF112309F439CEAD
:1050F0001093D80436CE4FB7F89420910304309122
:10510000040480910104909102044FBF821B930B11
:105110000895CF938091FB04813069F5CFB7F8945F
:10512000809104018E7F80930401809105018E7F20
:10513000809305018091030181708093BC0380916D
:10514000BC038093D40410920704109206041092BA
:1051500005041092000490E080E00E94CB0F82E0F2
:105160008093FB040E94A36E81E00E94B672CFBFC1
:1051700081E0CF91089580E0FCCF0E947D6EE3E74F
:10518000F0E080818D7F80831092210110922001B8
:1051900082E08ABB80E00C94B672CF93DF93DFB7D6
:1051A000F8940E947D6ED19B0FC00E942210C82FE0
:1051B00081110AC00E94BD2884E08093FB04DFBFF8
:1051C0008C2FDF91CF91089580912401909125013A
:1051D00010922101909307048093060483E080934A
:1051E000FB0480E00E94B672C1E0E9CF1F920F92EB
:1051F0000FB60F9211240BB60F922F933F934F933C
:105200005F936F937F938F939F93AF93BF93EF932E
:10521000FF938091FB04823061F40E941310882375
:10522000D9F082E00E94F30F8823B1F081E08093EF
:105230000504FF91EF91BF91AF919F918F917F9165
:105240006F915F914F913F912F910F900BBE0F90F7
:105250000FBE0F901F9018950E94BD2884E0809388
:10526000FB04E7CFCF93CFB7F8940E94BD281092EC
:105270000504109200041092FB04CFBFCF91089553
:10528000CF93CFB7F8940E94BD28109204041092D7
:105290000304109202041092010410920704109269
:1052A00006048CE991E390932C0280932B0282E018
:1052B00080932A021092D3041092BC031092D4045B
:1052C00010920504109200041092FB04CFBFCF91FE
:1052D00008950E94402910929E0F10929D0F1092E7
:1052E000740F1092730F1092191410929F0FE4E52F
:1052F000FDE01182108213821282E4EEF4E010824B
:1053000011821092DB0410921D04E5E1F4E010829A
:1053100011821282138214821582168217821092D1
:10532000DC041092DD041092DE041092DF0410926F
:10533000E0041092E1041092E2041092E30410924F
:10534000DA041092D9041092D8041092D504109265
:10535000D70410921404109213041092D6041092E1
:1053600012041092110410920D0410920E04109267
:105370000F041092100410920C0410920B0410925F
:105380000A0410920904109208040895CF93DF9341
:10539000EC01D19910C0809124019091250199834D
:1053A0008883109225011092240182E08ABB81E05B
:1053B000DF91CF9108950E9422108823C9F3EBCF8B
:1053C000CF9320910504C091D304222309F441C056
:1053D000CC2359F0029696958795969587958038B7
:1053E000910570F080E0CF910895C29684369105C2
:1053F00030F084569109CF5FC038C1F7F3CF8C2FBE
:10540000409101045091020420910304309104045E
:10541000241B350B2150384F2230310518F32091D1
:10542000010430910204F901F770E15DFA4F93E055
:105430009083F9013196F770E15DFA4F80832E5F1A
:105440003F4F30930204209301041092050481E041
:10545000CACFCC23F1F102969695879596958795BC
:105460000097A1F18038910508F0BCCFC82FC0315A
:1054700008F450C00E941310882309F4B3CF409160
:105480000104509102042091030430910404241B70
:10549000350B2150384F2230310508F4A3CF20912D
:1054A000010430910204F901F770E15DFA4F91E0D7
:1054B0009083F9013196F770E15DFA4FC0832E5F5A
:1054C0003F4F30930204209301048DCF81E090E0A0
:1054D000CDCFC2968436910530F084569109CF5FC6
:1054E000C038C1F77FCFC111C2CF80910004C1E0A5
:1054F000811103C0C0930004AACF20E1829FC001A4
:1055000011248C2B0E94F30F882309F46BCF109287
:10551000000469CF80910004EBCF1F93CF93DF93FA
:105520001FB7F894C0910301C1708091BC038C1720
:1055300031F180910604909107040E94E029D82F50
:1055400081110BC00E94BD2884E08093FB041FBF23
:105550008D2FDF91CF911F910895C093BC031092BE
:10556000050490E080E00E94CB0F82E08093FB0472
:105570000E94A36E81E00E94B672D1E0E8CF8091D4
:10558000060490910704EFCF1F93CF93DF931F92F0
:105590001F92CDB7DEB71A8219821FB7F894809197
:1055A000FB04823021F08091FB04833021F50E94BE
:1055B0007D6E8091FB04823029F5CE0101960E9418
:1055C000C62910922101909173009D7F90937300E2
:1055D00092E09ABB8823F1F089819A810E94E029A8
:1055E0008823C1F00E9413108823A1F01092FB04BD
:1055F00080E00E94B6721FBF0F900F90DF91CF9195
:105600001F91089580910604909107049A838983DD
:1056100081E0D7CF84E08093FB04EACF2F923F92C2
:105620004F925F926F927F928F929F92AF92BF92B2
:10563000CF92DF92EF92FF920F931F93CF93DF935E
:105640001F921F92CDB7DEB718160CF05CC06091A8
:10565000E80490E00E94BF69382E8091E80491E050
:1056600089278093E804311018C033243394832DA4
:105670000F900F90DF91CF911F910F91FF90EF90BE
:10568000DF90CF90BF90AF909F908F907F906F9062
:105690005F904F903F902F90089597E2492E512CA4
:1056A0002CE2622E712C39E3832E912C0091B914D7
:1056B0001091BA1401151105D1F28091BB144091DB
:1056C000BC145091BD146091BE147091BF14A09091
:1056D000C414B090C5141092BA141092B9140130C9
:1056E000110509F07FC1C090E604D090E704009155
:1056F000BA041091BB04E090DE14F090DF148091A6
:105700004F0D882311F0312CB2CF809120048111EC
:10571000FACF69E172E1672B09F476C0C114D104B4
:1057200009F472C0D60158962C90B1E02B126CC0CF
:10573000BE016F5F7F4FC6010E943C6D882309F454
:1057400063C080E8F601A9E1B2E101900D928A956B
:10575000E1F720921912F6017A9686E0ABE2B2E107
:1057600001900D928A95E1F7E1E3F2E188E6DF012D
:105770001D928A95E9F789819A8190931F048093FD
:105780001E04019787309105C8F190E080E0909366
:10579000460D8093450D89E1C82E82E1D82EC601C1
:1057A0000E9499CA882309F4AECFD60152968D91F2
:1057B0009C91B0E0A0E080934B0D90934C0DA09392
:1057C0004D0DB0934E0D80589F4FAF4FBF4F8093FC
:1057D000E9049093EA04A093EB04B093EC0481E015
:1057E00080934F0DC6010E940AC260914B0D7091CB
:1057F0004C0D80914D0D90914E0D15C08D5F9C4FBD
:10580000FC01808190E0C3CFC6010E94656D8823B2
:1058100069F081E080932004C6010E940AC26AE513
:1058200070E080E090E00E94BF6C40CF0115110550
:1058300009F4D4C0E114F10409F04DC0C80188573F
:1058400091090837110538F488E790E0801B910B27
:105850000933110528F1A8014953510998012C5227
:1058600031090752110970E4A71A7FE1B70AA9E8C4
:10587000AA16A3E1BA0650F40217130738F4041766
:10588000150720F40817190708F4AAC04817590784
:10589000C0F42417350708F4B7C191E080E080C058
:1058A000A401401B510B0C321105C0F69301201BC3
:1058B000310B07321105A8F6B201601B710B8B0189
:1058C000D2CF2817390708F089C02417350708F008
:1058D00085C092E0E3CFA801485751090837110568
:1058E00020F448E750E0401B510BC7018B5E910943
:1058F000BBEEEB16F10420F48BEE90E08E199F09BD
:10590000480F591FC801C9970933110518F4C4017C
:10591000801B910B970125573109E5E7EE16F1043D
:1059200020F425E730E02E193F09280F391FC80160
:105930008C970C32110518F4C301801B910BB70131
:1059400068557109F8E5EF16F10420F468E570E098
:105950006E197F09860F971F0732110550F1075204
:1059600011097FE4E716F10448F1AFE4EA1AF108FF
:105970000E0D1F1D0817190730F40217130718F42E
:105980000417150768F124173507F0F482179307F9
:1059900008F43FC191E080E00217130708F490E09B
:1059A0009093450D8093460DC114D10409F4ABCEFC
:1059B000F6CEB201601B710B8B01D3CFEFE4F0E0A8
:1059C000EE19FF097F01D4CF8417950738F48217A9
:1059D000930720F40817190708F07BCF90E05ECFFB
:1059E00098E05CCF0230110539F59091200499239D
:1059F00059F04A3551056105710508F084CE475EBE
:105A00005D4EFA01808352CE90914F0D992309F497
:105A10007ACE00914B0D10914C0D20914D0D30918F
:105A20004E0D401751076207730708F06CCE0E94B5
:105A3000F32481113BCE67CE0330110509F0C5C0B8
:105A400080912004882309F498C064E070E1672BFA
:105A500009F488C00091E6041091E704C8010E948F
:105A6000656D882309F47EC089E192E1009709F40D
:105A700079C0BE016F5F7F4F0E940C6D882309F4CF
:105A800071C080E8F801A4E0B0E101900D928A9520
:105A9000E1F780916512809304108DE0E6E6F2E173
:105AA000A6E1B0E101900D928A95E1F710922310E2
:105AB00089819A8190931F0480931E0401978730F7
:105AC000910508F454C090E080E09093460D8093D7
:105AD000450D1092530D1092520D1092510D1092CF
