:100000000C94870E0C94B80E0C94B80E0C94B80E89
:100010000C94B80E0C94B80E0C94B80E0C94B80E48
:100020000C94B80E0C94B80E0C946FAE0C94B80EE1
:100030000C94B80E0C94B80E0C94B80E0C94B80E28
:100040000C94B80E0C9484B30C94B80E0C94B80EA7
:100050000C94B80E0C94B80E0C94B80E0C94DCDC16
:100060000C94B80E0C94B80E0C94B80E0C94B80EF8
:100070000C94B80E0C94B80E0C94B80E0C94B80EE8
:100080000C944CB40C94B1B90C94B80E0C94EE389A
:100090000C94B80E0C94B80E0C94B80E0C94B80EC8
:1000A0000C94B80E0C94B80E0C94B80E0C94B80EB8
:1000B0000C94B80E0C94B80E0C94B80E0C944D28F9
:1000C0000C94B80E0C94B80E0C94B80E0C94B80E98
:1000D0000C94B80E0C94B80E0C94B80E0C94B80E88
:1000E0000C94B80E0C94C8F30C94B9960C94261D7D
:1000F0000C9409F40C94E4D40C9470370C9415957A
:100100000C94E9F60C94F3370C9494740C94D37318
:100110000C9455F40C9499C00C940F380C9497954A
:100120000C94929D0C947F730C9420370C9457F68A
:100130000C94FEA80C94BA1D0C9412950C94E6A88D
:100140000C94DDD40C947D950C949A7E0C94A1F3C0
:100150000C94FBA80C94E2C50C94E3FA0C94239540
:100160000C948C950C9476BA0C9440FA0C94A7F3EA
:100170000C94952F0C949EF30C9439360C94EAD879
:100180000C9418D50C94F4D40C942D1D0C94B4F349
:100190000C946CF90C94F0D80C94D1F60C941230A9
:1001A0000C94C71D0C94EED40C94FD140C94AEF377
:1001B0000C94D1950C9491380C94ABF60C9430F6C9
:1001C0000C9442740C94C01D0C94ECA80C94839570
:1001D0000C9480950C9422150C943F150C94BBF351
:1001E0000C94B9970C9452950C94D5D40C94A7BA4E
:1001F0000C9404740C94F0730C94A4F30C94097490
:100200000C9455F60C949C360C9491740C940AFA48
:100210000C9406300C94C5360C940AD50C9433F625
:100220000C940C950C94F8A80C94BA950C9401A914
:100230000C946E140C94E6730C9458EE0C94CFD47A
:100240000C94DFD80C9457380C94DBFA0C945014AF
:100250000C9455950C94C3950C944AF10C94F0BFF2
:100260000C9483140C94B4370C94A6740C94469597
:100270000C94341D0C94BD950C94C0740C94FF73B5
:100280000C944C950C9493F30C940FD50C9481BA68
:100290000C948F950C94FCD40C94577E0C94EB73B7
:1002A0000C94B1F30C9409300C945D950C9445D5E5
:1002B0000C941BBB0C94C5BA0C94F4F90C94CD1D92
:1002C0000C9461140C940F300C94E7F30C94B2BAB4
:1002D0000C94AA7E0C9466360C94F2A80C94C5F388
:1002E0000C94B2740C94F5730C94DA370C94E3F814
:1002F0000C9410D50C941B300C942B970C940BF48D
:100300000C9486950C942B140C9402D50C944F9558
:100310000C94197E0C94F5A80C94E1D40C94F3D8A9
:100320000C94CCFA0C9457BB0C94E37D0C9403FA18
:100330000C9488360C94A9740C94D0DA0C945DF665
:100340000C948CF30C94EEF70C94A3740C941B9502
:100350000C9443960C94FA730C9489950C94CB747A
:100360000C9451F10C941F360C9487BB0C94C995D6
:100370000C94937D0C94CBF30C94EAD40C948F9D45
:100380000C94BEF30C9498F60C9404A90C94D4F835
:100390000C9418950C94E4F30C94AD7D0C94DDB69C
:1003A0000C94C0950C940F950C94F8D40C94D0BA7E
:1003B0000C94E7D80C9408FB0C9413970C94D9D4A4
:1003C0000C94EBF80C94F6D80C94B7950C94EDD8EB
:1003D0000C9409950C94EFA80C94C6950C94A0BFAE
:1003E0000C94B31D0C945BF60C9443950C94C314BD
:1003F0000C9414D50C9449950C9406D50C940C309F
:1004000054494D45522041524700424144205449ED
:100410004D455200554E44455252554E00424144BE
:100420002057415600424144205241544500384231
:100430004954204F4E4C59004D4F4E4F204F4E4C7B
:10044000590050434D204F4E4C59004E4F204441CF
:100450005441004E4F20464D5400424144205249E1
:100460004646004E4F542057415645004E4F5420AB
:100470005249464600494F204552524F52004F5074
:10048000454E204552524F5200424144204152476E
:10049000004F4B004D5A54205345454B00524543A5
:1004A0004F5244005B96A59D9AB75D004C44522084
:1004B000424C4F434B004D5A462054494D4500494C
:1004C0004D4147452054494D45004C445220484534
:1004D00041444552004D5A54205345454B004D5A16
:1004E00046205354415445005144205345454B0048
:1004F00050574D2050495045004D5A4620535441C5
:100500005445004D5A3720524546494C4C004D5AEF
:100510004620554E444552004241442053455353D2
:10052000494F4E00454447452046495253540049DF
:100530004E534552542043415244005441502046AA
:1005400049464F00554E44455252554E0054415075
:10055000204649464F004D5A4620535441525400BC
:10056000554C205354415254004D5A372053454561
:100570004B004D5A54205345454B00554C372041B4
:10058000434B00554C372041524D00554C205348A9
:100590004F525400554C205245414400554C205771
:1005A00041495400554C2053484F525400554C205B
:1005B0005245414400554C20415247004D5A372086
:1005C000524546494C4C004D5A46205354415254D2
:1005D000004D5A4620535441525400504C4159202A
:1005E0004552524F520014040A04000454494D4528
:1005F0005200000000001000800000AA00389B712B
:10060000910489047E0475046C0463045A04530441
:100610004B04420438042E0425041D04574156207F
:100620004552524F52004E4F2057415620494E4698
:100630004F00454D5054592057415600454D505498
:100640005920454447450045444745204F50454EB5
:10065000004544474520415247005350454544001A
:1006600054595045004D5A54205345454B004D5A5E
:1006700054205245434F5244004D5A5420464F5245
:100680004D4154004D5A54205345454B004D5A544A
:1006900020434F554E54004D5A542048454144453F
:1006A00052004D5A54205345454B00514446205367
:1006B00045454B00514446205345454B0051444667
:1006C000204652414D4500514446205245434F5229
:1006D000440051444620434F554E54005144462057
:1006E000484541444552004D5A51205345454B0021
:1006F0004D5A51205245434F5244004D5A512053B8
:1007000045454B004D5A51204C454E475448004DED
:100710005A512053495A45004D5A512044415441A1
:1007200020484452004D5A512046494C45204844E7
:1007300052004D5A5120434F554E54004D5A5120AE
:10074000454D505459004D5A512048454144455259
:1007500000514420464C41534800514420485843DE
:100760000051442053484F525400514420534545B2
:100770004B004D5A46205345454B004D5A46205399
:1007800045454B004D5A462053484F5254004D5A50
:1007900046204F50454E004D5A4620415247005486
:1007A000415020524541440054415020464C41475D
:1007B00000544150205452554E4300544150204C57
:1007C000454E47544800544150205245414400543E
:1007D0004150204C454E47544800454D50545920F7
:1007E00054415000544150204F50454E0054415008
:1007F000204152470042414420464F524D4154004F
:10080000544150205452554E4300544150205245BB
:10081000414400544150204649464F005441502025
:100820005245414400544150205452554E430054C7
:100830004150204649464F0054415020464C4147C4
:1008400000544150205452554E4300544150204CC6
:10085000454E47544800544150204C454E4754485B
:1008600000544150205245414400544150204649D3
:10087000464F0045444745204552524F5200504193
:10088000544820544F4F204C4F4E470025732F5251
:100890004543253034752E4C45500025732F524565
:1008A00043253034752E4C3136004544474520579A
:1008B00052495445005354414745204552524F52E6
:1008C0000042414420544F4B454E00504154434850
:1008D000205752495445005041544348204C4F53EF
:1008E000540042414420544F4B454E004241442065
:1008F000544F4B454E0042414420544F4B454E000F
:100900005041544820544F4F204C4F4E47002573C0
:100910002F524543253034752E4D5A46004D5A46C8
:10092000205752495445004D5A4620434845434BB1
:1009300053554D004D5A4620434845434B53554D62
:1009400000544320434845434B53554D00544320E6
:100950004C4F4144455200545950453D54430A536D
:10096000504545443D313A310A00545950453D49BE
:10097000430A53504545443D313A310A00545950D9
:10098000453D4E4F524D414C0A53504545443D3133
:100990003A340A00545950453D4D5A3730300A53C5
:1009A000504545443D313A310A00545950453D4E79
:1009B0004F524D414C0A53504545443D313A330A5C
:1009C00000545950453D4E4F524D414C0A535045ED
:1009D00045443D313A320A00545950453D54430A8A
:1009E00053504545443D313A320A00545950453D33
:1009F00054430A53504545443D313A330A00545953
:100A000050453D49430A53504545443D313A320A29
:100A100000545950453D49430A53504545443D31E2
:100A20003A330A00545950453D49430A535045450D
:100A3000443D313A340A00545950453D4D5A3730FF
:100A4000300A53504545443D313A330A0054595019
:100A5000453D554C5F4D5A3730300A00545950458A
:100A60003D554C5F4D5A3830300A00545950453D81
:100A7000554C0A00545950453D4E4F524D414C0A79
:100A800053504545443D313A310A004552520050D9
:100A9000415500504C5900524459005443310049CB
:100AA0004331004E3134004D3731004E3133004E6A
:100AB0003132005443320054433300494332004939
:100AC000433300494334004D373300554C3700550C
:100AD0004C3800554C00544320313A3100494320F2
:100AE000313A31004E524C20313A34004D5A3720C1
:100AF000313A31004E524C20313A33004E524C20A4
:100B0000313A3200544320313A3200544320313AD2
:100B10003300494320313A3200494320313A33000F
:100B2000494320313A34004D5A3720313A33004E90
:100B3000524C20313A310043504D20313A34004379
:100B4000504D20313A330043504D20313A3200436A
:100B5000504D20313A310053494E20313A34005340
:100B6000494E20313A330053494E20313A32005336
:100B7000494E20313A3100524543204552524F529E
:100B8000004D5A4620535441525400505245414C56
:100B90004C4F43204641494C004D5A462043524554
:100BA0004154450053442043415244204552524F42
:100BB0005200454447452053544152540050524539
:100BC000414C4C4F43204641494C00454447452049
:100BD000435245415445005344204341524420452B
:100BE00052524F52005245432054494D45522045E0
:100BF000525200505245414C4C4F43204641494CC3
:100C00000057415620435245415445204552520019
:100C10004241442052454320524154450053442010
:100C200043415244204552524F52005245432046C0
:100C30004F524D41540052454320504155534500B9
:100C400052454320524553554D450025732F25737A
:100C50005F253032752E4C45500025732F25735F6C
:100C6000253032752E4D5A460025732F25735F258A
:100C70003032752E4C31360025732F25735F2530A9
:100C800032752E5741560025732F25732E4C455033
:100C90000025732F25732E4D5A460025732F25737B
:100CA0002E4C31360025732F25732E574156005791
:100CB000415620434C4F5345204552520057415610
:100CC0002050414420455252005441494C20575233
:100CD0004954452045525200524543204F564552F3
:100CE000464C4F57004544474520434C4F53450021
:100CF00045444745204F564552464C4F5700740ACD
:100D000000006B0A5C0A4D0A370A240A110AFE0920
:100D1000EB09D809C109AA0994097D096A0957098B
:100D20004D5A4620434C4F5345004D5A462057528A
:100D3000495445004D5A4620494E434F4D504C456D
:100D40005445004D5A46204445434F4445004D5AB2
:100D500046205345454B004D5A46204F5645524676
:100D60004C4F570045444745204F564552464C4F3F
:100D700057005041544820544F4F204C4F4E47008D
:100D800025732F524543253034752E574156005751
:100D90004156204845414445522045525200574152
:100DA0005620544F4F204249470057415620575232
:100DB0004954452045525200414E414C59534953E4
:100DC00020515545554500444952204641494C0063
:100DD0004E4F20454E545259004F4B005344204330
:100DE000415244204552524F5200494E53455254AD
:100DF000204341524400454D505459004E4F204528
:100E00004E54525900534420494E4954004E4F20ED
:100E1000454E5452590042414420415247004E4FE2
:100E200020454E545259004E4F20454E54525900C1
:100E30002E2E2F00454D505459005245434F5244D9
:100E40003D52455452590053442043415244204599
:100E500052524F5200494E5345525420434152443E
:100E600000202020202020202020202020202020A2
:100E70002000970A930A8F0A8B0A504C4100535462
:100E80004F503D43414E43454C0051442053434154
:100E90004E202533752525004E313100484C480041
:100EA000554C004633480046334C005443004943F8
:100EB0000049434C005537480055374C00484C4CCE
:100EC000004E4C48004E4C4C0025732025303275A6
:100ED0003A253032752F253032753A25303275007B
:100EE0002573202020202020202025303375252523
:100EF0002000257320252D3373202020202530331A
:100F00007525252000504155534544004D414E2044
:100F1000252D347320253032753A25303275005333
:100F2000454C20252D347320253032753A2530323A
:100F300075004D544920252D347320253032753AE3
:100F400025303275004D414E20252D3473202D2D36
:100F50003A2D2D0053454C20252D3473202D2D3A4C
:100F60002D2D004D544920252D3473202D2D3A2D43
:100F70002D00554E535550504F5254454400455244
:100F80005220252E31327300554E4B4E4F574E0096
:100F90002F0B0000000000000000270B200B190B96
:100FA000120B0B0B040BFC0AF40AEC0AE40ADD0A30
:100FB000D60A00006F0B670B5F0B570B4F0B470BED
:100FC0003F0B370B32326B0034346B005245430019
:100FD0005356442000524543204552524F5200522E
:100FE00045432043414E43454C4C45440046494C03
:100FF000452044454C4554454400504C45415345DB
:101000002057414954005741495400534156494ED5
:10101000472000504155202530326C753A2530323A
:101020006C7500524543202530326C753A253032BC
:101030006C7500504155534544202020202020202D
:1010400020204D0057414954205349474E414C0000
:101050004F4B0053442043415244204552524F527B
:1010600000494E534552542043415244004E4F5480
:1010700020494E4954005344204341524420455294
:10108000524F52004E414D4520544F4F204C4F4E31
:10109000470046494C45204F50454E204641494C5B
:1010A0000042414420504154480046494C452043A9
:1010B0005245415445204641494C0042414420504C
:1010C000415448004E4F5420444952004D4B44492E
:1010D00052204641494C00444952204641494C0067
:1010E0004E4F5420444952004E4F54204449520020
:1010F000424144204449524543544F5259005245BD
:1011000043204E414D45532046554C4C00444952D6
:10111000204641494C0046494C4520524541442017
:101120004641494C0046494C4520524541442046E1
:1011300041494C00424144204152470046494C45F8
:10114000205752495445204641494C0042414420D1
:1011500041524700505245414C4C4F432046414973
:101160004C0046494C45205452554E432046414977
:101170004C0046494C452053594E43204641494C6A
:101180000046494C45205345454B204641494C00BB
:1011900046494C452052454D4F5645204552520038
:1011A00042414420504154480052454E414D452053
:1011B0004641494C0046494C4520455849535453F3
:1011C000004241442052454E414D45002E5441506D
:1011D000002E574156002E4C3136002E4C45500003
:1011E0002E4D3132002E514446002E5144002E4DDA
:1011F0005A51002E4D5A54002E4D5A4600002020C0
:1012000020202020202020202020002020202020FE
:1012100020202020202020202020202020202122CB
:10122000232425262728292A2B2C2D2E2F30313216
:10123000333435363738393A3B3C3D3E3F40414206
:10124000434445464748494A4B4C4D4E4F505152F6
:10125000535455565758595A5B5C5D5E5F202020A9
:10126000202020202020202020202020202020207E
:10127000202020202020202020202020202020206E
:101280002020202020202020202020202020206519
:101290002020207467682062786472706371617ABC
:1012A00077737569204F6B66762075426A6E20559C
:1012B0006D2020206F6C416F61207920202020203C
:1012C000202020202020202020202020202020201E
:1012D000202020202020202020202020202020200E
:1012E00020202020202020202020202020202020FE
:1012F00020202020202020202020202020313A32B1
:1013000000313A3300313A3100544300313A32006F
:10131000313A3300313A3400313A31004943003137
:101320003A3300313A31004D5A37303000313A34D7
:1013300000313A3300313A3200313A31004E4F52E7
:101340004D414C00554C5F4D5A37303000554C5F85
:101350004D5A38303000554C00574149542E2E2EEE
:101360000052454C4541534520414C4C00414443BB
:101370003A253475005741495420494E5055540080
:10138000505245535320252D31307300504C454168
:1013900053452057414954005144204C4F41442E5D
:1013A0002E2E0045444745205245414400454447C0
:1013B00045204649464F00554C2057414954003E70
:1013C00008D3CEE5210000D3E47ED3E077237CFE72
:1013D0001020F43A4BD4324B0A3A4CD43212052145
:1013E0004DD4110211010D00EDB0E17CFED42812A4
:1013F0002A0411D9210012220411CD2A00D3E4C3FA
:101400009AE9CD2A00D3E4C32401000000000000C3
:101410000000000000000000003E08D3CECD3E07D3
:10142000360197575FCD0803CDBE02D3E21AD3E051
:101430001213CB6228F53EC3321F06215C11222015
:10144000062A08117D3212057C324B0A2A0A112223
:101450000211CDF80401CF06ED71D3E2DAAAE92139
:101460000A11C308EDC53A1011EE0C32101101CF6C
:1014700006ED79C1C9313938371102E0F31AE62097
:1014800028FB137B121B0100041ACB6728FBE62004
:10149000B1074F7B13121B1ACB6720FBE620B10765
:1014A0004F137B121B10E27123D90B79B0D920D6D0
:1014B0004F04D9C31102E0F31AE62028FB137B1274
:1014C0001BC50100041ACB6728FBE620B1074F7B40
:1014D00013121B1ACB6720FBE620B1074F137B12B8
:1014E0001B10E271C10B2379B020D60601D9C311BC
:1014F00002E0DD2103E0AF3D20FDF31AE62028FBEA
:10150000DD360003C50100041ACB6728FBE620B1D5
:10151000074FDD3600021ACB6720FBE620B1074FEC
:10152000DD36000310E271C10B2379B020D600E153
:10153000E93E08D3CE1102E0DD2103E0AF3D20FDFE
:10154000F31AE62028FBDD360003C50100041ACBA0
:101550006728FBE620B1074FDD3600021ACB672073
:10156000FBE620B1074FDD36000310E271C10B230B
:1015700079B020D6010001D9E1E93E08D3CECD3EB5
:1015800007360197575FCD0803CDBE02D3E21AD3C9
:10159000E01213CB6228F53E08D3E01102E0F37BA2
:1015A00013121B1AE62028FB137B121B0100041ADE
:1015B000CB6728FBE620B1074F7B13121B1ACB67C2
:1015C00020FBE620B1074F137B121B10E27123D9D9
:1015D0000B79B0D920D64F04D9C351442043414E92
:1015E00043454C004D5A462053484F5254004D5AE3
:1015F000462052454144004D5A46204649464F0038
:101600004D5A46204C454E475448004D5A5420539D
:10161000484F5254004D5A542052454144004D5AAF
:101620005420484541444552004D5A462053484FA6
:101630005254004D5A462052454144004D5A4620CE
:101640004C454E475448004D5A542053484F52542D
:10165000004D5A542052454144004D5A54204845AB
:1016600041444552000000000007DF0EF70F521DF5
:101670006A1EF82A00007C150000282814140200B5
:1016800000000001000000071A07B408A90E44106A
:10169000F82A00007C15000028281414020000001D
:1016A0000002000000077F05CA07FF0AF90DF82AAB
:1016B00000007C150000282814140200000000031C
:1016C00000010007000F8010001DE01EF82A000036
:1016D0007C150000282814140200000000040004F7
:1016E000000900050005000A000AF82A00007C1520
:1016F0000000282814140200000000050002000F5A
:10170000D0045507DA093A0BF82A00007C150000CE
:10171000282814140200000000060002000F7F05B4
:10172000CA07FF0AF90DF82A00007C1500002828D6
:1017300014140200000000070002000F1A07B4088A
:10174000A90E4410F82A00007C1500002828141463
:101750000200000000080003000F97068906200D14
:10176000200DF82A00007C1500002828141402001F
:10177000000000090003000FDD08CF08AC11AC1118
:10178000F82A00007C15000028281414020000002C
:10179000000A00000007D0045507DA093A0BF82ABE
:1017A00000007C1500002828141402000000000B23
:1017B0000002000FA90E7E10521DED1EF82A000037
:1017C0007C1500002828141402000000000C0003FF
:1017D000000FAF0FA00F4F1F4F1FF82A00007C15FE
:1017E0000000282814140200000000554C20534526
:1017F000454B00554C205345454B00554C2041521C
:10180000470054555242205345454B004D5A5420F1
:101810005345454B004D5A542052454F50454E00BC
:101820002054430020494300204D5A3730300020D7
:10183000554C204D5A3730300020554C204D5A38E9
:1018400030300020554C00204155544F00204E4F61
:10185000524D414C0020313A340020313A330020BF
:10186000313A320020313A310020323530302042D6
:101870006400203231303020426400203138303072
:10188000204264002031343030204264004D5A46FA
:10189000004C45502035307573004C3136203136C0
:1018A0007573005741562032326B487A00574156C3
:1018B0002034346B487A004D414E55414C0041551F
:1018C000544F004D4F544F520052454C45415345E3
:1018D00020414C4C0043414C204E4F4E450053415B
:1018E0005645440043414C4942524154494F4E00F1
:1018F0004E4F5420534156454400454550524F4D9C
:10190000204552524F52005553494E4720444546B8
:1019100041554C540043414C20494E56414C49449A
:1019200000504C4159005245434F52440053544FCC
:1019300050004646574400524557494E44004341E3
:101940004C4942524154494F4E004B455950414435
:10195000002F5245434F5244494E475300494E537E
:10196000455254204341524400494E53455254205D
:1019700043415244005041544820544F4F204C4F53
:101980004E470046494C452053454C454354454439
:10199000004E414D4520544F4F204C4F4E4700457F
:1019A0004D505459204449520052454320464F520D
:1019B0004D4154004D184718431839182F1828184E
:1019C00024182018202D2D0064185F185A18551857
:1019D00084187B18721869183E54415020535045A2
:1019E0004544003E5350454544003E4C4F4144451C
:1019F0005200204D4F544F5200204D414E55414C06
:101A0000003E504C4159204354524C00204F464612
:101A100000204F4E003E57415620494E56455254E5
:101A2000003F00AD18A3189A1891188D18C318BE5E
:101A300018B7183E524543204D4F4445004F464687
:101A4000004F4E003E4155544F4E414D45003E52D1
:101A50004543205459504500202533752525002540
:101A60003375252520454550524F4D204552520093
:101A70003E4241434B4C494748540052414D20257A
:101A800075204D494E25750041424F555420763200
:101A90002E300020494E5445524E414C00204558AE
:101AA0005445524E414C003E434D5420534F5552E5
:101AB00043450000002100240027002A002D0030AB
:101AC00000330001010000040107010A01000022A7
:101AD00000250028002B002E0031003400020100F8
:101AE00000050108010B01F0F0F0F3F0F5F0F0F063
:101AF000F0F0F0F0F0F0F0F0C1C2C3C4C5C6F0F0F1
:101B0000F0F0F0F0F0F0F000616263646566676821
:101B1000696B6A2F2A2E2D2021222324252627288F
:101B2000294F2C512B57495501020304050607087C
:101B3000090A0B0C0D0E0F1011121314151617189D
:101B4000191A5259545045C7C8C9CACBCCCDCECFAB
:101B5000DFE7E8E9EAECEDD0D1D2D3D4D5D6D7D8B7
:101B6000D9DADBDCDDDEC080BD9DB1B5B9B49EB293
:101B7000B6BABE9FB3B7BBBFA385A4A5A6948788FA
:101B80009C82988492908391819A97939589A1AF32
:101B90008B8696A2ABAA8A8EB0AD8DA7A8A98F8C92
:101BA000AEAC9BA099BCB8403B3A703C715A3D43E7
:101BB000563F1E4A1C5D3E5C1F5F5E377B7F367A58
:101BC0007E334B4C1D6C5B7841353474303875393D
:101BD0004D6F6E3277767273477C53314E6D484647
:101BE0007D441B587942604D5A46204552524F520F
:101BF0000053504545443D00545950453D00524521
:101C0000434F52443D004E4F20454E5452590044DC
:101C10004952204641494C004E4F542044495200FD
:101C2000000020002300260029002C002F00320095
:101C3000000100000301060109010505050507056E
:101C400008080808020202020A0A08080404040438
:101C50000101010101010101030303030303030364
:101C6000040707070C0C0C0C0C0C0C0C02020202F3
:101C700006060606060606060B0B0B0B0B0B0B0BDC
:101C8000010210202008081020401020408002018E
:101C90000201080402010102040810204080804073
:101CA0002010080402018004020180402010080472
:101CB0000201080402010102040810204080010210
:101CC00004081020408000000A0B02090C0D0E08C9
:101CD00007030401000000000000000000000000F5
:101CE00000000000000000000000000000000000F4
:101CF00000001211100000000000000000000000B1
:101D000000000000000000000000000058EE112458
:101D10001FBECFEFD1E2DEBFCDBF00E00CBF13E0AE
:101D2000A0E0B2E0E8E7F5E002E00BBF02C00790F8
:101D30000D92AA36B107D9F728E1AAE6B3E001C0AF
:101D40001D92A833B207E1F71EE0C7E8DEE000E02D
:101D500006C021970109802FFE010F94B200C638FA
:101D6000D10780E00807A9F70E94A8EE0D94BA02F7
:101D70000C94000080913C0491E0892780933C04FE
:101D800010923D04109212041092110410920D044E
:101D900010920E0410920F041092100410920C0472
:101DA00010920B0410920A04109209041092080475
:101DB00008958F929F92AF92BF92CF92DF92EF924F
:101DC000FF92CF93DF9390914204292F30E0F901E5
:101DD000E55BFB4F4081411165C0A901440F551FD0
:101DE000DA01A554B34FCD91DC911197809047044F
:101DF00090904804A0904904B0904A047501640191
:101E00006FEFC61AD60AE60AF60ABE016F5F7F4F69
:101E10002097F9F4220F331F220F331FF901EB5ED5
:101E2000FB4F80829182A282B38291113DC021E05A
:101E300030E03093BC0C2093BB0C80931912C092FD
:101E40004704D0924804E0924904F0924A0481E0A9
:101E50001EC029E132E1992311F026E030E145541A
:101E6000534FDA016D937C93C20FD31F8883C092C6
:101E70004704D0924804E0924904F0924A0481E079
:101E80006115724021F48083982790934204DF917A
:101E9000CF91FF90EF90DF90CF90BF90AF909F9049
:101EA0008F90089580E0F3CF21E030E02D933C93B4
:101EB00080930610C4CF20912A0230912B02821702
:101EC000930710F090E080E0109220011092210121
:101ED00020912A0230912B0221503109309329019F
:101EE00020932801909325018093240182E08ABBEE
:101EF00080917300826080937300809129028860D2
:101F000080932101089520910104309102044091B1
:101F10000104509102046091030470910404461B73
:101F2000570B4F3F574069F0F901F770EA56FB4FE6
:101F300080832F5F3F4F309302042093010481E0A0
:101F4000089580E0089580910004882349F08295E7
:101F5000807F0E94830F882321F01092000408954F
:101F600081E0089582E08ABB0E94A30F811102C024
:101F700080E0089582E00E94830F8823C9F391E0F6
:101F80009093050408959FB7F8948091BB039FBF79
:101F900090E00895009711F481E090E02091940082
:101FA00030919500820F931F90939B0080939A002D
:101FB00008954FB7F8942091B9033091BA038091F6
:101FC000B7039091B8034FBF821B930B0895CF9234
:101FD000DF92EF92FF920F931F93C090F203D09085
:101FE000F303E090F403F090F50397018601009568
:101FF000109520953095061717072807390790F494
:102000008FEF9FEFDC018093F2039093F303A09393
:10201000F403B093F5031F910F91FF90EF90DF90C1
:10202000CF900895DC01CB018C0D9D1DAE1DBF1D11
:10203000EACFE82F8BEF8E0F833048F4E550FF0B8B
:10204000EE0FFF1FEA51FA4F8591949108958CEE9F
:1020500095E008950F931F93282F8091EE03882316
:1020600009F44BC09091E003921346C00091EA033B
:102070001091EB032091EC033091ED034091B70EEA
:102080005091B80E6091B90E7091BA0E04171507F1
:102090002607370789F5913051F54091E6035091B5
:1020A000E7036091E8037091E9038091960E9091A7
:1020B000970EA091980EB091990E481759076A078C
:1020C0007B07D1F44091E2035091E3036091E40374
:1020D0007091E5038091920E9091930EA091940ED1
:1020E000B091950E481759076A077B0729F481E0DC
:1020F0009091EF03911101C080E01F910F9108951D
:102100008091FC0E9091FD0E0E9458AE882369F0DC
:102110008091D80E9091D90E0E9458AE882329F054
:102120008091D00E9091D10E089590E080E00895B6
:102130008091D80E9091D90E0E9458AE882329F034
:102140008091D20E9091D30E089590E080E0089592
:102150008091FC0E9091FD0E0E9463AE81110C9453
:10216000FCA780E008954F925F926F927F92AF92AA
:10217000BF92CF92DF92EF92FF920F931F93CF9374
:10218000DF93FA01C489D589C217D30789F0F12CEE
:102190008F2DDF91CF911F910F91FF90EF90DF90E6
:1021A000CF90BF90AF907F906F905F904F900895C9
:1021B000270138018A015B016C01C301B7010E944C
:1021C000A0BFF82E882319F3BE01C8010E94A49D68
:1021D000B092D10EA092D00ED092D30EC092D20E59
:1021E00010929A0ECE01B0E0A0E08093AF0E9093D3
:1021F000B00EA093B10EB093B20E4092A70E5092C3
:10220000A80E6092A90E7092AA0E840D951DA61DAF
:10221000B71D8093AB0E9093AC0EA093AD0EB09310
:10222000AE0E109294031092A30E1092A40E109270
:10223000A50E1092A60E1092850E0E9480A3A8CF24
:10224000AF92BF92CF92DF92EF92FF920F931F93C4
:10225000CF93DF935C01009709F462C06817790798
:1022600008F45EC0FA01C489D589C217D30709F002
:1022700057C067017801CA018B01BE010E94A49D6D
:102280001093D10E0093D00EB092D30EA092D20E26
:10229000CE01B0E0A0E08093AF0E9093B00EA0937B
:1022A000B10EB093B20E1092A70E1092A80E10921B
:1022B000A90E1092AA0E8093AB0E9093AC0EA09331
:1022C000AD0EB093AE0EC0928C0ED0928D0EE092F9
:1022D0008E0EF0928F0E1092880E1092890E109230
:1022E0008A0E10928B0E81E080939A0E10929403C6
:1022F0001092A30E1092A40E1092A50E1092A60E8C
:102300001092850E0E9480A381E0DF91CF911F91F2
:102310000F91FF90EF90DF90CF90BF90AF90089516
:1023200080E0F3CF0F931F93CF93DF931F92CDB72E
:10233000DEB700E001C0082F10E0409190035091FB
:10234000910360919203709193038091B70E9091E5
:10235000B80EA091B90EB091BA0E481759076A0786
:102360007B0740F000E0802F0F90DF91CF911F910D
:102370000F910895CE0101960E9430C1882391F3F8
:1023800099819923C1F20023B9F2963121F41F3FBC
:10239000A1F21F5FD2CF953A61F6123050F2E3CF2F
:1023A0007F928F929F92AF92BF92CF92DF92EF92E5
:1023B000FF920F931F93CF93DF9300D01F92CDB75F
:1023C000DEB7782E6B015A01490165EA90E080E0A2
:1023D0000E94C29D7C010E9492118823B9F0CE0117
:1023E00001960E9430C1882389F0CE0102960E9496
:1023F00030C1882359F0CE0103960E9430C1882352
:1024000029F06981711004C0662331F020E048C0D2
:10241000862F8B7F8130D1F70A811B81C801F5019E
:1024200091838083711003C08034910579F7C701CF
:102430000E94C29D602F0E94C29D612F0E94C29D7A
:102440007C018091900390919103A0919203B091AF
:102450009303F40180839183A283B38310E000E0AF
:10246000F501808191810817190768F1CE01049662
:102470000E9430C1882351F26C81C7010E94C29D25
:102480008C01CE0104960E9430C1882309F4BECF8E
:102490006C81C8010E94C29D21E0892B09F0B6CF52
:1024A000822F0F900F900F900F90DF91CF911F917F
:1024B0000F91FF90EF90DF90CF90BF90AF909F90E3
:1024C0008F907F900895CE0104960E9430C188239A
:1024D00009F49CCF6C81C114D10439F0003411058A
:1024E00020F4F601E00FF11F6083C7010E94C29D36
:1024F0007C010F5F1F4FB4CFCF92DF92EF92FF921C
:102500000F931F938091C103882389F10E9430DCCF
:102510000091BD031091BE032091BF033091C00311
:10252000DC01CB01801B910BA20BB30B0091C2030A
:102530001091C3032091C4033091C5036801790150
:10254000C094D094E094F094C816D906EA06FB062D
:10255000A8F0080F191F2A1F3B1F0093C2031093F6
:10256000C3032093C4033093C5031092C1031F918A
:102570000F91FF90EF90DF90CF9008950FEF1FEF36
:102580009801EBCFCF93DF93C091F00ED091F10E75
:102590002297AC0161E170E08AED9EE00E948C6FB1
:1025A0000E947C120E942BB584E090E09093F10E83
:1025B0008093F00E229720F40E94FCA7882329F034
:1025C00081E0DF91CF910C9446B2DF91CF910895D5
:1025D000CF93DF93C091F00ED091F10E2297009728
:1025E000F9F48AED9EE0009731F04BED55E061E1A2
:1025F00070E00E94786F0E947C120E942BB584E0EC
:1026000090E09093F10E8093F00E229720F40E94B8
:10261000FCA7882379F081E0DF91CF910C9446B23A
:1026200040E150E0BC018AED9EE00F9463021092FD
:10263000EA0EE1CFDF91CF9108950E947C12809144
:10264000EC0E9091ED0EA091EE0EB091EF0E009772
:10265000A105B10541F08093C2039093C303A093F9
:10266000C403B093C50308958091C10381110DC0C7
:102670000E9430DC6093BD037093BE038093BF0360
:102680009093C00381E08093C10308954F925F92BD
:102690006F927F928F929F92AF92BF92CF92DF9272
:1026A000EF92FF92CF93DF93EC019A01AB0160911F
:1026B0001102709112028130910541F060910F0278
:1026C00070911002039711F46CE775E12B01712CE6
:1026D000612C64E170E0C130D10511F468E270E072
:1026E0004B01B12CA12C880C991CAA1CBB1CA9E085
:1026F000B0E00F94C9006B017C0124E1C20ED11C33
:10270000E11CF11CC40CD51CE61CF71C0E94A9A4FA
:10271000882329F0229722E630E0229710F022E069
:1027200030E0C80CD91CEA1CFB1CC701B601620FC3
:10273000731F811D911DDF91CF91FF90EF90DF906E
:10274000CF90BF90AF909F908F907F906F905F9051
:102750004F9008952F923F924F925F926F927F9287
:102760008F929F92AF92BF92CF92DF92EF92FF92A1
:102770000F931F93CF93DF93CDB7DEB764970FB658
:10278000F894DEBF0FBECDBF2C011B013A01088BB0
:10279000198B2A8B3B8BAC8A8B828130910509F097
:1027A0004CC000911102109112021A83098308E2B1
:1027B00010E049815A819A0150E040E02C833D832A
:1027C0004E835F83C801B0E0A0E0280F391F4A1F85
:1027D0005B1F288739874A875B87280F391F4A1F65
:1027E0005B1F2C873D874E875F8749015A0152E066
:1027F000850E911CA11CB11CA9E0B0E09601A701B7
:102800000F94C900AB01BC01F1013197ED30F10526
:1028100008F035C18827E05FFB4E8F4F0D94B20062
:102820002B14501461146E14831483148314C31472
:10283000C314C314FD143F152215039749F00091EA
:102840000F02109110021A83098304E110E0B1CF46
:102850000CE715E1F8CF09811A81B80166197709EB
:102860006016710610F070E060E090E080E0649621
:102870000FB6F894DEBF0FBECDBFDF91CF911F9191
:102880000F91FF90EF90DF90CF90BF90AF909F900F
:102890008F907F906F905F904F903F902F90089512
:1028A0006016710658F4061917096C817D818E81B6
:1028B0009F81600F711F811D911DD9CF10E000E035
:1028C000F4CF6016710638F4061917096885798502
:1028D0008A859B85EECF10E000E0F8CF82E090E0A3
:1028E0008619970912E06116710410F090E080E0FB
:1028F0000C851D852E853F85080F191F211D311D53
:10290000C901B801B4CF26013701088919892A897C
:102910003B89041515052605370510F428013901F2
:10292000A9E0B0E0A30192010F94C90091012650E3
:1029300031092230310510F5452846284728F1F0A5
:10294000AB01BC01495051096109710988E090E06F
:10295000A0E0B0E016E02116310441F428E030E0B8
:102960000C89201B3109C901B0E0A0E08A019B015C
:10297000080F191F2A1F3B1FC901B801680D791DD7
:102980008A1D9B1D74CF840E951EA61EB71E4B81FB
:10299000433008F042E050E09A01A9E0B0E00F9423
:1029A000BA0091012950310922303105B8F41B8158
:1029B0001123A1F09A01215031090F94BA0029E0A6
:1029C00022163104A9F408E010E03C89031B110928
:1029D00030E020E0600F711F821F931F633171058B
:1029E0008105910558F262E170E080E090E0C6CF89
:1029F00008E010E020E030E0EDCF6A017B0182E1E9
:102A0000C80ED11CE11CF11C0E94A9A4882349F026
:102A100092E0491A510882E690E0A2E04A16510479
:102A200010F082E090E06816790648F4861997095C
:102A3000C80CD91CEA1CFB1C970186015DCF90E0F5
:102A400080E0F6CFA601B701C20164960FB6F894F4
:102A5000DEBF0FBECDBFDF91CF911F910F91FF90D1
:102A6000EF90DF90CF90BF90AF909F908F907F902E
:102A70006F905F904F903F902F900C94461360E0C2
:102A800070E0CB01F4CE8F929F92AF92BF92CF9223
:102A9000DF92EF92FF920F931F93CF93DF9300D0BB
:102AA00000D000D01F92CDB7DEB71D821E821F82DC
:102AB00018861092B30E1092B40E1092B50E1092AA
:102AC000B60E1092950310929603109297031092EF
:102AD000980336E0C32E30E1D32EF12CE12C812C6B
:102AE000912C540110E0F60181916F010E94AA9F80
:102AF000880E911CA11CB11CE80EF11C1F5F103840
:102B000091F7CE0105966C019501840140E850E0F3
:102B100060E070E081E00E94BA9F882389F16091B3
:102B20009F0E7091A00E8091A10E9091A20E0E9416
:102B3000F0BF882329F160919B0E70919C0E8091CB
:102B40009D0E90919E0E9E01275F3F4FAE014F5FFD
:102B50005F4F0E9452C6882399F0E984FA84098164
:102B60001A812B813C8140919B0E50919C0E60916B
:102B70009D0E70919E0E80E00E94BA9F811115C03B
:102B800010E0812F2A960FB6F894DEBF0FBECDBF9E
:102B9000DF91CF911F910F91FF90EF90DF90CF9039
:102BA000BF90AF909F908F9008958D819E81AF814F
:102BB000B8858F3FFFEF9F07AF07BF0739F001963A
:102BC000A11DB11DB695A795979587958093B30ED6
:102BD0009093B40EA093B50EB093B60E60919F0E75
:102BE0007091A00E8091A10E9091A20E0E94F0BF54
:102BF000182F8111C6CF66E070E084E994E00E944E
:102C00003FBDBFCF1F93CF93DF93809106128130DA
:102C100051F080910612833031F0C0E08C2FDF91AB
:102C2000CF911F91089510927B038091840E882389
:102C300009F45FC081E080936F0310926E03E0910E
:102C4000B40FF091B50F309711F08FEF19950E94E6
:102C50004315882379F160919F0E7091A00E8091A9
:102C6000A10E9091A20E0E94F0BF882319F110923C
:102C7000A30E1092A40E1092A50E1092A60E0E9402
:102C800080A30E949DC8C82F81112FC080917B0313
:102C9000882319F21092071281E080930612109295
:102CA000A30E1092A40E1092A50E1092A60E0E94D2
:102CB00080A3B4CFC0917B03CC2381F01092071284
:102CC00081E0809306121092A30E1092A40E10922F
:102CD000A50E1092A60E0E9480A39FCF66E070E022
:102CE00088EE94E00E943FBD99CF10926F0310923E
:102CF000840E82E0809306128091820E9091830E62
:102D0000049719F080E00E9446B2C091790ECC235E
:102D100009F43FC01092800E81E09091740E9111E1
:102D200001C080E00E948DB11FB7F8948091750EAC
:102D3000D0E3811101C0D0E082E08093181281E0DD
:102D40000E947BB285E088BBD360D09390008091D5
:102D500071008A7F809371008091750E882329F01D
:102D6000809171008460809371008091780E882337
:102D700021F08091770E882329F080917100816085
:102D80008093710089E1809391001092790E1FBFAA
:102D900045CF8091820E9091830E049729F4DF91A4
:102DA000CF911F910C9498B1DF91CF911F910C940A
:102DB0001DB32F923F924F925F926F927F928F92AC
:102DC0009F92AF92BF92CF92DF92EF92FF920F93BA
:102DD0001F93CF93DF93CDB7DEB7C657D1090FB698
:102DE000F894DEBF0FBECDBF8C01E090D80EF090FE
:102DF000D90E4090B70E5090B80E6090B90E7090FA
:102E0000BA0E1092840E019711F410E000E0C80190
:102E10000E94C39E80919A0E811145C10E94A6B066
:102E200060939F0E7093A00E8093A10E9093A20EBC
:102E30008091AF0E9091B00EA091B10EB091B20EF4
:102E400080939B0E90939C0EA0939D0EB0939E0E2C
:102E50001093CF0E0093CE0E8091D80E9091D90E84
:102E60000E9458AE811123C11092BB0E8091D80EE2
:102E70009091D90E0E9458AE8823C1F080919A0E8D
:102E8000882309F43AC14090AF0E5090B00E609084
:102E9000B10E7090B20E109295031092960310929C
:102EA000970310929803EE24E394F12C40919F0E27
:102EB0005091A00E6091A10E7091A20EE3964CAFBE
:102EC0005DAF6EAF7FAFE3970E94CEA301151105F2
:102ED00009F445C2C8010B97049708F440C2EA946C
:102EE000EF2809F03CC286E090E1892B09F437C253
:102EF00020910610213019F0263709F030C22093B6
:102F0000C90F81E1E7E0F0E1AAECBFE001900D928A
:102F10008A95E1F740911810509119105093C40F01
:102F20004093C30F20901A1030901B103092C60FA0
:102F30002092C50F60911C1070911D107093C80FE6
:102F40006093C70F3DE0E8E1F0E1ABEDBFE0019039
:102F50000D923A95E1F7E396CCACDDACEEACFFAC6C
:102F6000E397C092E80FD092E90FE092EA0FF09257
:102F7000EB0F4115510509F4F2C14101B12CA12C0F
:102F8000BA0190E080E0E7966CAF7DAF8EAF9FAF67
:102F9000E7976A017C01C80CD91CEA1CFB1C71E094
:102FA000C716D104E706F10408F0D9C1E7968CAD45
:102FB0009DADAEADBFADE797E3964CAD5DAD6EADEB
:102FC0007FADE397840F951FA61FB71F48165906BC
:102FD0006A067B0608F4C3C10F30110509F420C648
:102FE000A801465051094330510508F419C6003173
:102FF000110509F44EC698012950310922303105D6
:1030000008F46FC20330110509F427C2043011051A
:1030100009F0C5C111E5211450E1350608F413E5A6
:103020000E9483A4180F1F5F412E512C712C612C1C
:10303000D301C201885F9E4EAF4FBF4F69E0C616F5
:1030400061E1D606E104F10408F468C08816990627
:10305000AA06BB0608F062C08091C50F9091C60F0A
:10306000B0E0A0E02091C30F3091C40FAC01BD01CE
:10307000420F531F611D711D4130504C6105710598
:1030800008F063C1612F80E090EC0E941DA88823A6
:1030900009F465C185E090E09093BE0F8093BD0F69
:1030A00080E090EC4BC060E070E0CB01B9CE87E0EF
:1030B00090E1892B09F4E7C58BEB9EE0009709F4BA
:1030C000DDCEA7E0B0E1FC018D9181932EE0EC3CD8
:1030D000F207D1F71092CC0E41E061E18BEB9EE05C
:1030E0000E947DA98111C2CE4DE954E062E170E0F9
:1030F0008BEB9EE00E94786FB9CE4090AB0E509063
:10310000AC0E6090AD0E7090AE0E1092B30E109299
:10311000B40E1092B50E1092B60EBDCE612F88E09F
:1031200091E10E941DA8882309F496CF84E090E0E5
:103130009093BE0F8093BD0F88E091E19093C00FF4
:103140008093BF0F812F90E09093C20F8093C10FA7
:1031500081E08093B60F0E949EA3882309F40CC2DD
:103160008AEC9FE0892B09F4E9C0D090C70FE0906A
:10317000C80FB090C50FC090C60F9090C30FA0901D
:10318000C40FF090C10F0091BF0F1091C00F6F2DB1
:10319000C8010E941FD8882309F4D0C00E94AAD871
:1031A000811101C081E0075B1F4F6FEA60931E1021
:1031B00091E290931F101092201050ED5093211027
:1031C00077E77093221021E12093231041E0409390
:1031D0002410509325104093261037EE309327107B
:1031E00033E0309328103DEE30932910E0EBE0936C
:1031F0002A1090932B1000932C1010932D102093D5
:103200002E1010922F105093301040933110809355
:1032100032101092331030933410E093351086E161
:103220008093361084EE809337104EE1409338102F
:1032300040EE4093391090933A1010923B10109248
:103240003C104AE440933D1030933E1059E75093B0
:103250003F104EE7409340104BE4409341103093B1
:103260004210509343107093441033E23093451052
:103270003BEC3093461034E63093471038E23093FD
:10328000481033EF309349103EE330934A1035E154
:1032900030934B1032E330934C1040934D103AE092
:1032A00030934E1090934F1090925010A092511066
:1032B00032E23093521042E0409353102093541066
:1032C00090935510B0925610C092571030935810EA
:1032D00094E09093591020935A109DEC90935B10BA
:1032E0009AE290935C1010925D109AED90935E10AC
:1032F0009EEF90935F10109260106093611093EDB9
:10330000909362108093631083EC80936410D0924A
:103310006510E09266100E94AAD82AEC3FE0A7E66A
:10332000B0E190E081111BC1E7E0FBE1E491E093A3
:10333000671081E0875BF81609F445C167E070E02B
:103340008AEC94E00E943FBDAEC2F0EC5F0E611CBF
:10335000711C84159505A605B70508F093CE8091DC
:103360009A0E882309F44CC4109295031092960388
:1033700010929703109298031092A30E1092A40E2D
:103380001092A50E1092A60E0E9480A381E0809359
:10339000840E81E090E00E940E9E11E034C1053061
:1033A000110509F088C08AEC9FE010E0892B39F004
:1033B0000E94AAD8811101C081E019E4180F8FEF93
:1033C000810F883660F6412E512C712C612CD3016F
:1033D000C201885F9E4EAF4FBF4F29E0C21621E168
:1033E000D206E104F10428F188169906AA06BB0664
:1033F00000F58091C50F9091C60FB0E0A0E020913C
:10340000C30F3091C40FAC01BD01420F531F611DAA
:10341000711D4130504C61057105A8F4612F80E0A9
:1034200090EC0E941DA8882309F499CF87E090E0D2
:1034300033CE612F88E091E10E941DA88823C9F254
:1034400086E090E075CE40EC540E611C711C841532
:103450009505A605B70510F782CF51E1C516D5062B
:10346000E104F10428F060E7261661E1360688F0F1
:1034700083E090E09093BE0F8093BD0F1092BA0F3F
:1034800080E191E19093C00F8093BF0F80E690E0C0
:103490005BCE71E0C71670ECD706E104F10408F0CA
:1034A0005ECF83E090E09093BE0F8093BD0F81E0EC
:1034B0008093BA0FE5CFB1E0CB16B1E1DB06E104B2
:1034C000F104A8F581E090E09093BE0F8093BD0FCA
:1034D00080E091E19093C00F8093BF0F85E590E06D
:1034E000C8C3E1E0CE16E4EDDE06E104F10440F0ED
:1034F000FAE58F16F4ED9F06A104B10408F42FCF6E
:1035000090E080E04B30510528F44D515D4FDA01D9
:103510008C9190E09093BE0F8093BD0F80E094ED6E
:103520009093C00F8093BF0F8AE590E0A2C3B5E5EA
:103530008B16B1E19B06A104B10420F6E1E0CE16A2
:10354000E0ECDE06E104F10408F009CF82E090E04F
:103550009093BE0F8093BD0F80E090ECBBCF9F5F38
:10356000F90141919F01E42FF0E0E951F54EE4911A
:10357000ED938913F4CFDECE0E94AEA3882309F425
:103580005DC068E670E0CE0101960E94D3A48C0174
:103590008091C10F9091C20F0817190709F0CECE84
:1035A000602F8091BF0F9091C00F0E941FD8882379
:1035B00009F4C4CEA8015527BE016F5F7F4F8EE18D
:1035C00090E10F943C020E94BEA38111EBC00E94C7
:1035D000F0A78111E7C00E949EA3182F8111E2C0BD
:1035E00060E072E089E192E10E94D3A49C01215045
:1035F00031092F3F374008F49DC067E070E08CEA46
:1036000094E00E943FBD812FCA58DF4F0FB6F89457
:10361000DEBF0FBECDBFDF91CF911F910F91FF9005
:10362000EF90DF90CF90BF90AF909F908F907F9062
:103630006F905F904F903F902F9008950091BD0F35
:103640001091BE0FC8010E94C5A4E090BF0FF0907A
:10365000C00F0330110511F08823C9F09BEB909344
:103660000610109218101092191010921A1092E170
:1036700090931B10E0921C10F0921D1081112EC02F
:103680008091C90F80931E108091C40F34C0C8016F
:103690000E949BA42091C10F9091C20F882309F42E
:1036A0003CC02093181090931910E0921A10F092D9
:1036B0001B10E0921C10F0921D108EE190E100971B
:1036C00009F481CFE4EAF4E0DC0186E290E12491A0
:1036D0002D9331968A179B07D1F775CF81E08093A0
:1036E0001E100950110981E10530110520F4025125
:1036F0001D4FD8018C9180931F1086E0EBEDFFE009
:10370000A0E2B0E101900D928A95E1F760E670E0E9
:1037100086E290E10E94D3A456CF20931810909394
:103720001910E0921A10F0921B10E0921C10F09207
:103730001D1049CFE9E1F2E130E020E04191D901EB
:10374000AA56BB4F4C932F5F3F4F82179307B1F799
:103750002FB7F8941092800310927F039093710317
:103760008093700331E0309301022FBFB0E0A0E0FE
:103770008093AF0E9093B00EA093B10EB093B20EA3
:103780008093A30E9093A40EA093A50EB093A60EC3
:103790001092AB0E1092AC0E1092AD0E1092AE0EB7
:1037A0001092850E0E94D5A7882309F40FC23E010E
:1037B000E9E66E0E711CD3011D921D921D921C92A2
:1037C0001397A6E0EA2EA0E1FA2EB6E8CB2EB0E1E0
:1037D000DB2E10E000E0212C312C2101F70181913A
:1037E0007F010E94AA9F280E311C411C511C080F0A
:1037F000111DCE14DF0491F729823A824B825C823C
:10380000AF961FAF0EAFAF9780900C02912CA09097
:103810000E02B12CC0901102D0901202F12CE12CBA
:103820007F926F92209108023091090280910602E6
:1038300090910702B0E0A0E0820F931FA11DB11D7F
:10384000BF93AF939F938F93209104023091050211
:103850008091020290910302B0E0A0E0820F931FDA
:10386000A11DB11DBF93AF939F938F931F9282E0D1
:103870008F931F921F9280910A021F928F93A20131
:10388000910160E870E080E090E00E94F1A10FB645
:10389000F894DEBF0FBECDBF811107C08091061224
:1038A000863009F083C110E0AECE0E94A9A488231F
:1038B00009F483C060E072E089E192E10E94D3A440
:1038C0005C01892B59F38091B60F882339F38091DD
:1038D000C10F9091C20FA816B90601F7F9E1CF2EDA
:1038E000F2E1DF2E10E000E0212C312C2101C60195
:1038F000895192418A159B0560F4D6018D916D0125
:103900000E94AA9F280E311C411C511C080F111D3A
:10391000EECF29823A824B825C82AF961FAF0EAF08
:10392000AF9780900B02912C80910D02A82FB0E0F0
:10393000C0900F02D0901002F12CE12CB50190E064
:1039400080E07F926F92E0910802F091090220914D
:1039500006023091070250E040E02E0F3F1F411D4C
:10396000511D5F934F933F932F93E0910402F09189
:103970000502209102023091030250E040E02E0F38
:103980003F1F411D511D5F934F933F932F931F92F4
:103990001F921F9222E62F9320910A021F922F93CB
:1039A0005D01A20191010E94F1A10FB6F894DEBF62
:1039B0000FBECDBF882309F471CF60919F0E709127
:1039C000A00E8091A10E9091A20E0E94F0BF8823BC
:1039D00009F464CF60919B0E70919C0E80919D0EB6
:1039E00090919E0E9E0123593F4FAE014F5F5F4F56
:1039F0000E9452C6182F882309F463C0AF960EADFB
:103A00001FADAF9729813A814B815C8120909B0E3D
:103A100030909C0E40909D0E50909E0EE091BD0FF8
:103A2000F091BE0F3697E930F10508F0BDC0882748
:103A3000E35EF24E8F4F0D94B200B31DB31D341DE3
:103A40002D1DCD1DC71DC01D261DBA1D92E080E095
:103A5000EFE3FCE367E27FE10DC092E080E0E8EF96
:103A6000F8E169E47DE006C092E080E0E4E1F5E1A0
:103A700065E27CE07F926F921F921F92FF93EF931B
:103A80001F921F927F936F931F929F931F928F930A
:103A90001F9282E08F9364E1862E912C74E1A72E11
:103AA000B12CECE7CE2EE5E1DE2EE12CF12CC201AB
:103AB000B1010E94F1A1182F0FB6F894DEBF0FBE1E
:103AC000CDBF60919F0E7091A00E8091A10E90913C
:103AD000A20E0E94F0BF882309F4E0CE112309F45E
:103AE000DDCE0E949EA38823B1F0F30180819181F5
:103AF000A281B381803EFCEF9F07FFEFAF07BF07B6
:103B000008F0CCCE805E9C4FAF4FBF4FF301808357
:103B10009183A283B383F30180819181A281B381D8
:103B20008F3FFFEF9F07AF07BF0739F00196A11D39
:103B3000B11DB695A795979587958093B30E9093F1
:103B4000B40EA093B50EB093B60E0E94F0A78111EB
:103B500005C00E949EA3882309F41BCC0E94D8C8EC
:103B6000811117CCA0CE92E080E0E0E0F4E160E0CB
:103B70007AE080CF90E082E6EEE9FEE36FE46BCF7F
:103B800090E082E6E8E5F3E26CEA71E173CF90E061
:103B900082E6E0E4FAE160E265CF92E080E0EDEEFB
:103BA000FEE16EEC7FE066CF10E08BCF8091D80E07
:103BB0009091D90E0E9458AE882329F08FEB94E0A3
:103BC00067E070E0BFCB86EB94E0FACF8091D80E2F
:103BD0009091D90E0E9458AE1092B30E1092B40E6E
:103BE0001092B50E1092B60E882309F4AECF109243
:103BF0009503109296031092970310929803A5CF05
:103C00008091D80E9091D90E0E9458AE811103C0B8
:103C10000E949DC8A5CF0E9443158111F9CF43CEC4
:103C2000213009F09CCB81E1C816D806E104F104EB
:103C300040F090E7891691E19906A104B10408F4D7
:103C40008ECB0650110990E080E00B30110528F46E
:103C50000D511D4FD8018C9190E09093BE0F809331
:103C6000BD0F80E191E19093C00F8093BF0F80E67C
:103C700090E02091BD0F3091BE0F2230310509F048
:103C800063CA0F9661CA8BEB9EE0892B09F02CCAA0
:103C9000F5C821E0C21624EDD206E104F10408F4CF
:103CA00034CC3AE5831634ED9306A104B10408F44C
:103CB00056CB2BCCCF92DF92EF92FF920F931F93B4
:103CC000CF93DF931F921F92CDB7DEB7E090820EA5
:103CD000F090830E81E0E816F10409F04AC00E94DA
:103CE0009EA3882381F08091850E811106C00E94D9
:103CF000D8C8811102C010E025C083E090E00E9486
:103D00000E9E11E01FC00E94BEA3182F882351F100
:103D10000E94AEA3882311F180E00E942EB581E0BD
:103D20000E948DB184E090E09093830E8093820E88
:103D30001092810E1092800E10927F0E10927E0EC5
:103D400010927D0E812F0F900F90DF91CF911F91D8
:103D50000F91FF90EF90DF90CF90089581E00E9447
:103D60002EB5E0CF0E94F0A78111BDCF82E090E098
:103D7000C6CF82E0E816F10421F40E94D5A7811194
:103D8000B6CFC7010297029738F067E070E08EED7A
:103D900094E00E943FBDAFCF82E0E816F10429F421
:103DA0000E94FCA7182F8111D9CF8091D80E909135
:103DB000D90E8230910509F060C00E94A6B0009132
:103DC000B70E1091B80E2091B90E3091BA0E60174F
:103DD00071078207930768F48091D20E9091D30EF9
:103DE000009739F02091D00E3091D10E82179307B1
:103DF00020F084E08093061284CF60919F0E709132
:103E0000A00E8091A10E9091A20E00919B0E109198
:103E10009C0E20919D0E30919E0E600F711F821F8F
:103E2000931F0E94A0BF182F811107C066E070E0A9
:103E300085ED94E00E943FBD85CF8091D20E909198
:103E4000D30E01969093D30E8093D20E0E94C5C2DA
:103E5000882309F450CFBE016F5F7F4F8091D20E4F
:103E60009091D30E0E94DBD1882309F444CF89813D
:103E70009A810E94D916182F65CF089709F4B9CFF7
:103E800082E0E816F10409F0B4CF0E94A6B00091D8
:103E9000B70E1091B80E2091B90E3091BA0E60177E
:103EA00071078207930708F0A4CF68017901C61A49
:103EB000D70AE80AF90AB701A6014093AF0E50935A
:103EC000B00E6093B10E7093B20E0093AB0E1093D0
:103ED000AC0E2093AD0E3093AE0E1092A30E109246
:103EE000A40E1092A50E1092A60E0E9480A30E940E
:103EF0009DC8882309F4FFCE39CF2F923F924F926D
:103F00005F926F927F928F929F92AF92BF92CF9269
:103F1000DF92EF92FF920F931F93CF93DF93CDB772
:103F2000DEB7CA5AD1090FB6F894DEBF0FBECDBFB7
:103F30001C0181E00E942A10C956DF4F8883C759AF
:103F4000D040882309F427C18091EF03282F30E067
:103F50003093D10E2093D00E2114310421F5C9568F
:103F6000DF4F1882C759D040C956DF4F8881C759E3
:103F7000D040C655DF4F0FB6F894DEBF0FBECDBFA1
:103F8000DF91CF911F910F91FF90EF90DF90CF9035
:103F9000BF90AF909F908F907F906F905F904F9069
:103FA0003F902F90089522153305C8F20FEF020DB0
:103FB0000817A8F68091E1038093910E26E0029FF6
:103FC00020011124820108571F4EF201E957FF4ECC
:103FD000808190E0B0E0A0E0BA2FA92F982F882729
:103FE000F201EA57FF4E2081822BF801408150E018
:103FF00070E060E0BA0155274427442755276770D1
:104000007727842B952BA62BB72B80936A0390934D
:104010006B03A0936C03B0936D031092870E109204
:10402000860E65EA90E080E00E94C29D60E00E94FA
:10403000C29D60E40E94C29D60E00E94C29D6C012E
:104040007E01F1E4EF0EF11C5E0121E8A20EB11C2D
:1040500037014701C7010E94A6C4882309F47FCF16
:104060003FEFE31AF30AD4016C91C6010E94C29D8E
:104070006C01EA14FB0469F7CE0101960E94A6C404
:10408000882309F46CCF6981C6010E94C29D7C011E
:10409000CE0101960E94A6C4882309F460CF6981ED
:1040A000C7010E94C29D892B09F059CFF3014489B1
:1040B0005589CB56DF4F59834883C559D040F2010B
:1040C000E657FF4E8081F201E757FF4EC080D12CAA
:1040D000F12CE12CB5E0CC0CDD1CEE1CFF1CBA95DC
:1040E000D1F7D8018C90912CB12CA12C13E0B6946F
:1040F000A794979487941A95D1F7C828D928EA28C5
:10410000FB28882E912CB12CA12C0DE0880C991C39
:10411000AA1CBB1C0A95D1F78824B0EE9B22B7E0FD
:10412000AB22BB2487017601E828F9280A291B293C
:10413000C357DF4FE882F9820A831B83CD58D040F2
:10414000F201E557FF4E2081E4E02E9F90011124FB
:1041500090E066E0959587956A95E1F7282B392BD5
:10416000A8EEB3E00F94BA006093B30E7093B40E50
:104170008093B50E9093B60E6091D00E7091D10ED3
:104180009A01A301C1010E942011C956DF4F888303
:10419000C759D040E9CE1092EE030E946FA300E011
:1041A000FF24FA948091900E002331F091E0801763
:1041B00008F490E0802F891B8093910E10926A037F
:1041C00010926B0310926C0310926D03F092000238
:1041D0001092870E1092860E0E94C8C4882309F49C
:1041E00011C265EA90E080E00E94C29D6C01CE01A0
:1041F0008F579F4F0E94A6C4882309F403C2CE01A3
:104200008F5B9F4F0E94A6C4882309F4FBC1CE0197
:1042100001960E94A6C4882309F4F4C1CF57DF4F4A
:104220001881C158D040612FC6010E94C29D2296BC
:104230006FAD22970E94C29D69810E94C29D892B09
:1042400059F610FDC9CF153638F6112309F4DEC131
:104250001695612F70E07093D10E6093D00E2114EB
:10426000310409F4D3C16215730508F4CFC1F6E82F
:104270006F2EF0E17F2EC456DF4F1882CC59D0400C
:10428000C656DF4F19821882CA59D040442443943D
:10429000512CC356DF4F1882CD59D040C256DF4F44
:1042A0001882CE59D040C156DF4F1882CF59D04026
:1042B000C056DF4F1882C05AD0408091D00E9091E6
:1042C000D10E8415950508F4B1C1F12CE12C10E054
:1042D00000E09E0127573F4FAE014D565F4FBE0194
:1042E0006F5F7F4F80E00E94F7C4882309F48EC17E
:1042F0009E012F563F4F79018E010B571F4F2450BF
:104300003109AE014B565F4F70E060E085E00E94DE
:10431000F7C4882309F47AC18D899E89C856DF4F76
:1043200099838883C859D040CB56DF4F88819981C3
:10433000C559D040C856DF4FA881B981C859D0406F
:10434000A817B90709F062C1CF56DF4FE881F9819C
:10435000C159D040CF55DF4FF983E883C15AD040CF
:10436000CB57DF4F88819981AA81BB81C558D04046
:10437000CD55DF4F88839983AA83BB83C35AD0402E
:10438000CF57DF4F188219821A821B82C158D04042
:104390008091950390919603A0919703B091980313
:1043A000C955DF4F88839983AA83BB83C75AD040FE
:1043B000C856DF4F68817981C859D040CE01019637
:1043C0000E94A49D06E010E1F12CE12C812C912C9F
:1043D0005401D12CD8018D918D010E94AA9F880E85
:1043E000911CA11CB11CE80EF11CD394B0E8DB12A7
:1043F000F1CFFE01EF57FF4F6F019501840140E8B7
:1044000050E060E070E081E00E94BA9F182F88239E
:10441000D9F0C856DF4F28813981C859D040A90149
:1044200070E060E0CF55DF4FE880F980C15AD0409E
:10443000CD55DF4F088119812A813B81C35AD04075
:1044400080E00E94BA9F182FC955DF4F888199815B
:10445000AA81BB81C75AD04080939503909396035D
:10446000A0939703B0939803112309F4CFC0CF57BB
:10447000DF4F688179818A819B81C158D040685122
:104480007C4F8F4F9F4F20ED37E040E050E00F947E
:104490009000211594E039074105510508F0B9C095
:1044A000CF57DF4F288339834A835B83C158D0407D
:1044B000CF57DF4F288139814A815B81C158D04075
:1044C00093E34916510409F4A1C0C757DF4F888010
:1044D0009980AA80BB80C958D04081149104A8E07B
:1044E000AA06B10408F092C0C357DF4FC880D98034
:1044F000EA80FB80CD58D040C114D104B8E0EB066F
:10450000F10408F083C0C9012115E4E03E0710F072
:104510008FEF93E0D3018C9211969C9211976C2DA2
:10452000660F660F660F6A2912966C931297460102
:10453000570165E0B694A794979487946A95D1F74C
:1045400013968C921397682F6295660F660F607CA6
:10455000460157017DE0B694A794979487947A9585
:10456000D1F7682914966C9314979695879596952C
:10457000879515968C9342145304E9F580E4FE0167
:104580003196DE01AF5BBF4F01900D928A95E1F746
:10459000CB56DF4FE881F981C559D040C656DF4F71
:1045A000F983E883CA59D04044275527A8EEB3E0E1
:1045B0000F94C9006093B30E7093B40E8093B50E40
:1045C0009093B60EC456DF4F1883CC59D040C356D3
:1045D000DF4FC882CD59D040C256DF4FD882CE5966
:1045E000D040C156DF4FE882CF59D040C056DF4F90
:1045F000F882C05AD040FFEF4F1A5F0A26E0620EE1
:10460000711C5BCE0F5F003109F0CCCD1092B30F5F
:10461000ABCC8FEF93E0A0E0B0E0CF57DF4F8883C3
:104620009983AA83BB83C158D04042CFC456DF4F81
:104630003881CC59D040332349F34091B70E509183
:10464000B80E6091B90E7091BA0E4093EA03509380
:10465000EB036093EC037093ED034091960E509141
:10466000970E6091980E7091990E4093E6035093C7
:10467000E7036093E8037093E9034091920E509131
:10468000930E6091940E7091950E4093E2035093B7
:10469000E3036093E4037093E5039091910E90938C
:1046A000E1038093EF0381E08093E0038093EE03C6
:1046B0000E94C2D86091D00E7091D10EC356DF4FC8
:1046C000E880CD59D040C256DF4FF880CE59D04057
:1046D000C156DF4F0881CF59D040C056DF4F1881F7
:1046E000C05AD040C656DF4F28813981CA59D040C0
:1046F000AE014F5B5F4F46CD10926504109264048B
:104700001092A10FE7EBFCE013821282118210825B
:10471000EFE5F4E01182108210925E0410925D04C5
:104720001092590410925A0410925B0410925C0487
:104730001092AE0C1092AF0C1092B00C1092B10C03
:104740001092B20C1092B30C1092B40C1092B50CE3
:10475000109250041092510410925204109253047B
:1047600010926304109257041092B60C10926104D8
:10477000109258041092200410921F0410921E04EC
:104780001092AD0C1092AC0C10925604109255047D
:104790001092540410924F04089580915D04E82F04
:1047A000F0E0DF01AA0FBB1FA954B34F2D913C913C
:1047B000232B51F0E15AFB4F9081911105C091E0FC
:1047C0009083892780935D040895BF92CF92DF92F2
:1047D000EF92FF920F931F93CF93DF93B0905E04FD
:1047E000CB2DD0E0CE01815A9B4F6C01FC010081A2
:1047F00001110CC011E0812FDF91CF911F910F911A
:10480000FF90EF90DF90CF90BF9008950E9424B169
:10481000182F8111EFCFCC0FDD1FFE01E954F34FAC
:10482000E080F180C70101978115924070F589E120
:1048300092E1BB2011F086E090E1B7010E9460C0D8
:104840008E159F0511F58091590490915A04A091FD
:104850005B04B0915C048E0D9F1DA11DB11D809362
:10486000590490935A04A0935B04B0935C04C95418
:10487000D34F19821882F601108280915E0491E074
:10488000892780935E04102FB6CF8DE199E00E94B6
:10489000787AB1CFCF93DF9390915D04E92FF0E068
:1048A000DF01A15ABB4F2C91211133C029E132E124
:1048B000992311F026E030E1EE0FFF1FE954F34F8A
:1048C00040815181EA012196D183C083240F351F95
:1048D000F90180834091AE0C5091AF0C6091B00C07
:1048E0007091B10C4F5F5F4F6F4F7F4F4093AE0C95
:1048F0005093AF0C6093B00C7093B10C81E0C11574
:10490000D24021F48C93982790935D04DF91CF914E
:10491000089580E0FBCFFF920F931F93CF93DF9317
:104920001F921F92CDB7DEB7082FF92EBE016F5F21
:104930007F4F0E94EECE182F811113C040E150E04E
:104940006AE97CE081EA9FE00F9463021092B10F64
:10495000812F0F900F90DF91CF911F910F91FF90BA
:1049600008958A818F9389818F93FF920F938EE0B0
:1049700099E09F938F931F9280EA8F9389E194E14E
:104980009F938F930E94A16D01970FB6F894DEBF9D
:104990000FBECDBF8F399105D8F280E099E00E941B
:1049A000787A10E0D5CF80910C04811106C08091F7
:1049B0000B04811102C080910A040895AC0161E1E9
:1049C00070E081EA9FE00C948C6F181634F081EC53
:1049D00098E00E94DE2480E00895809314046091A2
:1049E0003C046093130490E00E94B58380913C04E2
:1049F00091E0892780933C0490933E0481E00895E0
:104A0000BF92CF92DF92EF92FF920F931F93CF93BB
:104A1000DF93B0901D04CB2DD0E0CE01855B9B4F82
:104A20006C01FC01008101110CC011E0812FDF91AC
:104A3000CF911F910F91FF90EF90DF90CF90BF909B
:104A400008950E9424B1182F8111EFCFCC0FDD1FE4
:104A5000FE01E554F34FE080F180C7010197811515
:104A6000924028F085EB98E00E94DE24DFCF89E1B8
:104A700092E1BB2011F086E090E1B7010E9460C096
:104A80008E159F0519F08AEA98E0EECF80914304D5
:104A900090914404A0914504B09146048E0D9F1D51
:104AA000A11DB11D8093430490934404A093450439
:104AB000B0934604C554D34F19821882F601108270
:104AC00080911D0491E0892780931D04102FAECFA3
:104AD000FF920F931F93CF93DF931F921F92CDB737
:104AE000DEB7082FF92EBE016F5F7F4F0E94EECE1A
:104AF000182F811122C08AE99CE0892B99F481EA60
:104B00009FE0009731F043E758E061E170E00E94D8
:104B1000786F812F0F900F90DF91CF911F910F91A0
:104B2000FF90089540E150E06AE97CE081EA9FE06F
:104B30000F9463021092B10FECCF89819A8120917A
:104B4000750F3091760F2530310501F59F938F93C6
:104B5000FF920F938BE998E09F938F931F9280EAC7
:104B60008F9389E194E19F938F930E94A16D0FB67B
:104B7000F894DEBF0FBECDBF01978F39910548F283
:104B80008EE798E00E94DE2410E0C3CF9F938F93BE
:104B9000FF920F938CE898E0DFCFDC019FB7F89489
:104BA00020910304309104044091010450910204C7
:104BB00080E04217530769F0F901F770EA56FB4F9E
:104BC00080818C932F5F3F4F309304042093030424
:104BD00081E09FBF08952F923F924F925F927F9204
:104BE0008F929F92AF92BF92CF92DF92EF92FF92FD
:104BF0000F931F93CF93DF931F921F92CDB7DEB712
:104C000022E0E22EF12C77247394CC24C394D12C8F
:104C1000E0914204F0E0E55BFB4F00810111CBC065
:104C200080913E04882391F08091140490911304A4
:104C3000911101C081950E94D90E811110923E04FC
:104C400080913E04882321F301E0B5C00E94D32463
:104C5000082F882309F400C180913D048823A1F323
:104C600080910C04882321F180904704909048049F
:104C7000A0904904B0904A04809112048823B1F0B6
:104C800081E00E94D90E882371F080920D049092E9
:104C90000E04A0920F04B0921004709211041092AE
:104CA0000C0470920B040E94D324CCCF8FEFE9CF79
:104CB00000910B04002371F080E00E94D90E88233C
:104CC00091F310920B0480910804882361F30E94F1
:104CD000BA0EE9CF80910A04882309F4B5CF109168
:104CE0000904812F111614F08FE7810F909112049F
:104CF000911101C0819590911104992309F4A7C0E5
:104D000080900D0490900E04A0900F04B0901004B9
:104D10008983409115045091160460911704709195
:104D200018042091BB0C3091BC0C2115310589F081
:104D300084169506A606B70660F01A012B01220E0E
:104D4000331E411C511C82149304A404B50408F4BE
:104D500047C04091190450911A0460911B0470914E
:104D60001C042091BD0C3091BE0C2115310591F031
:104D700084169506A606B70668F01A012B01220EC6
:104D8000331E411C511C26E030E182149304A4041C
:104D9000B50440F18091430490914404A0914504EE
:104DA000B091460488169906AA06BB0668F187EDFD
:104DB00098E00E94DE24802F0F900F90DF91CF911A
:104DC0001F910F91FF90EF90DF90CF90BF90AF9029
:104DD0009F908F907F905F904F903F902F9008957D
:104DE00029E132E1841A950AA60AB70A820E931EB7
:104DF000F401808310920A0411160CF068CF7092AF
:104E00000B04709208044FCF0E9424B1082F811127
:104E10004ACFC501B4010E94A0BF811103C08BEC31
:104E200098E0C7CF61E070E0CE0101960E9460C0BB
:104E30000197A9F76091430470914404809145045F
:104E4000909146040E94A0BF8111D4CFE8CF0E9468
:104E5000D90E8111CFCF27CF80913F04882341F015
:104E600010923F040E94E524882309F4A4CFD0CEF9
:104E7000CE0102960E94CD25882309F4E5CE20912B
:104E80004004309141048A812130310581F410922F
:104E900041041092400490EF980F903718F086EF7D
:104EA00098E087CF0E94E5248823C9F3B1CE223051
:104EB000310591F4109241041092400490913D0408
:104EC000992311F08F3F1CF482EE98E072CF80930B
:104ED000090470920A049CCE813029F4D0924104D6
:104EE000C092400495CE8230D9F580913D04811165
:104EF0002DC08091980F8823C1F010923904109230
:104F00003804109237040E94FBA98091280487304E
:104F100061F00E947682109227041092260410926B
:104F20002504109224041092230470923D04809171
:104F30003C04809312041092110410920C041092FD
:104F40000B0410920A041092080462CE809111049E
:104F5000811103C070920C045BCE70920B0458CE8A
:104F6000833029F4F0924104E092400451CE282F7E
:104F700030E094E0359527959A95E1F7182F1F704A
:104F80002115310519F48CEE98E013CF822F0E9481
:104F9000E524882309F40FCF112309F439CE1093A7
:104FA0003F0436CE4FB7F8942091030430910404A7
:104FB00080910104909102044FBF821B930B0895CE
:104FC000CF9380916204813069F5CFB7F8948091D6
:104FD00004018E7F80930401809105018E7F809370
:104FE00005018091030181708093BC038091BC0313
:104FF00080933B041092070410920604109205045B
:105000001092000490E080E00E945B0F82E08093A9
:1050100062040E94FFAE81E00E947BB2CFBF81E0BC
:10502000CF91089580E0FCCF0E94D9AEE3E7F0E095
:1050300080818D7F8083109221011092200182E077
:105040008ABB80E00C947BB2CF93DF93DFB7F894F8
:105050000E94D9AED19B0FC00E94B20FC82F811100
:105060000AC00E94142884E080936204DFBF8C2F62
:10507000DF91CF91089580912401909125011092A4
:105080002101909307048093060483E080936204D7
:1050900080E00E947BB2C1E0E9CF1F920F920FB671
:1050A0000F9211240BB60F922F933F934F935F9360
:1050B0006F937F938F939F93AF93BF93EF93FF93E0
:1050C00080916204823061F40E94A30F8823D9F09A
:1050D00082E00E94830F8823B1F081E08093050471
:1050E000FF91EF91BF91AF919F918F917F916F91C0
:1050F0005F914F913F912F910F900BBE0F900FBE7C
:105100000F901F9018950E94142884E080936204E9
:10511000E7CFCF93CFB7F8940E94142810920504DC
:105120001092000410926204CFBFCF910895CF93E4
:10513000CFB7F8940E94142810920404109203042C
:1051400010920204109201041092070410920604B7
:105150008CE991E390932B0280932A0282E0809362
:10516000290210923A041092BC0310923B04109250
:1051700005041092000410926204CFBFCF910895ED
:105180000E9497281092A00F10929F0F1092760FF6
:105190001092750F109219141092A10FEBEBFCE016
:1051A0001182108213821282EBE4F4E010821182E9
:1051B0001092420410921D04E5E1F4E01082118285
:1051C000128213821482158216821782109243046F
:1051D0001092440410924504109246041092470421
:1051E000109248041092490410924A04109241040B
:1051F0001092400410923F0410923C0410923E041E
:10520000109214041092130410923D041092120490
:105210001092110410920D0410920E0410920F04BB
:105220001092100410920C0410920B0410920A04B5
:1052300010920904109208040895CF93DF93EC01B3
:10524000D19910C080912401909125019983888380
:10525000109225011092240182E08ABB81E0DF9147
:10526000CF9108950E94B20F8823C9F3EBCFCF935B
:1052700020910504C0913A04222309F441C0CC23B3
:1052800059F0029696958795969587958038910561
:1052900070F080E0CF910895C2968436910530F089
:1052A00084569109CF5FC038C1F7F3CF8C2F40915E
:1052B0000104509102042091030430910404241B42
:1052C000350B2150384F2230310518F3209101045D
:1052D00030910204F901F770EA56FB4F93E0908396
:1052E000F9013196F770EA56FB4F80832E5F3F4FEE
:1052F00030930204209301041092050481E0CACF88
:10530000CC23F1F10296969587959695879500970F
:10531000A1F18038910508F0BCCFC82FC03108F446
:1053200050C00E94A30F882309F4B3CF4091010419
:10533000509102042091030430910404241B350B86
:105340002150384F2230310508F4A3CF20910104B9
:1053500030910204F901F770EA56FB4F91E0908317
:10536000F9013196F770EA56FB4FC0832E5F3F4F2D
:1053700030930204209301048DCF81E090E0CDCFE3
:10538000C2968436910530F084569109CF5FC038BB
:10539000C1F77FCFC111C2CF80910004C1E081115C
:1053A00003C0C0930004AACF20E1829FC001112452
:1053B0008C2B0E94830F882309F46BCF109200047A
:1053C00069CF80910004EBCF1F93CF93DF931FB77A
:1053D000F894C0910301C1708091BC038C1731F126
:1053E00080910604909107040E943729D82F8111DB
:1053F0000BC00E94142884E0809362041FBF8D2F8D
:10540000DF91CF911F910895C093BC0310920504C2
:1054100090E080E00E945B0F82E0809362040E9433
:10542000FFAE81E00E947BB2D1E0E8CF809106041C
:1054300090910704EFCF1F93CF93DF931F921F929A
:10544000CDB7DEB71A8219821FB7F8948091620433
:10545000823021F080916204833021F50E94D9AE20
:1054600080916204823029F5CE0101960E941D29A7
:1054700010922101909173009D7F9093730092E0B0
:105480009ABB8823F1F089819A810E943729882369
:10549000C1F00E94A30F8823A1F01092620480E063
:1054A0000E947BB21FBF0F900F90DF91CF911F9191
:1054B000089580910604909107049A83898381E07E
:1054C000D7CF84E080936204EACF2F923F924F922D
:1054D0005F926F927F928F929F92AF92BF92CF9284
:1054E000DF92EF92FF920F931F93CF93DF931F9260
:1054F0001F92CDB7DEB718160CF05CC060914F0458
:1055000090E00E941BAA382E80914F0491E08927D9
:1055100080934F04311018C033243394832D0F909F
:105520000F90DF91CF911F910F91FF90EF90DF903F
:10553000CF90BF90AF909F908F907F906F905F9033
:105540004F903F902F90089597E2492E512C2CE2D6
:10555000622E712C39E3832E912C0091B914109195
:10556000BA1401151105D1F28091BB144091BC14FD
:105570005091BD146091BE147091BF14A090C414DA
:10558000B090C5141092BA141092B91401301105DC
:1055900009F07FC1C0904D04D0904E0400912104C9
:1055A00010912204E090DE14F090DF148091B60C8C
:1055B000882311F0312CB2CF809120048111FACFD1
:1055C00069E172E1672B09F476C0C114D10409F4D2
:1055D00072C0D60158962C90B1E02B126CC0BE015F
:1055E0006F5F7F4FC6010E9498AD882309F463C0A6
:1055F00080E8F601A9E1B2E101900D928A95E1F708
:1056000020921912F6017A9686E0ABE2B2E101909F
:105610000D928A95E1F7E1E3F2E188E6DF011D9260
:105620008A95E9F789819A8190931F0480931E04DB
:10563000019787309105C8F190E080E09093AD0C20
:105640008093AC0C89E1C82E82E1D82EC6010E945D
:10565000DD88882309F4AECFD60152968D919C91B6
:10566000B0E0A0E08093B20C9093B30CA093B40C84
:10567000B093B50C80589F4FAF4FBF4F80935004ED
:1056800090935104A0935204B093530481E080930B
:10569000B60CC6010E944E806091B20C7091B30CA2
:1056A0008091B40C9091B50C15C08D5F9C4FFC019E
:1056B000808190E0C3CFC6010E94C1AD882369F00C
:1056C00081E080932004C6010E944E806AE570E06C
:1056D00080E090E00E941BAD40CF0115110509F458
:1056E000D4C0E114F10409F04DC0C80188579109F4
:1056F0000837110538F488E790E0801B910B0933D7
:10570000110528F1A8014953510998012C5231097A
:105710000752110970E4A71A7FE1B70AA9E8AA168F
:10572000A3E1BA0650F40217130738F4041715075B
:1057300020F40817190708F4AAC048175907C0F43D
:105740002417350708F4B7C191E080E080C0A401B8
:10575000401B510B0C321105C0F69301201B310B7D
:1057600007321105A8F6B201601B710B8B01D2CF75
:105770002817390708F089C02417350708F085C0B5
:1057800092E0E3CFA801485751090837110520F4EA
:1057900048E750E0401B510BC7018B5E9109BBEEFF
:1057A000EB16F10420F48BEE90E08E199F09480F60
:1057B000591FC801C9970933110518F4C401801B8A
:1057C000910B970125573109E5E7EE16F10420F416
:1057D00025E730E02E193F09280F391FC8018C97A3
:1057E0000C32110518F4C301801B910BB7016855E9
:1057F0007109F8E5EF16F10420F468E570E06E1920
:105800007F09860F971F0732110550F107521109C2
:105810007FE4E716F10448F1AFE4EA1AF1080E0D4F
:105820001F1D0817190730F40217130718F404177F
:10583000150768F124173507F0F48217930708F469
:105840003FC191E080E00217130708F490E09093C5
:10585000AC0C8093AD0CC114D10409F4ABCEF6CEE0
:10586000B201601B710B8B01D3CFEFE4F0E0EE19B6
:10587000FF097F01D4CF8417950738F48217930767
:1058800020F40817190708F07BCF90E05ECF98E06E
:105890005CCF0230110539F590912004992359F01D
:1058A0004A3551056105710508F084CE475E5D4EAD
:1058B000FA01808352CE9091B60C992309F47ACEE6
:1058C0000091B20C1091B30C2091B40C3091B50C36
:1058D000401751076207730708F06CCE0E944A24F4
:1058E00081113BCE67CE0330110509F0C5C0809110
:1058F0002004882309F498C066E070E1672B09F45E
:1059000088C000914D0410914E04C8010E94C1ADA1
:10591000882309F47EC089E192E1009709F479C0F7
:10592000BE016F5F7F4F0E9468AD882309F471C08C
:1059300080E8F801A6E0B0E101900D928A95E1F7C8
:1059400080916512809306108DE0E6E6F2E1A8E111
:10595000B0E101900D928A95E1F7109225108981AE
:105960009A8190931F0480931E04019787309105BC
:1059700008F454C090E080E09093AD0C8093AC0CA0
:105980001092BA0C1092B90C1092B80C1092B70C7D
:105990001092600410925F0410925E0410925D04F5
:1059A0001092590410925A0410925B0410925C04F5
:1059B0001092AE0C1092AF0C1092B00C1092B10C71
:1059C00086E090E10E94DD88882309F4F3CD809180
:1059D000181090911910B0E0A0E08093B20C909351
:1059E000B30CA093B40CB093B50C80589F4FAF4F3D
:1059F000BF4F8093500490935104A0935204B093EE
:105A0000530481E08093B60C1092200486E090E16C
:105A100041CE8DE499E00E94787ACCCD8D5F9C4F89
:105A2000DC018C9190E0A8CF8091B60C8823A9F07E
:105A30004091AE0C5091AF0C6091B00C7091B10CD4
:105A40008091500490915104A0915204B09153045C
:105A5000481759076A077B0719F010925704AACD17
:105A600081E0809357040E941B2A0E94CD2310934B
:105A700065040093640471CD0430110509F06DCD07
:105A800080912004882319F081E499E0C4CF8091AB
:105A90005804882319F084E399E0BDCF80911E0457
:105AA00090911F04892B21F481E08093610455CDEE
:105AB00087E299E0B0CF2817390708F0E6CE60CE2C
:105AC0008417950708F4DDCEE0CE9093AD03809364
:105AD000AC031092AB031092AA036093A50340930A
